:020000021000EC
:10B0000000800020C50102000D0202000F020200B4
:10B010000000000000000000000000000000000030
:10B02000000000000000000000000000110202000B
:10B0300000000000000000001302020015020200E0
:10B04000170202001702020021BF010017020200CE
:10B05000170202000000000085CA0100170202006A
:10B060001702020017020200170202001702020074
:10B070001702020017020200170202001702020064
:10B0800017020200F1C101001702020017020200BC
:10B09000A9C201001702020045FD010017020200CB
:10B0A000170202001702020000000000000000006A
:10B0B0000000000000000000000000000000000090
:10B0C00010B5064C2378002B07D1054B002B02D07E
:10B0D000044800E000BF0123237010BD801F002042
:10B0E00000000000C016020008B5084B002B03D07A
:10B0F0000748084900E000BF07480368002B00D15B
:10B1000008BD064B002BFBD09847F9E70000000074
:10B11000C0160200841F0020801F002000000000D5
:10B12000164B002B00D1144B9D46402292029A1AD6
:10B13000924600218B460F461348144A121A00F01B
:10B1400067F80F4B002B00D098470E4B002B00D018
:10B1500098470020002104000D000D48002802D06F
:10B160000C4800E000BF00F02DF82000290000F09E
:10B170006DF900F011F8C0460000080000800020C2
:10B180000000000000000000801F00209C32002012
:10B190000000000000000000084B10B5041C002B4C
:10B1A00002D0002100E000BF054B1868836A002B25
:10B1B00000D09847201C00F033F8C0460000000083
:10B1C0001C1402000E4B70B500251E1C0D4CE41A19
:10B1D000A410A54204D0AB00F35898470135F8E716
:10B1E00006F00EF9084B00251E1C084CE41AA410AA
:10B1F000A54204D0AB00F35898470135F8E770BD7D
:10B20000781F0020781F0020781F00207C1F00205E
:10B21000031C8218934202D019700133FAE7704779
:10B22000FEE7C04676DF704778DF70477ADF704709
:10B230007CDF70473CDF704748DF704708B5002A65
:10B2400002D0101C00F042FF002008BD08B500F03D
:10B250003DFF08BD08B5002002F090FD002801D098
:10B2600000F034FF02F060FE002801D000F02EFF55
:10B27000FFF7E0FF002801D000F028FF08BD000024
:10B28000012108B5034A044813785940117004F0AD
:10B2900096FF08BDBC1F0020D821002010B5104922
:10B2A000104804F0FDFD104C81B223680F480133B3
:10B2B000236004F039FF0823021C9A4307D00C4B8B
:10B2C000984204D00B4B984201D000F0FFFE20685A
:10B2D000032105F03BF84B1E9941074B197010BD37
:10B2E000B0220020C8210020C4220020D821002044
:10B2F0000430000001340000641F002008B50A4932
:10B300000A4804F0CDFDC1B2094803F0DDFD082371
:10B31000021C9A4307D0074B984204D0064B984230
:10B3200001D000F0D3FE08BD80220020D0210020F3
:10B3300090210020043000000134000010B5041CEE
:10B3400001F0F8FF201C03F069FB10BD10B5041CD0
:10B3500004F052FA1148211C04F0FCFD211C104895
:10B3600003F0B8FC201C03F055FC201C02F0E8FDA3
:10B370002388102B04D0112B0CD10122524207E05C
:10B38000072002F0FBFC002801D000F09FFEA288FD
:10B39000044B1A80201C03F0F5FA10BDD8210020C0
:10B3A00090210020661F002008B50378002B08D1EB
:10B3B000044B3B211888FFF735FF002801D000F02F
:10B3C00085FE08BD661F002008B507280CD00A2896
:10B3D00007D0042810D1094B13211888FFF722FF4A
:10B3E00004E0FFF737FF07E003F034FB0823021CFB
:10B3F0009A4301D000F06AFE08BDC046661F0020D7
:10B4000008B5002809D0032809D1013802F0B6FC9C
:10B41000002804D000F05AFE01E0FFF71BFF08BD32
:10B4200008B5064B1B78002B07D00549054804F0EA
:10B4300037FD81B2044804F0A9FE08BD641F002056
:10B440007022002088210020D82100200020F0B5A3
:10B450000521A5B0DF4A031C01F0E2F8002801D065
:10B4600000F034FEDC480121DC4A01F03BF9002801
:10B4700001D000F02BFEDA480121DA4A01F032F95E
:10B48000002801D000F022FED7480121D74A01F060
:10B4900029F9002801D000F019FED5480121D54A2C
:10B4A00001F020F9002801D000F010FE0320D2495D
:10B4B000D24A02F071FC002801D000F007FE14AC63
:10B4C0000020211C02F07EFD002801D000F0FEFDCE
:10B4D00026780820023E73425E41C9494822002373
:10B4E000F6B204F0F1FB002801D000F0EFFD0020DF
:10B4F0000121221C04F036FC002801D000F0E6FDFA
:10B50000C04804F047FC002801D000F0DFFD201CFB
:10B5100004F064FC002801D000F0D8FDBA4804F023
:10B52000FDFB002801D000F0D1FDB84804F000FC7C
:10B53000002801D000F0CAFD0BAD2E7001F02CFFE9
:10B54000002801D000F0C2FD281C04F087F8002874
:10B5500001D000F0BBFD4D2002ABC0180021052238
:10B56000FFF756FE0121E122637921710B4313405D
:10B57000D53A13431432934363710723A3710933FC
:10B58000E371A34BA348211C149304F0D7F80028BF
:10B5900001D000F09BFD11239F4E2B70301C05F055
:10B5A0001FF8311C82B2281CFFF742FE002801D090
:10B5B00000F08CFD9948FFF737FE002801D000F01D
:10B5C00085FD201C00210822FFF722FEA0235B003E
:10B5D0002380C83363800023A3809133FF33201C72
:10B5E000E380FFF723FE002801D000F06FFD00216B
:10B5F0003822201CFFF70CFE0223012703262370AC
:10B600000433E370864B00212422281C6361A77059
:10B610002682FFF7FDFD962300215B002B61783B1E
:10B620006B612F73201C00912A1C7E4B02F0F4FFEB
:10B63000002801D000F04AFD0F2702ABFF183E7032
:10B6400006AE00211422301CFFF7E2FD1022002379
:10B65000111C06930133194331730021B760724FF7
:10B6600033717173B17313433174381C311CF3732C
:10B6700004F094FC0397002801D000F027FD00217E
:10B680001422281CFFF7C4FD10230122191C1143AA
:10B690006973191C1143A973002113432B740B1CEC
:10B6A000E9730B91A96064336048291C2A712B73DC
:10B6B00003F03AFB002801D000F008FD40220021F1
:10B6C000201CFFF7A5FD201C594903F077FD11222E
:10B6D00023AB1A708523002202A95B18201C1A7064
:10B6E00003F08EFC002801D000F0F0FC512301266D
:10B6F0006427504950480B604F608E600E7304F011
:10B70000A7FB8C2300254D494D480B60A0334B60AF
:10B71000233BFF3B8B600D7304F09AFBFA234949EE
:10B720005B0049484B600F608E600D7304F090FB26
:10B73000201C291C1C22FFF76BFDA0239B026360C9
:10B74000F0231B03A36003232373039B14959B899E
:10B75000201CE3813D4B257463613D4BA36103F0E5
:10B7600021FAA84201D000F0B1FC802139484902F9
:10B77000002200F0CFFF002801D000F0A7FC8021BC
:10B7800035480902002200F0C5FF002801D000F072
:10B790009DFC32483249002200F0BCFF002801D055
:10B7A00000F094FCA0212F488902002200F0B2FF93
:10B7B000002801D000F08AFC032002F0D1FF00280D
:10B7C00001D000F083FC284804F0E8FEFFF734FDC8
:10B7D000F5E7C046C01F002024140200FDB201009E
:10B7E000201402009DB201002C14020021B40100BB
:10B7F0002814020081B20100CD0C0000C9B3010081
:10B8000028220020001E00204DB301003DB301009E
:10B810003DB20100C02200203014020041030000AC
:10B82000681F002001B40100D821002090210020D1
:10B830003B14020080220020D0210020B0220020F2
:10B84000C82100207022002088210020A9B3010017
:10B850004DB20100A8210020C82200209022002023
:10B86000662600009C1F00204F14020010B51C1C0F
:10B87000111C00201A1C00F0B9F8201C10BD026930
:10B88000C3689A4203D880681018013800E0501E3F
:10B89000C01A7047F7B5051CC668836840680191F7
:10B8A000141C9F1B8019974203D904F05AFEA41957
:10B8B0000AE001993A1C04F054FE019BE41BD919DB
:10B8C0006868221C04F04DFEEC60F7BD0023F7B55C
:10B8D000061C171CC568019100933369B468AB421C
:10B8E00000D81B19013B5B1B641BBC4200D93C1CEC
:10B8F0009C4200D91C1C7368221C5819019904F041
:10B9000030FE009B2D191B190093019B3F1B1B1937
:10B910000193B368EB1A5A1E93415B421D40F560D8
:10B92000002FDAD10098FEBD022310B5104C114A49
:10B9300023616361104BA261E3618023A2640F4A1B
:10B94000DB002362E26400231022A362E3626362ED
:10B95000E365A3652265636509490A4804F038FE7A
:10B96000201C094904F034FE2023A37110BDC046F9
:10B970002032002061140200F8220020E82200207A
:10B980006A140200273200206E140200F8B5182352
:10B99000451C5D434343141C134A0E1CD018C76A50
:10B9A000AD18012F0FD0002F07D0022F17D1221C66
:10B9B000281CFFF78BFF041C14E0281CFFF75FFF17
:10B9C000A0420ED305E0281CFFF759FF844200D99E
:10B9D000041C281C311C221CFFF75CFF02E0002421
:10B9E00000E03C1C201CF8BD2032002073B50C4B3D
:10B9F000061C1B780D1C141C002B01D1FFF794FFB3
:10BA0000EFF31083012181F31088301C291C221CC4
:10BA10000193FFF7BBFF019B83F3108876BDC046FF
:10BA200020320020F0B5184C85B001932378051C16
:10BA30000F1C161C002B01D1FFF776FF23699D42D6
:10BA40001ED2EFF31083012181F310880393002DA0
:10BA50000CD018236A1C5A436B43A750A218566097
:10BA6000019AE3181A6200229A625A6218235D430F
:10BA70000A9B6419E362039B83F31088002001E0B2
:10BA80000120404205B0F0BD20320020F0B5174C37
:10BA900085B001932378051C0F1C161C002B01D1C7
:10BAA000FFF742FF63699D421BD2EFF31083012130
:10BAB00081F310880393002D09D018236B43019A5A
:10BAC000E3181A6500229F649A65DE645A6518239C
:10BAD0005D430A9B6419E365039B83F31088002090
:10BAE00001E00120404205B0F0BDC04620320020F8
:10BAF00010B58268041C4068531C834205D8206836
:10BB00008154A360E3680133E360A26863689A42EA
:10BB10000CD120692168FFF769FFA368984203D020
:10BB200001235B42E36001E00023A36010BD00003D
:10BB3000F0B5051C1F1C081C012685B00A9C00914D
:10BB40000192019B984204D3019904F079FB0136DC
:10BB5000F7E70296BE4200D2029701230B9A1A40E1
:10BB6000039218D1002C01D1002414E00B9B202655
:10BB70009B070DD5002F0BD1103609E0281C311C76
:10BB8000FFF7B6FFEB68013C002B04DB002CEBD089
:10BB9000029BA342F2D3EB68002B35DB0126012F79
:10BBA00001D9013F06E00098311C04F049FB019BDC
:10BBB000984208D3019B5E43F1E7301C019904F0E1
:10BBC0003FFB061E10D00098311C04F039FB331CDB
:10BBD0004343009AD31A00930C4B195C281CFFF7BF
:10BBE00087FFEB68002BE8DA039B002B0CD0002CBE
:10BBF0000AD0029BA34207D2281C2021FFF778FF1E
:10BC0000EB68013C002BF2DA05B0F0BD75140200C0
:10BC1000F0B59FB00EAB099340230A930023161C86
:10BC200006900B930D900C930B784C1C002B04D1B9
:10BC30000C9B0393002B22DC16E1252B16D100254B
:10BC400002314F1E3B782B2B0CD003D8232B27D14E
:10BC5000082308E02D2B03D0302B21D1022302E052
:10BC6000012300E004231D430131EAE7191C09A860
:10BC7000FFF73EFF211C0C9B002BD5DAD8E70B9A6F
:10BC8000002A03D006980EA9FFF7B0FE0C9B039381
:10BC90000B9B0493049A039B944663440C93E3E048
:10BCA00000243A78131C303B092B05D80A235C4347
:10BCB000303C0137A418F4E7002303932E2A0DD15A
:10BCC00001373A78131C303B092B07D80A23039914
:10BCD00001374B43303B9B180393F2E73978042339
:10BCE0000A1C9A43682A02D139780137F7E7642998
:10BCF00026D008D8582900D195E063291AD02529E3
:10BD000000D0AFE0ABE0732900D195E00DD87029E9
:10BD100000D0A7E032680021131D33600823019191
:10BD20000093116809A8102296E0752971D078292E
:10BD300079D097E033681A1D32601968C9B28EE075
:10BD400033681A1D32601B68DA17981804930123B0
:10BD500050400593092805DD0A2104F001FB059BED
:10BD60000133F6E7059B039A934200D20592002C1B
:10BD700005D0049B002B01DB6B0700D5013CAB0712
:10BD800002D5039B002B10D0EB070ED4002C01D161
:10BD900000240AE0059BA34207D209A82021FFF74F
:10BDA000A7FE0C9B013C002BF0DA0C9B0793002BA9
:10BDB00058DB049B002B04DA5B42049309A82D2175
:10BDC00003E06B0703D52B2109A8FFF791FE0C9B1D
:10BDD000002B47DB03232B40022B11D1039B002BAD
:10BDE0000ED1002C01D100240AE0059BA34207D20A
:10BDF00009A83021FFF77CFE0C9B013C002BF0DAF8
:10BE00000C9B0593002B2DDB0094019509A8049948
:10BE100006E0336800941A1D32600195196809A87C
:10BE20000A22039B18E0336800941A1D32600195C2
:10BE300009A819681022F4E733681A1D32601C68DB
:10BE40002178013400290DD009A8FFF751FE0C9B81
:10BE50000393002BF4DA05E0FFF76AFE02E009A87D
:10BE6000FFF746FE791C06E70C981FB0F0BD0000F6
:10BE70000022074B1A60074A938A9168C95C938A2B
:10BE800001339BB29382044B044AD1507047C046A1
:10BE90001C210040F82600201C0500000020004066
:10BEA0001FB501236A461370044B107201915A6842
:10BEB00068461968904705B000BDC046F8260020C6
:10BEC0001FB500226B461A701872054B68469968B8
:10BED0009A7501915A681968904705B000BDC0462F
:10BEE000F8260020A32210B50A4B0B48DC7D0B4935
:10BEF000D200002C02D104608B5809E000240460B9
:10BF0000587E8A58D9680A545A7E0132D2B25A767B
:10BF100010BDC046F8260020082100400020004047
:10BF20001FB5C123414C9B00E258920526D5404ADB
:10BF30001168002922D0002313608122C2239200BD
:10BF40009B00E2503B4B9A7E002A02D101213A4AE3
:10BF50001160694602220A709021C9006258684641
:10BF6000625069460392DA7D0A72DA6819680192B2
:10BF70000022DA751A765A6890472DE0E3585B077D
:10BF80002AD52E4B1B68002B26D0FFF7ABFF294B81
:10BF90005A7ED87D191C90421ED11A7E002A09D0E3
:10BFA000DA751A69D968DA600022587E1A76C0B24A
:10BFB0005A760FE09B7E002B02D101221E4B1A60A5
:10BFC0008122C22392009B00E2500023487ECB7561
:10BFD000C968C0B2FFF764FF194B1A68002A0DD078
:10BFE000144A918A907D884202D9FFF741FF05E00B
:10BFF00000221A60904201D0FFF762FF114B1A68CD
:10C00000002A11D000221A600A4B9A7E002A01D021
:10C0100001222260DA7D002A06D00022587ED968EB
:10C02000C0B2DA75FFF73CFF1FBDC04600200040DC
:10C0300024210040F8260020042000400821004070
:10C040001C2100404421004073B500240E4D2B7884
:10C05000A34216D1012680230096201C0B490C4ACE
:10C06000DB00FFF7DFFCA04201D0082409E00094C8
:10C07000201C0849084A1023FFF708FD0028F4D1C6
:10C080002E70201C76BDC046242B00208514020093
:10C09000242700208C140200142700200EB403B5BE
:10C0A00003AB02CB01AA0193FFF7B2FD02B008BCBB
:10C0B00003B01847BFF34F8F024A034BDA60BFF358
:10C0C0004F8FFEE70400FA0500ED00E01FB50021E8
:10C0D00001AA9060034811805160FFF7EBFF05B0A3
:10C0E00000BDC0460140000010B54378827801339E
:10C0F000DBB2D21A041C501E8241524213402278F5
:10C1000000209A4205D00B70182360784343606882
:10C11000C01810BD154B02205968C905C90D24D09F
:10C120001039CBB25AB2002A0BDA0F221A40083A61
:10C13000C24082400E49521803210B4052688B4086
:10C1400007E092080B4BC0329200D25803230B40F9
:10C15000DB00DA40D3B29B09DBB20020012B04D014
:10C16000033B5A425A410230801A704700ED00E00A
:10C1700018ED00E000E100E08022194B9202DA673E
:10C18000D2218022174B520289005A5040395A500E
:10C1900001212F225960101C0138C046C046C046FC
:10C1A000C046C046C046C046C046C046C046C0465F
:10C1B000C046F1D1996000230B49101C0B60013877
:10C1C000C046C046C046C046C046C046C046C0463F
:10C1D000C046C046C046C046F1D1044A13707047FD
:10C1E00004E100E000100140282B0020482B002033
:10C1F00070B50024224B5C649C64DC641C655C604C
:10C200009C60204B1B68A34239D01F491F4A8A58A3
:10C210001F490D68551B2D022D0A1A6895421AD325
:10C22000AD1AA4181A7CDE69002A10D000221A74F4
:10C23000184A1268002A07D058699969904700285F
:10C2400005D0FFF743FF02E05A6998699047002E36
:10C2500001D0331CE1E7104B104A197813788B4258
:10C2600005D10133DBB2022B00D100231370137808
:10C270000B4A9B009C5080220A4B52035A6070BDAF
:10C28000FC1001402C2B0020001001400405000090
:10C29000282B0020302B00203C2B00203D2B0020A1
:10C2A000402B0020FCE100E0F0B5BF48BF4A036826
:10C2B000BF4989B0049309781378994211D00133AA
:10C2C000DBB2022B00D1002313701378B94A9B0014
:10C2D0009958049BCB181B021B0A0360012303938C
:10C2E00001E000210391B44B1B680693B34B1B780C
:10C2F0000193B34B019A1B6802920793AA4B1E68E5
:10C30000B04B1B780593069B02980138C2B202928B
:10C31000FF2A2DD0029AD400079A14192278657842
:10C320009542F1D018255543A77801326068D2B202
:10C33000BF1A4519381C471EB84147423A402F786A
:10C34000022F02D0032FEAD10CE09C461F1C6D681F
:10C3500060460028E3D0AC4500D148E16746F86963
:10C360008446F5E7002BDAD000251D74DB69F9E778
:10C370006846944A007D904D8B4C1070039A2B6058
:10C380002660002A06D1069A9B1A5A1E9341039AE8
:10C39000DBB221E00022161C002B1AD01868814263
:10C3A00004D2411A2B601960012315E0091A3618CE
:10C3B0000020DF681860D8698446002F07D0DA6152
:10C3C0001A1C04989F6030180002000A58606346E7
:10C3D000E2E779490B6001337749096802917849AE
:10C3E00002980968059121680491764909780691B7
:10C3F00001990139C9B20191FF296CD00199CD0091
:10C4000005994D19002A02D0111CD26922E0297821
:10C410006C788C42ECD018244C436E68013134198E
:10C42000AE78C9B229708E4200D12A70277861682F
:10C43000061C012F4DD10F7C002F4AD1A6684E60FB
:10C44000E6688E602669CE6064698C61069C002C6B
:10C4500000D04F604C68049E0394A61B5A4C3602D1
:10C46000360A8F68A64202D8F6190E600BE0049CCB
:10C47000039EA41B2402240AA74202D93F1B0F607B
:10C4800001E000240C60002401264C600E748C60D6
:10C49000CC610E1CA0421CD00E680468A64204D8D1
:10C4A000A61B0660C8610E1C13E08446041C2768A6
:10C4B000BE4206D9F61BE769A446002F05D03C1CF6
:10C4C000F5E7BF1B2760271C64460E60061CCF6182
:10C4D000E161301C96E7384A1060029A904202D11E
:10C4E000002B00D17EE0002800D179E005683749B3
:10C4F00037482D4B0C581B68364EE21A1202120AAE
:10C500003778033201920290002F1FD18020D1276B
:10C510004002BF00C851403FC851C02280272E486A
:10C52000BF0252008750076001272F200F6001389B
:10C53000C046C046C046C046C046C046C046C046CB
:10C54000C046C046C046C046F1D13770019AAA42E3
:10C5500000D22A1CA820D3181B021B0AC0000B50B3
:10C56000029A1A4D8958091B0902090A1C1B240248
:10C570000331240AA14235D9154BEB582B502F20FB
:10C580000138C046C046C046C046C046C046C04648
:10C59000C046C046C046C046C046F1D180220F4BBF
:10C5A00092025A601EE0C046282B00203C2B00203F
:10C5B0003D2B0020402B00202C2B0020342B002072
:10C5C000382B00203E2B0020FEFF7F000010014092
:10C5D00004050000482B002000E100E0FCE100E041
:10C5E000FFF7CAFD00220C4B1A7009B0F0BDAF4234
:10C5F00007D1DB69002B04D1012608488660059627
:10C600001E1C2868ED698446FD61002D00D186E678
:10C6100028686044286082E63E2B0020001001401C
:10C62000F7B5032700900D1C141C019307203A4214
:10C6300041D1214E002A01D132603CE0FFF79CFD40
:10C640001E4B019A34601A601D4B18221F70231C68
:10C650001833191C6A430020636020706070A57055
:10C6600008349B188C42F6D18021C022C524FF25B6
:10C67000144B49031860144B52001870134BA4005C
:10C680001870134B99501A59AA433F3D2A431A5127
:10C69000A1221960009C0F49D2008C50C424A40030
:10C6A0001D590D4A2A40C0252D022A431A510B4B11
:10C6B000CA580B4B1A60FEBD382B0020302B0020CF
:10C6C000342B00202C2B00203C2B00203D2B002065
:10C6D00000E100E000100140FF00FFFF0405000042
:10C6E000282B002010B50A4B1C680823002C0CD006
:10C6F000013B002A09D0002807D000680133047CE0
:10C70000002C02D1231C41744261181C10BDC0468C
:10C71000382B0020F0B51D4B051C1E6885B0082085
:10C72000002E30D0002D2ED0013804292BD96B6972
:10C730000130002B27D06B7C0027012B00D10F1C70
:10C7400001920091FFF7E6FC02ABC0003418DE1D39
:10C75000201C311CFFF7C8FC031C0420002B12D046
:10C7600001220B491A700B4A5D608A5800209A60BA
:10C77000009A1F61DA60019A5A618022337852036D
:10C780006370054B5A6005B0F0BDC046382B0020E1
:10C790000010014004050000FCE100E0F7B5134B78
:10C7A0001F680823002F1ED000281CD04269002AD1
:10C7B00019D000260674051CFFF7ACFC6B46C000C0
:10C7C0003C18DF1D201C391CFFF78EFC0423B042EF
:10C7D00009D08022023B03703B7845606370044BB4
:10C7E00052035A60331C181CFEBDC046382B002073
:10C7F000FCE100E0F0B58901002814DA0F23C4B28F
:10C800002340083B174A9B0803259B009B18FF22E7
:10C810002C40AC40151C1140A540A140DE69AE4340
:10C820003143D96112E0104B82089200D218FF23E5
:10C8300003241F1CC0250440E400A740AD00565946
:10C840001940BE43A140331C0B4353511F231840D2
:10C850001E3B8340C022181C034B520098501860A6
:10C86000F0BDC04600ED00E000E100E0A023800044
:10C87000DB05C018E02310B5DB00C458034A0904E7
:10C880002240C250C2581143C15010BDFFFFFCFFEF
:10C890000123054A81005B428B50032802D91018FE
:10C8A0003C3003707047C0464C2B002038B5124C0A
:10C8B0000820231C44331B78002B1CD11A1CFF2199
:10C8C00020320133A154202BF8D10025281C01353A
:10C8D000EDB2FFF7DDFF082DF8D106200321FFF7A9
:10C8E00089FF8021C123054A9B000906D1500123FD
:10C8F00000204434237038BD4C2B002000600040E1
:10C90000034B44331878431E9841C0B27047C04669
:10C910004C2B0020F7B5304B94461A180132D27FC9
:10C92000041C019308207F2A55D9CF780426002FB4
:10C9300008D00026043805E0274DB20053590133D2
:10C9400003D001368642F7D117E028190130F3B23F
:10C95000C37760465051002F02D1AD193C352C7081
:10C960008A78002A0BD0A020E0250226C005A2006C
:10C970001218ED005059B04309E004202BE0221CAE
:10C98000A0254878C132FF3280009200ED05505159
:10C99000C8780A785BB2002816D0A2250F499B0000
:10C9A0005B18ED0058590E49240201405951F820F6
:10C9B000C0214001120489025E5904400A40144318
:10C9C00034435C51002006E001999201CB183C33BE
:10C9D00019780A431A70FEBD4C2B002000600040FD
:10C9E000FFE0FCFFF8B5204D2C180134E27F53B274
:10C9F000032B1ADDEB183C331978890903290CD174
:10CA0000A223A022DB00D205D25801238340191CA7
:10CA100011404B1E9941023104E001394B4259410A
:10CA20000323591AFFF722FF1DE0032A1BD8A22770
:10CA30000E489A0012180120FF00D6590643D6511D
:10CA40001A1C002740329200084E92B29751B94208
:10CA500009D01F22A25692005259BA4203D0C122D5
:10CA600098409200B050F8BD4C2B00200060004070
:10CA7000A223A022DB00D205D358C340181C0123F7
:10CA800018407047F7B5012200243C4B1968012972
:10CA900008D1C1213A4889004158114202D00021F1
:10CAA000144319603749043352008B42EED1364BA0
:10CAB00000271A68012A08D11F6080231B061C4327
:10CAC000A022A223D205DB00D758230703D1002CD4
:10CAD00053DA002626E00126002534420DD0284AEC
:10CAE000AB009918A222D20088588958274AC0045E
:10CAF0008903C00E890F9B58984701357600042D95
:10CB0000EBD1E4E7E4B2C023251C9D435319013364
:10CB1000DB7F5BB29B009B580193002B0AD101364F
:10CB2000042E2AD0331C194A4033D45C63B201333B
:10CB3000E8D1F4E72B1CA022C133FF33D2059B00C0
:10CB40009B580122AA409B03A4099B0F174202D0C5
:10CB5000022BE4D102E0032BE1D103E0032C07D147
:10CB6000211C02E0032C03D10221281CFFF77EFECA
:10CB7000281C211C019B9847D1E7F7BD00610040AC
:10CB800000600040106100407C6100404C2B0020A0
:10CB900008B5064B586980235B05421C04D019690F
:10CBA00089B203F04DFB00E0586908BD0010001089
:10CBB00029DF704728DF704708B5034B034A1B780D
:10CBC0009B009B58984708BDBC2B00209414020082
:10CBD0000B1C37B50C24021C181C8968054D4C43EE
:10CBE0002D6819780095044D083064591B69A047D9
:10CBF00037BDC046C42B00209C2B0020802208B5E6
:10CC00005205116914220E4889B203785343C318A0
:10CC10001A69501EDA881B898018C01803F010FBAF
:10CC2000084A031C126801209A4207D300209A4246
:10CC300004D1054B1B6858425841C0B208BDC046DC
:10CC4000D02B0020942B0020982B002008B508231F
:10CC5000034A116899431160FFF7AEFF08BDC04653
:10CC6000B82B002008B5094A136819070AD4990798
:10CC700002D501210B4313600222054B1A70FFF706
:10CC80009BFF01E0FFF7E2FF08BDC046B82B002084
:10CC9000BC2B002008B5064B1B681B0705D40122DE
:10CCA000044B1A70FFF788FF01E0FFF7CFFF08BDC4
:10CCB000B82B0020BC2B002008B5002814D0112868
:10CCC00005D10823094A11680B4313600CE01423B3
:10CCD000074A1178594351180431FFF779FF0422AC
:10CCE000044B1A7000F098F808BDC046B82B00201D
:10CCF000D02B0020BD2B002008B5FFF759FFFFF710
:10CD0000DBFF08BDF8B51423144A802416786405A7
:10CD10005E439619371C331C2169F28889B2308929
:10CD2000083710330E4D8A420FD92169266989B21E
:10CD3000521AB9684018596880188918B2B2920816
:10CD4000FFF7DAFF23699BB206E0B9689208401842
:10CD50005968FFF7D1FFF3882B60F8BDD02B002076
:10CD60002C2E002038B580256D052C69084AA3B209
:10CD70001468013C5C43FFF70BFF2B69411E9BB21B
:10CD80005943044B201C1A68FFF7B6FF38BDC04654
:10CD9000942B0020CC2B0020142270B580260E4945
:10CDA00076050B785343CB181A89DC881B69A418C5
:10CDB0003169E418201C89B203F0C8FA0D1CFFF792
:10CDC000E7FE336901389BB25843044B41191A6896
:10CDD000201CFFF791FF70BDD02B0020982B002066
:10CDE00008B5FFF7D5FE80225205136901389BB2C2
:10CDF0005843054B116912691B6889B292B25943B5
:10CE00009208FFF779FF08BD942B002008B5FFF7C3
:10CE1000D1FEFFF751FF08BDF0B52C4B85B0187857
:10CE2000032850D803F0F8F9020E114B0023284ACA
:10CE30001360284A1360284B5B78002B43D000F026
:10CE400001F940E0FFF75EFF3DE0244C80272368B6
:10CE50007F0501930123019A9A43142302922260D1
:10CE60001D4A15785D4355192B6903933969181CC0
:10CE700089B203F0E5F91A4B061C1860039B396967
:10CE8000581EEB8889B2C01803F0DAF9864203D144
:10CE90000223029A134303E00323019A9A43131CCB
:10CEA0002360104B1A68104B002A03D1216802320C
:10CEB000114200D000221A70FFF77EFE03E0084BFB
:10CEC0001868FFF7A3FF05B0F0BDC046BD2B0020DA
:10CED000C82B00202C2E0020D02B0020B82B0020A7
:10CEE000942B0020CC2B0020BC2B00201422F0B56A
:10CEF0004E4985B00B7880255343CB181A1C083255
:10CF000052686D0501920C220198296942434848F4
:10CF10001C698218508916895268704382180292DF
:10CF2000DA88444E03921F8989B2D3191B190093E2
:10CF30000023201C336003F009FA2A1C00290BD1BE
:10CF40002B6903999BB2994209D0009B02998B42AD
:10CF500051D1002F5CD102E0019B032B08D1116954
:10CF6000201C89B203F06CF9334B186003233CE0BA
:10CF70002969381989B203F0E9F9304B8908196039
:10CF8000029A009B296993422ED089B2009803F03F
:10CF9000DDF9002928D080246B46640521691F88AB
:10CFA000236989B201936B46188903F049F96B46EE
:10CFB000051C9988381C03F043F9ADB280B2854254
:10CFC00007D16B466A461B8912889B1A9B083360FF
:10CFD0000AE023692169381C89B29CB203F0B6F9D2
:10CFE00089B2641AA40834600223154A1370FFF74B
:10CFF00013FF05B0F0BD019B032BB0D02969381990
:10D0000089B203F0A3F90D4B890819602969BCE7BF
:10D01000019B032BA3D02969381989B203F096F933
:10D02000064B890819602B69DEE7C046D02B00202B
:10D030009C2B0020982B0020942B0020CC2B002030
:10D04000BD2B0020142208B50A490B785343CB1896
:10D05000D988094A11601B79032B08D0042B06D00C
:10D06000012B06D1054A1370FFF7D6FE01E0FFF74A
:10D070003DFF08BDD02B0020C42B0020BD2B00207D
:10D08000F7B5124D01936E7808AC278804241E2E44
:10D090001AD02C78A4191D2C00DD1E3C14235C43EF
:10D0A0002C196261221C20710C3209C909C26B461D
:10D0B0009B882781E3800024054B01361B786E7026
:10D0C000A34201D1FFF7BEFF201CFEBDD02B0020E4
:10D0D000BD2B002038B51424104D00202978614361
:10D0E00069180431FFF774FD297800224C432B198D
:10D0F00002241A71DA80DC601A615A611A816B7835
:10D100000131013B6B70CBB21E2B01D02B7000E0C4
:10D110002A70034B1A70FFF77FFE38BDD02B00201A
:10D12000BD2B0020142208B507490B785343CB18B8
:10D130001B79042B02D0FFF7CDFF04E00122034B43
:10D140001A70FFF769FE08BDD02B0020BD2B002010
:10D15000F8B508241D4E35682C4022D114221C49F4
:10D160001C4F0B783F685343CB1880214905186941
:10D17000DA8809691B89002F16D001388018C01879
:10D1800089B203F05DF8144B1B6883420CD1134B3A
:10D190001C6001231D43124B35601C70FFF70CFD12
:10D1A00013E0FFF753FD10E0FFF728FD002804D03F
:10D1B00000220A4B1A60023202E0002F03D0032241
:10D1C000074B1A70EAE7FFF7ADFFF8BDB82B002058
:10D1D000D02B0020982B0020942B0020CC2B00205B
:10D1E000BC2B002008B5054B1B681B0702D4FFF7BA
:10D1F00099FF01E0FFF72AFD08BDC046B82B0020CB
:10D2000038B5154D2C68230723D4144A136801330D
:10D210001360134B04221B68002B04D1FFF7EEFCB4
:10D22000002802D002220F4B0CE00F4B1B68002B92
:10D230000CD00121221C0B4B0A4002D10C432C6064
:10D2400000E003221A70FFF7B7FC04E0FFF76AFF63
:10D2500001E0FFF7FBFC38BDB82B0020942B002029
:10D26000CC2B0020BC2B0020982B002008B51E4B97
:10D270001B78022B30D0032B19D0012B32D108217F
:10D280001A4A13680B4222D1142319490A785A43C7
:10D29000184B8A181968D3885B1A9BB2D380002B6D
:10D2A00002D1FFF717FF1DE0FFF72CFD1AE0082160
:10D2B0000E4A13680B420AD10F4A136801331360F8
:10D2C000FFF79CFC002804D1FFF72CFF0AE08B43FA
:10D2D0001360FFF7A1FD05E0084B094A1B789B008E
:10D2E0009B58984708BDC046BD2B0020B82B002096
:10D2F000D02B00202C2E0020942B0020BC2B0020B3
:10D30000A814020008B5024B1868FFF77FFD08BD9E
:10D31000942B002008B5FFF73BFC802252051369CF
:10D3200011699BB20138584389B202F089FFFFF7B7
:10D330006DFD08BD38B5144C04252278131CAB4391
:10D3400021D002281DD003281DD1104B1B681B07BC
:10D3500017D40F490B6801330B60032B04D0022A4A
:10D360000CD1FFF729FC0EE014230A4A0D20117896
:10D37000594351180431FFF72BFC2570FFF74CFD82
:10D3800001E0FFF773FF38BDBD2B0020B82B002054
:10D39000C82B0020D02B002097210023184A890099
:10D3A00010B513705370131D5218002402211C7005
:10D3B0005C809960DC601C619C8014339342F4D1E2
:10D3C000104B1C80FFF7E4FB802304225B051B69E4
:10D3D00003389BB258430C4B18600C4B201C1C604C
:10D3E0000B4B1C601C815C81DC609C82DC82094BE5
:10D3F0001C70094B1C60094B1C60094B1A6010BD66
:10D40000D02B0020B42B0020C02B0020942B002018
:10D410009C2B0020BD2B0020C82B00202C2E002090
:10D42000B82B0020F7B504242C4B1A68082322429D
:10D4300051D0063300284ED000294CD00268002A73
:10D4400049D080277F053A69838892B2934201D9F7
:10D45000072340E00F2BFBD9C288002AF8D05343A2
:10D460000E1C1F49041C0D685B190093FFF790FB0D
:10D470003B6901389BB25843194B0193009B83428F
:10D48000E6D8A3889B07E3D1164B1F880423022FFD
:10D4900021D008337B4337607560134A2068D11868
:10D4A0004D609850A08801370881E28880244A8125
:10D4B00064054243236921699BB2D018013889B2BF
:10D4C00002F04EFF2469019BA4B2604345191D6020
:10D4D000044B1F800023181CFEBDC046B82B002043
:10D4E000C02B0020B42B00209C2B0020F0B5124B49
:10D4F000061C1B6808205B071CD50630002E19D0BF
:10D50000002A17D035680738012D13D80C236B4338
:10D510000A4C1F59002F0DD0E3181C89766861430F
:10D5200089195E895B687443E418A14202D2002025
:10D5300015605160F0BDC046B82B00209C2B002028
:10D54000F0B5061C1C4885B004680820640731D576
:10D55000063000292ED0002E2CD037680738012F36
:10D5600028D80C257D43154C2F59002F22D07768E1
:10D57000641903972589678964686F43BC46039FD4
:10D580006444A74216D2002A14D0AA4212D8D41852
:10D59000AC420FDC0324093021420BD1234209D1D4
:10D5A000274207D11C1C0F38131C00940A1C311C85
:10D5B000FFF766FD05B0F0BDB82B00209C2B0020C6
:10D5C000F0B5061C1C4885B004680820640731D5F6
:10D5D000063000292ED0002E2CD037680738012FB6
:10D5E00028D80C257D43154C2F59002F22D0776861
:10D5F000641903972589678964686F43BC46039F54
:10D600006444A74216D2002A14D0AA4212D8D418D1
:10D61000AC420FDC0324093021420BD1234209D153
:10D62000274207D11C1C0C38131C00940A1C311C07
:10D63000FFF726FD05B0F0BDB82B00209C2B002085
:10D64000F0B5171C244A85B01268029308255307C9
:10D650003ED5063500293BD0002839D00C68073D5F
:10D66000012C35D80C2674431C4AA6580392002E70
:10D670002ED0039B4A681C1926896389646873430A
:10D680009C466444A24223D2002F21D0B7421FD827
:10D69000029BFC18B4421BDC03240935204217D13D
:10D6A000234215D1261C164012D13D1C0C1C991882
:10D6B0002A1C071C02F055FF0C23226800955343D7
:10D6C000039A201CD5580221321C3B1CA847351C4C
:10D6D000281C05B0F0BDC046B82B00209C2B0020B4
:10D6E000F0B5204B85B01B6808245B0737D506349E
:10D6F000002834D00368073C012B30D80C22534358
:10D70000194D5A59002A2AD0EB185A681F895B898B
:10D7100046687B439B1802939E4220D20934B3078C
:10D720001DD103900D1CB01A391C02F00FFE093CEC
:10D73000002914D1281C391C02F008FE89B20029E6
:10D740000DD1002D0BD0029BAE199E4207D80022AE
:10D750000320009203992B1CFFF792FC041C201C51
:10D7600005B0F0BDB82B00209C2B0020064B1A689A
:10D770000823520706D50633002803D0034B5B78F5
:10D7800003600023181C7047B82B0020D02B00200A
:10D79000F8B50024164B1B78A34228D90127391C61
:10D7A000144BE6001B68144A9E19307813688140B8
:10D7B0000B4219D08B431360FFF75AF935780F4BA2
:10D7C000AF401B681F40031CAB409F420CD17268E6
:10D7D0007378002A08D0013B59424B41191A48423C
:10D7E0004141281CC9B290470134E4B2D2E7F8BDE8
:10D7F000382E0020342E0020602E00205C2E0020C9
:10D80000F8B5134D071C281CFEF7C8FF00281DD1D2
:10D810000124BC400F4A1368161C234214D1381C43
:10D82000FFF726F90C4B1A68002801D0224300E0CC
:10D83000A2431A603368281C1C43084B0022196855
:10D840003460FEF767FF01E0A3431360F8BDC046F4
:10D850003C2E0020602E00205C2E0020302E002068
:10D8600073B5051C0C1C161C0720042A2FD9FFF7C2
:10D8700047F800280DD0164B164A1D60164B1C7039
:10D88000164B013C1E6000231360154AE4B213607E
:10D8900016E0FFF70BF80028EDD018E0032201A9ED
:10D8A0000A700022E300EB188A70CA709A78187820
:10D8B0004A700C4AFFF72EF8013CE4B2002806D16A
:10D8C000FF2CEBD108480021084AFEF70BFF76BD7C
:10D8D000342E00205C2E0020382E0020302E002018
:10D8E000602E002001D80100BC14020091D7010075
:10D8F00010B50024074B1B789C4208D2064BE2006F
:10D900001B680121D05CFFF76DF80134F2E70020BD
:10D9100010BDC046382E0020342E0020A02210B5A5
:10D92000064BD205D15880231B041C1CA1208C431C
:10D930000B400349C0001450535010BD04050000B3
:10D940000C050000F8B5061C0024172800D97FE15B
:10D95000A023A122DB05D200BE4D02F067FC180017
:10D96000230023004D007C009E00C100E100EF0079
:10D97000FC00EF00FC000A0111011101110111016D
:10D98000110148014F015A01650172017201B2494A
:10D9900000240868F0214904814399505C51AF4B41
:10D9A0001C7055E1E024AC4964040968A1208C4353
:10D9B0009C5000245C51AA4DA0215B59F0256D04B8
:10D9C0006B408025AD03C905C000A24A2B40A3428D
:10D9D00006D00D508C50022E09D0FA20000108E02C
:10D9E0008D500B50C820022E03D0001801E0E1201A
:10D9F000C0009A4B1E7021E0E02497496404096836
:10DA0000A1208C439C5000245C51954DA0215B5972
:10DA1000F0256D046B408025AD03C905C0008D4A1B
:10DA20002B40A34204D00D50E9388C50FF3802E05F
:10DA30008D500B50C8200322884B1A70642102F0CD
:10DA4000FFFB884B1B684343191C87480022FEF7E5
:10DA500061FE041CFCE0E0247F4964040968A12005
:10DA60008C439C5000245C517D4DA0215B59F025D6
:10DA70006D046B408025AD03C905C000754A2B407D
:10DA8000A34204D00D50FA208C50000103E08D50C9
:10DA90000B50C82040000422CEE7E0246E49640405
:10DAA0000968A1208C439C5000245C516C4DA0213E
:10DAB0005B59F0256D046B408025AD03C905C0009E
:10DAC000644A2B40A34202D00D508C5001E08D508F
:10DAD0000B500522614B1A70624B19684900B4E77C
:10DAE000E0245D4964040968A1208C439C50002413
:10DAF0005C515B4DA0215B59F0256D046B40802586
:10DB0000AD03C905C000534A2B40A34202D00D50BB
:10DB10008C5001E08D500B500622504B1A7016E0CD
:10DB20004D4900240868E02149048143995080212F
:10DB300089035C5159519C5007227FE0484958584D
:10DB40008021C9030C1C014084439C505951454B12
:10DB5000454819687AE7424958588021C9030C1C86
:10DB6000014084439C50595105213E4B1B68594349
:10DB70006BE7F0210024490459519C500C225DE0D0
:10DB80003A4F381CFEF70AFE041C1120801B324E4F
:10DB900020D0002C1ED180231B04336001280DD01F
:10DBA000C8236421584302F04BFB2E4B221C1B68F8
:10DBB0004343381C191CFEF7ADFD041CF0233268EA
:10DBC0005B041340A022D2055351A1230021DB00A6
:10DBD000D1503DE0F02332685B041340A121A02224
:10DBE000C900D205535000235351336030E0F02177
:10DBF0000024490499505C5112221FE0E02149049D
:10DC000099508021002489035C5159519C50132262
:10DC100014E0D0214904995080210024C9035C51AB
:10DC200059519C50142209E0C02149049950C02147
:10DC30000024C9035C5159519C501522074B1A709E
:10DC400006E0F0210024490459519C50034B1E70FA
:10DC5000201CF8BD0C050000702E0020B82E0020FE
:10DC600004050000742E0020782E0020BC2E002019
:10DC7000F7B5061E112E07D0122807D0132807D09B
:10DC8000142844D1032404E0002402E0012400E02D
:10DC9000022401291CD1032363431D4A9D5CD31830
:10DCA0005B780192002B0BD00A211A4B1A4F1B688C
:10DCB0001A4859433A1CFEF72DFD002800D13E704A
:10DCC00003236343019AD3189A78154B1A550DE034
:10DCD000002914D11148FEF761FD032363430C4A68
:10DCE000D3180F4A9B78155D9D4210D1002D0ED0A0
:10DCF0000C4B1B68002B0AD0281C984707E0022910
:10DD000005D103235C43024B1C196578EEE7F7BD90
:10DD1000DD2E0020742E0020DC2E0020982E002006
:10DD20006C2E0020682E002008B502210078FFF735
:10DD30009FFF08BD08B5044B1B68DB0703D5034BE9
:10DD40001878FFF7FFFD08BD642E0020B82E0020D4
:10DD5000002303280CD8A223A022DB00D205D2582E
:10DD6000054B8000C0580123834093435A1E9341C2
:10DD700000200B707047C046C414020008B5054A65
:10DD8000031C12680020D20702D5181CFFF7DAFD29
:10DD900008BDC046642E00200B1C214910B50B6045
:10DDA0002049041C086020490A600021820718D518
:10DDB0001E4A0D3111700131D17001319171013163
:10DDC00051721B480C395A08FFF74AFD011E08D151
:10DDD000FFF78EFD011E04D11648174AFEF782FC9C
:10DDE000011CE3070BD5A023F022A1200024DB05B2
:10DDF0005204C0001A5011481C500C301A5000290F
:10DE00000BD10F480F4AFEF76DFC011E05D1013101
:10DE10000D480E4AFEF766FC011C081C10BDC046EA
:10DE2000742E0020642E0020682E0020DD2E00209D
:10DE3000D8140200C014020029DD01000C05000006
:10DE4000D414020035DD0100F81402001DD90100D0
:10DE50000723032821D8012A06D10022012903D152
:10DE6000021C0D32D2B20BE0012909D000290CD0DE
:10DE7000022911D103235843094B1818427009E0B5
:10DE800003235843064BC25404E003235843044B76
:10DE900018188270002300E00723181C7047C04642
:10DEA000DD2E0020002170B50D4B8A00D258A02332
:10DEB0009200DB05D2180123E0248B40E4000340EC
:10DEC00015595E1EB341074E5B423540C026B6026F
:10DED00033402B43013113510429E5D1002070BD9B
:10DEE000C4140200FFFFFCFF08B50020022101223C
:10DEF000FFF7AEFF002801D0072814D1012002212E
:10DF00000722FFF7A5FF002801D007280BD100202A
:10DF10000A22011CFFF79CFF031C0020834202D051
:10DF2000072B00D0181C08BD08B50320FFF7BAFF67
:10DF3000031C0020834202D0062B00D0181C08BD11
:10DF400010B50388102B02D0112B27D035E01B4CC5
:10DF5000216800291ED1081C0122FFF779FF002843
:10DF600001D0072811D1012002210722FFF770FFFD
:10DF7000002801D0072808D1002002210422FFF741
:10DF800067FF002806D0072804D00D4B1B68002B24
:10DF900000D098472368013323600EE0074A1368D6
:10DFA000013B1360002B08D1FFF79EFF002804D02F
:10DFB000034B1B68002B00D0984710BDF02E0020AB
:10DFC000EC2E0020144B73B50C1E186007D1134BB8
:10DFD00000201B68002B1DD1FFF786FF1AE06B465F
:10DFE0009D1D0020291CFFF7B3FE002812D16B46AF
:10DFF000DE1D0130311CFFF7ABFE00280AD133785B
:10E00000002B01D0022303E02B78002B00D00B2340
:10E010002370DCE776BDC046EC2E0020F02E0020F9
:10E0200071DF704772DF704779DF70477DDF7047BF
:10E0300065DF7047F0B50025061C2F1C89B00193E1
:10E040000EAB10CB04911B88039205932388029397
:10E0500033889F423DDA7368B9005918042207A833
:10E0600002F07FFA06AB07A8D91C0022FFF7E0FFF9
:10E0700000283DD106ABDB78039A934225D16A4252
:10E080006A4103992388520059188A1805998A42CF
:10E090001DDC002D09D169460133019A097C9BB230
:10E0A0002380D15423880133238006ABDD1C2288D2
:10E0B000019B07A89A18291CFFF7BAFF002817D15F
:10E0C0002A7801252388D31823800137C0E70C2044
:10E0D0000EE0002085420BD02388029A013B9B1A58
:10E0E0009BB20C30FF2B03D80020019A02995354A5
:10E0F00009B0F0BDF0B51C1C85B00AAB80CB039213
:10E100001E88022200970196231C051CFFF792FF30
:10E11000002807D100970196281C03991022231C80
:10E12000FFF788FF05B0F0BDF0B5031C108887B07D
:10E13000029000201080586B002814D004780298B8
:10E14000022800D8EEE10220112508701088013065
:10E1500080B210800D541088013080B210800C54B1
:10E160001088013010801C6B002C05D1181C2E303B
:10E170000578002D47D01EE01088029E051C123540
:10E18000B54200D9CEE111250D541088013D013072
:10E1900080B210800D54108801301080201C013C8A
:10E1A0000F300678158801384E55158801351580D1
:10E1B000A042F6D1DAE71488029FE61C0C20BE428A
:10E1C00000D9EBE102260E55148810300134A4B2B8
:10E1D000148008551488013D0134A4B21480153808
:10E1E000032D00D9DAE1281C02F016F80204060813
:10E1F000002004E0012002E00E5501E00320085554
:10E200001088013010801F1C2D331B78141C0D1C2E
:10E21000002B03D1BB78002B52D02EE01388029A3A
:10E2200009330C20934200D9B8E104AE301CFFF74B
:10E23000F7FE002800D0B1E1082209212388EA5422
:10E240002388133201339BB22380EA54208802AB27
:10E25000013080B22080C918153A281802F081F9DF
:10E260002388327806339BB22380002A00D0012213
:10E27000EA54238801332380CCE72388029A0433AD
:10E280000C20934200D989E104AE301CFFF7CCFE8C
:10E29000002800D082E103222388EA542388163222
:10E2A00001339BB22380EA542388328801339BB226
:10E2B0002380EB181A70120A5A70238802332380C5
:10E2C000FA78002A15D023880298D91C814200D9F7
:10E2D00028E10221E9542388013901339BB22380CC
:10E2E000E95423885B189BB22380EA5423885B1887
:10E2F00023807B68002B16D01A7823880298D91CBB
:10E30000814200D90EE10221E9542388083101330A
:10E310009BB22380E954238801339BB22380EA54C3
:10E320002388013323803B89002B03D13B8A002BB8
:10E330001AD00CE0381C029B009401930830022193
:10E3400006222B1CFFF7D6FE0028EFD026E1381C52
:10E35000029B009401931030032107222B1CFFF72E
:10E36000C9FE002800D019E13B8B002B0CD0381CD3
:10E37000029B009401931830142115222B1CFFF7E7
:10E38000B9FE002800D009E13B6A002B46D0228864
:10E390000299944606320C208A4200D9FEE0198880
:10E3A0000538052900D8F9E07D4A7E4E8A1892B2D8
:10E3B000B24200D8F2E05A880392052A00D8EDE074
:10E3C000774E9619774AB6B2964200D8E6E0764E76
:10E3D000B14205D0039AB24202D0914200D9DDE0A9
:10E3E000052261466A5412212288013292B22280AB
:10E3F000A9542288013292B222801988AA18117079
:10E40000090A51702288023292B222805988AB18D0
:10E410001970090A59702388023323807E6A002EFE
:10E4200031D0B38821881A1D52189446029A0C20C4
:10E43000944500D9B2E09A1CFE2A00D9AEE0FF2232
:10E4400003336B54238801339BB22380EA5423881F
:10E4500001339BB223803288EB181A70120A5A706B
:10E46000238802339BB22380B288002A0BD0B16884
:10E470000538002900D191E0E81802F072F82288EE
:10E48000B388D31823803B1C2C331B78002B04D17A
:10E490003B78181E00D181E03BE0BB6A002B00D125
:10E4A0007BE0002303933B1C2C331B78039A93429D
:10E4B000EED90C20039EBB6A46439E19B3889A1C72
:10E4C000FE2A6BD822880333AB54162223880133EB
:10E4D0009BB22380EA54238801339BB22380328885
:10E4E000EB181A70120A5A702088023080B220800D
:10E4F000B288002A09D0B16800294ED0281802F04D
:10E5000030F82288B388D3182380039B0133DBB211
:10E51000C8E73A880720012A40D022880299901C37
:10E52000884201D90C2039E0012B05D17B78029972
:10E5300002339B188B42F5D8029E2818023EB61A69
:10E54000B3B202936B4604AE1B89311C3380FFF7D4
:10E550006DFD002822D13B78022B05D1338802992A
:10E5600009228B420AD905E0012B03D17B78029A5C
:10E57000934201D96B461B89082233803188FE29DA
:10E58000D0D823880131E954238801339BB22380FA
:10E59000EA542388C918218000E0072007B0F0BDA5
:10E5A0007FF3FFFF7DF30000FFFF0000F0B593B0A5
:10E5B0006A461F2301AE971D0D1C33803B80002847
:10E5C00004D0C3785B0711D407201FE0041C3080FF
:10E5D000002D03D0EB78002BF6D10FE02A1C3D80F4
:10E5E00031783B78201CFFF71DFD0FE002A9321C9B
:10E5F000FFF79AFD02AC0028EAD007E03A1C281C7D
:10E600000AA9FFF791FD0AAA0028E9D013B0F0BDCE
:10E6100073DF704774DF7047F8B5041C0E20002CC0
:10E6200000D17EE0002A00D17BE000250E1C3D4990
:10E630000D703D490B6006993C4B19603C490B1C21
:10E6400083CA83C383CA83C383CA83C3291C0722A3
:10E650003848FCF7DDFD384B384A394F1A60394AE3
:10E66000291C9A60381C3822FCF7D2FD2378221C22
:10E670003B70A3781032BB70E378FB7063787B70DB
:10E680003B1C103303CA03C33B1C103A083303CAB4
:10E6900003C33B1C0832183303CA03C3636A381C24
:10E6A000AB420DD1A36A002B27D0274B274A8362A8
:10E6B000A16A9A608D889D800F881F8000230FE0DB
:10E6C000234A244B7A62616A93600F8817808F888F
:10E6D0009780BD42E6D28A68525D5A550135F8E707
:10E6E000AB4204D28F68FF5CD7540133F8E7231C98
:10E6F0002C331A78031C2C331A70236A002B06D093
:10E70000154B0362226A5188598012881A80636807
:10E71000002B03D0114B436063684360311CFFF74B
:10E7200045FFF8BD04300020382F00205C2F00206A
:10E73000682F0020602F0020B02F00208C2F002099
:10E74000F42E0020E42F00200C300020C02F0020E9
:10E750002C2F00203C2F002006300020AC2F002062
:10E76000F0B500247C4E8BB0307003A80394FEF704
:10E77000FDFF082801D1039402E0071E00D0E8E065
:10E78000039F002F04D00122744B00271A70E0E091
:10E79000734C391C201C0722FCF73AFD714D6B7835
:10E7A0000094002B02D03378012B05D0AB78002BDE
:10E7B0000DD03378022B0AD16B4B6C4A1B68002BAF
:10E7C00004D0012108201170984700E013703378BD
:10E7D000012B0BD16A78002A06D0009AD25C002A5D
:10E7E00004D10133072BF8D1022333703378022B85
:10E7F0000CD1AB78002B07D00123009AD25C002A01
:10E8000004D10133072BF8D1032333702B7B002B6A
:10E8100004D13378032B01D1013333702B7E002BCD
:10E8200005D13278042A02D1514A337013704E4B0D
:10E83000504A1968019300290FD03378033B012B0C
:10E840000BD82B78002B08D04B4B1B78002B04D116
:10E85000013307201370884701E00023137004ACD4
:10E86000201C00211822FCF7D3FC002330782370F1
:10E87000013863602372E360032840D801F0CCFCC8
:10E88000020C162A0022009B62826360012322820E
:10E89000374A2370137032E0009B02226360012329
:10E8A00023702B8963826B68238226E0AB8A6382A4
:10E8B0002B8A2382314B1A79002A02D11A7B002A33
:10E8C00006D02A78002A03D02B4A1178002927D0B5
:10E8D000032212E0AB8B23822B8C6382274B1A79A5
:10E8E000002A02D11A7B002A06D02A78002A03D0F7
:10E8F000214A1178002920D004221D4B1A70337848
:10E90000002B07D1019B1B68002B22D0184A1078DE
:10E9100098471EE0201CFFF77BFE0028F2D00AE09B
:10E920000222E360042316482272C370FFF73EFE02
:10E9300005220028E1D0071C0BE00222E36004233B
:10E940000F482272C370FFF731FE06220028D4D090
:10E95000F1E7381C0BB0F0BD04300020053000207A
:10E96000602F0020682F0020382F0020DF2F00208C
:10E9700018300020E02F00205B2F0020B02F002057
:10E98000F42E002008B50388112B0AD0192B12D0C1
:10E99000102B36D1037D012B33D18288194B1A807D
:10E9A0002FE00022184B1A70164B82881B8801201A
:10E9B0009A4226D113E08379002B22D1134B187889
:10E9C000013803281DD801F027FC02040614022098
:10E9D00005E0032003E0032204200D4B1A70FFF72B
:10E9E000BFFE00280DD00B4B1B68002B09D09847A9
:10E9F00007E00020064B1870074B1B68834200D0CD
:10EA0000984708BD741F00205B2F002004300020B1
:10EA1000183000205C2F0020382F0020023808B565
:10EA2000012810D8084B1A78002A0CD000221A703E
:10EA3000064B1878FFF794FE002804D0044B1B689F
:10EA4000002B00D0984708BD05300020043000207E
:10EA50005C2F002038B5104B1B78002B1AD00F4BC1
:10EA60001A781D1C002A15D10D4B1C78002C07D1DB
:10EA70000123201C2B70FFF773FE002805D109E04D
:10EA8000FFF7C8FD0028F3D005E0064B1B68002BFC
:10EA900000D09847002038BD682F00205B2F002051
:10EAA000043000205C2F002075DF704776DF704750
:10EAB0007ADF70477BDF704737B5174B1888174BE5
:10EAC000984227D0164A174D13782C1C0133DBB21D
:10EAD0001370297B994208D31349FFF7E5FF0028FB
:10EAE00018D0AB69002B14D114E0002313702B7CD9
:10EAF000002B08D03B21FFF7D9FF002803D0AB69DA
:10EB0000002B00D098476369002B03D0002201A896
:10EB10000270984737BDC04660300020FFFF0000FC
:10EB200022300020243000206230002037B5174BFF
:10EB3000174A5B881188174C174D99420CD8528898
:10EB40009A4209D36369002B03D0012201A8027005
:10EB5000984700232B7037BD2B78002B05D06369B5
:10EB6000002BF6D001A80022F1E70C4B1B78002BFC
:10EB700001D1616800E0A16809480022FDF7CAFDE3
:10EB80000028E6D0A369002BE2D1E2E71A3000208A
:10EB90006230002024300020193000202230002074
:10EBA00040300020144938B5021C0B1C32CA32C355
:10EBB00032CA32C31268114C1A600022104B01682D
:10EBC0001A70201C914213D0083201F0CAFC201C9C
:10EBD000FFF76EFF00280ED101220021094B52429F
:10EBE0001A80094B094A0A481970FDF77BFD02E0BB
:10EBF000FFF760FFEEE738BD2430002062300020D0
:10EC0000193000206030002022300020B9EA0100D5
:10EC1000FC14020010B50388112B19D002D8102B58
:10EC200005D041E0122B38D0502B20D03CE0011C05
:10EC300082881E4B16311A801D48082201F091FC73
:10EC400000221C4B1A701C4BDB8993422CD129E00B
:10EC50000122164B52421A800022164B17481A7096
:10EC6000FDF79CFD00281FD0134B9B6911E0124C4F
:10EC7000C188E289914217D1C38B022B14D1013094
:10EC8000C37FDB070ED40D48FDF788FD00280BD0AD
:10EC9000A369002B08D0984706E0811D082204488C
:10ECA00001F05FFCFFF742FF10BDC046603000205E
:10ECB0001A30002022300020243000204030002074
:10ECC000A0DF7047A2DF7047A3DF7047A4DF704763
:10ECD000A6DF704713B5002825D0002923D00B8864
:10ECE000112B05D0502B07D0102B1CD18B8801E0A5
:10ECF00001235B42438216E0037D002B13D0CC88B6
:10ED0000428994420FD1CB8B022B0CD10368002B8C
:10ED100009D00131CA7F01A9D20701D5002200E044
:10ED200001220A70984713BDF0B50E2693B0002853
:10ED300000D1C0E0002900D1BDE00B6801240360D0
:10ED400001235B4243820A7903745C4B02750D1CFC
:10ED5000021D04A9071C201C8C700B80FFF7B0FF5C
:10ED6000011C061E00D0A6E03B7D002B0FD002AE9A
:10ED70000322301CFCF74CFA102306221C4334708B
:10ED80006B7B7370B3789343043A1343B3700BAE49
:10ED9000301C00211C22FCF73BFA01223B7D30781D
:10EDA0001A40110102220243102082430A433270AA
:10EDB000591E8B4100225B427260F260326102AAEE
:10EDC0001A4000237261B36101226B469A756A464C
:10EDD0003B4B0021938203A80322FCF719FA6A46F1
:10EDE000AB7B06AC1373EB7B00215373937B062242
:10EDF0009343043A134306329343083293430F3A42
:10EE000093436A4693732B7B201CD3701422FCF728
:10EE1000FFF905AB069303AB636001232381002355
:10EE200063810123A3816B4603332361311CB888BE
:10EE3000BB1D221CFFF746FF061E3CD1AB68002B12
:10EE400038D06B4601229A756A461E4B311C93825C
:10EE500003A80322FCF7DCF96A462B7CA96813732C
:10EE600000235373937B06229343043A13430632E1
:10EE70009343083293430F3A93436A4601A893732E
:10EE800000F096F9051C311C1422201CFCF7C0F977
:10EE90003A1C05AB236003AB6360ADB201AB668186
:10EEA0002581A5812361F8880E32211CFFF70CFF14
:10EEB000061C00E0F881301C13B0F0BD0F180000F4
:10EEC000192A000008290000F0B589B06B46051C1E
:10EED000DF1DD9710E24002833D0037CCAB2002470
:10EEE0009A422ED002AE211C0822301CFCF790F969
:10EEF0000123E988688A321C748033807760FFF7C9
:10EF0000E5FE041C011E1CD13B786A8A2B740E4B53
:10EF100008349A4215D02B7D002B12D004AC201C53
:10EF20001022FCF775F9EB88211C23800123A370C4
:10EF30007388A660A3807368E360688AFFF7C8FEE1
:10EF4000041C201C09B0F0BDFFFF0000A0DF7047CB
:10EF5000A2DF7047F0B593B003900191171C0293A4
:10EF6000002902D1081CFDF7B1F8002F02D1381C8E
:10EF7000FDF7ACF80BAC201C00211C22FCF748F973
:10EF800002222378002513436A46012692892370C2
:10EF900004AB9A80291C181C03229E716560E560F1
:10EFA00025616561A561FCF733F9029B04AA1B7812
:10EFB000291C1370029B5B7853709378062293434D
:10EFC000043A1343E5321340B34304AA06AE9370E8
:10EFD000301C1422FCF71CF905AB069304AB7360DC
:10EFE000019B211C3361054B321C1888189B37810B
:10EFF0007581B781FFF7ACFF13B0F0BDB2300020D0
:10F0000010B5041C012086B0554B03A9554A8870E1
:10F010000B80FFF79BFF002800D09EE02288002A8B
:10F0200003D12289002A16D00AE04F4B4F480093A3
:10F03000231C61683C33FFF78DFF0028F1D08CE082
:10F040004B4B4C480093231CE1683C33FFF782FF95
:10F05000002800D081E0228A002A09D0464B474888
:10F060000093231C61693C33FFF774FF002874D1BF
:10F07000228B002A09D0424B42480093231CE169AD
:10F080003C33FFF767FF002867D1228C002A09D0A4
:10F090003D4B3E480093231C616A3C33FFF75AFF07
:10F0A00000285AD1228D002A09D0394B39480093C3
:10F0B000231CE16A3C33FFF74DFF00284DD1236B41
:10F0C000002B1BD01A7804A90A705A7832484A706B
:10F0D0009A788A701A68120ECA701A790A719B6837
:10F0E0001A0A4B711B0CCB712C4B8A710093231C99
:10F0F00008223C33FFF72EFF00282ED1636B002B34
:10F1000003D1A06B00280CD127E025491A79009182
:10F110001968231C23483C33FFF71CFF0028F0D05C
:10F120001BE0037804A90B7043881F4A4B701B0A2D
:10F130008B708388CB701B0A0B71C3881B484B7183
:10F140001B0A8B71231C00923C330722FFF702FF3E
:10F15000031C0020834200D0181C06B010BDC0461E
:10F160000A180000B230002082300020292A000056
:10F1700072300020242A0000A2300020252A00003E
:10F180009A300020272A0000AA300020262A0000FA
:10F190006A300020282A0000232A00007A3000204C
:10F1A0008A3000202A2A000092300020502A0000D5
:10F1B0000B7803704B7843700220704738B5041CFD
:10F1C000081C0D1C01F00CFA6560208038BD7FDF43
:10F1D000704782DF7047A7DF7047A9DF7047AADF5B
:10F1E00070470020704700207047002070470020C3
:10F1F00070470020704700207047002070470000D3
:10F20000F0B585B0041C0E1C02AA81782148FEF7D7
:10F210006DF900283CD10C2361781F4A4B43D31869
:10F220009B7A1E4F01925B0605D4022E03D01C4F21
:10F23000012E00D01B4F1C25A1781B4B694302A84F
:10F2400059182A1C0023B847002813D1022E1FD0BA
:10F250000C234021627802A85343019AD3189A7A6A
:10F260008A439A726178114B69432A1C59182B1CE6
:10F27000B84701E0022E0BD00C23227802A853439A
:10F280000B4A211CD3189B7A0A4A9B009B5898472B
:10F2900005B0F0BDF8310020D8300020C1D5010004
:10F2A00041D50100E3F10100E4300020A831002045
:10F2B000E831002000150200F7B5242201904378C0
:10F2C00029485A4381184C68284F002C0FD00C2134
:10F2D00059437918897A4DB2002D07DA490605D4C9
:10F2E000151C0835A6B24519145802E00024261C46
:10F2F000251C0C225343FB181889291C321C231C83
:10F30000FFF76BFF0B2818D10C22019B291C5B789F
:10F310005343FB181889321C0123FFF75EFF0028B6
:10F320000ED00C21019B124A5B784B43FF183889A1
:10F33000FFF751FF00280AD115E0002803D100E0B3
:10F340000124002000E00B48012C0CD1E9E7022247
:10F35000094BC318934303D0082801D0112801D1C9
:10F36000044800E00020FEBDC4310020D830002059
:10F37000FFFF000041800000FECFFFFF08B5FFF750
:10F380009BFF08BD1A23F0B58BB002AA53800C2254
:10F3900001904B780E1C5343244A03A9D3181889B3
:10F3A00002AB9A1C0323FFF71AFF00283BD1242449
:10F3B00070781F4F604302AB08305A88381803A991
:10F3C00001F0C0F83D1C737800280DD10C225A437F
:10F3D00016498A18917A0222114024D16343221CD3
:10F3E000F818FBF715FF1EE05C433C196268114FEB
:10F3F000002A00D1104F242403226343EA5002ABB9
:10F400005A88737803A96343EB185A607078604395
:10F410000830281801F0A5F8717801986143221C82
:10F4200069183823B84700200BB0F0BDD830002051
:10F43000C4310020C1D5010041D5010008B5FFF756
:10F44000A1FF08BD70B52424031C4878094D604312
:10F450000E1C2818191C221C3823FEF7F1F800286E
:10F4600006D173785C432C196368013300D1606066
:10F4700070BDC046C431002008B5FFF7E3FF08BDEA
:10F48000F0B54E4C93B02468002C00D194E0189C49
:10F49000742C00D990E00024171CFF221D1C061CB0
:10F4A00003AB5A709A70DA701C7002AB1C74189B14
:10F4B00001910B950A93A1B2414804AAFEF716F8F0
:10F4C000002809D1301C04A9082201F03BF80028CB
:10F4D00002D103AB9C7002E00134072CEBD103AEE8
:10F4E000B378FF2B68D0019A06AC032A07D1189B8A
:10F4F000742B01D1543B00E04023237046E0314A95
:10F50000AA1AC32A10D8304A002F04D101219940E9
:10F510001068084250D0012199400B1C1168994392
:10F520002023116023703EE0284AAA1A1B2A08D81B
:10F5300020232370002373700CAB0B9318230A93C2
:10F5400031E023482A1A232A0FD8302302AA137441
:10F55000002373700133F3701E4B997A0223194014
:10F5600021D12422FBF754FE1DE0402222701A4ACA
:10F5700095420BD0194A99008A58AA421CD1154AC3
:10F58000D27A9A420FD1002373700CE003222378C1
:10F590001343237009AB6360084B301C1B68211CAC
:10F5A0003A1C984708E0019B022B02D123780122E4
:10F5B000EEE723780222EBE713B0F0BDE83100203C
:10F5C000F8310020E4300020F4310020A831002080
:10F5D000C4310020D830002030150200B4300020A3
:10F5E00070B51C2444430F4E051C301900213419FA
:10F5F00006221130FBF70CFE201C00211022FBF725
:10F6000007FEFF232374A376013BFF3B23830233D2
:10F61000AB40054AAD001168994311600022034BCD
:10F62000EA5070BDE4300020F4310020B4300020F6
:10F6300037B581B2051C6A460748FDF757FF041E1F
:10F6400008D168467421FEF74BF8041E02D1281C2D
:10F65000FFF7C6FF201C3EBDF8310020F0B585B095
:10F66000002856D000252C4B041C1D605D729D7235
:10F6700001232A48291C8372023B07220381C3729B
:10F68000FBF7C6FD2648291C2422FBF7C1FD281CD8
:10F69000FFF7A6FFFF22234BEA540135072DF6D1D1
:10F6A0006A467423204F9380204B6846391CD580CE
:10F6B0000093FDF7B7FE3E1C00282BD101231C4D03
:10F6C00024782B70002C1AD1A1B2301C02AAFDF7AD
:10F6D0000DFF071E0CD11C22131C6343154802A901
:10F6E000C0183B1CFDF7ACFF002804D02F7011E0C0
:10F6F00000232B700EE00134072CE5D10AE06B46A5
:10F700006A46DB889188381C594389B2FDF7E8FFC7
:10F7100000E0094805B0F0BDE8310020D8300020F5
:10F72000C4310020D0300020F831002081F40100E5
:10F73000D7300020E43000200E800000F8B5174BD1
:10F740001B78002B24D0002824D0002922D00B685D
:10F75000002B1FD0124D2C68002C1DD1061C281C1C
:10F760000F1C08C00531052200F0FBFE3B7902208A
:10F77000AB72012304212A7A9A4302438A432A72F4
:10F78000EA79134303438B43EB71201C347004E08C
:10F79000044802E0044800E00448F8BDD7300020E7
:10F7A000E8310020088000000E8000000480000086
:10F7B00013B5041C81786A460B48FDF797FE0028B4
:10F7C00010D11C236078094A5843694610181A1C46
:10F7D000FDF736FF064B074A9B7A68469B009B580D
:10F7E000211C984713BDC046F8310020A8310020E5
:10F7F000E831002010150200FF23F0B5BC4A8FB09D
:10F8000012780393002A00D1AEE1BA4A116801923E
:10F81000002900D1A8E104AC05AF6370A370E370C8
:10F82000031D7B602A2300223B810388061C227073
:10F83000B14D102B0AD0AA7A8188900763D5AF48C2
:10F84000814208D0288988425DD104E00121AB7A49
:10F850000B4205D188E1E97AA1700021617052E084
:10F860000223AB720F333B7062708388871D2B813C
:10F87000281C0125391C072200F073FE737D1D40F2
:10F8800009D09F4A5B08D35CFF2B2FD003932DE058
:10F890000135072D0FD01C2068439A4B10301818E3
:10F8A000391C072200F04EFE0028F1D103951DE01F
:10F8B000F37903423FD10025019B05AE1B68201C54
:10F8C000311C2A1C98473378122B00D04CE18A480F
:10F8D000837A012B00D147E101238372023B03812C
:10F8E000C37200210722FBF793FC3DE10820824A06
:10F8F000039B917ADBB20143D3729172201CA370F7
:10F90000FFF756FFD7E7172B46D101250420142710
:10F91000019B01995B7A8243AB434B72764B05A9FD
:10F920000F709A72B779191C002FC1D0D87AFFF7DF
:10F930007FFEB579C0E7A378FF2BBCD00820024337
:10F940008A72F27A920706D5143058436D4A10181D
:10F95000827EAA438276CA7AFF2AACD01C2208781B
:10F96000684D5A43022809D0AD18281C07221030D0
:10F9700000F0F7FD2A1CAB7E022106E06249AB18BD
:10F98000498A1A1C198301219B7E8B439376201C84
:10F990000121FFF735FC8EE7172B00D999E0132BD7
:10F9A00051D113233B700F3B1A43EB7AAA72FF2B02
:10F9B00024D100251C206843524B1818837EFF2B4E
:10F9C00017D14D4B1A78031C1833022A07D0FD2299
:10F9D00049499A701030F63A00F0C3FD01E0FE226A
:10F9E0009A7003AB1D70039B434ADBB2A370D372C2
:10F9F00010E00135072DDDD1444D0CE016234448BD
:10FA00001A22083000213B70FBF702FC4022AB7A3F
:10FA10001343AB7200250021374B0B91DA7A1C237C
:10FA20005343384A0D91D3180C93374B09910893DF
:10FA3000019B0A911A1DB08808ABFFF7C8FB00288C
:10FA400000D139E790E0142B28D12B4FFB7A019796
:10FA5000FF2B17D10023F0891C212A4F5943BC46A4
:10FA60006144098B81420AD1082103930A43DBB226
:10FA7000EB72AA72201CA370FFF79AFE02E001331A
:10FA8000072BE9D1019B0021DB7AFF2B00D01E4917
:10FA9000B0881C4A0023FFF79CFB65E0112B63D163
:10FAA0000223111C9943A972120707D54BB2002BF0
:10FAB0000BDA201C0021FFF7A3FB06E0A078FF284B
:10FAC00003D0FFF78DFDFF23A3701023AB72023329
:10FAD00002E01C2B02D113233B70ECE6522B1BD10E
:10FAE000019B0C4A9B7A201C9B009B5898473BE04B
:10FAF000D7300020E8310020D8300020FFFF000080
:10FB0000D0300020E4300020A831002043800000E5
:10FB1000C431002020150200182B25D1B379112BF8
:10FB200014D1130712D511481A2208300021FBF70F
:10FB30006FFB162360223B70AB7A1343AB72019BC1
:10FB40005E3A5B7A1343019A5372B4E680235B42B8
:10FB50001A4395333B70019BAA729B7A044A9B001F
:10FB60009B58201C9847A6E60FB0F0BDC43100207A
:10FB70002015020010B51B4A1378111C012B19D156
:10FB8000194B1B681B0715D1184BE0241A68F0238A
:10FB9000101C184022420BD1154A12681A4209D192
:10FBA000144A154B1A608022144B12021A6001E0AD
:10FBB0003028F1D00B68DBB2012B12D10A4A12684F
:10FBC00012070ED1F021094A12680A40402A08D1D2
:10FBD000074A12680A4204D1C1228021D200C90515
:10FBE0008B5010BDE00F00F0E40F00F0E80F00F0C4
:10FBF000EC0F00F0DFFF07C004050040186C004068
:10FC00002EDF704752DF704710DF704760DF7047AC
:10FC100061DF704708B5FCF74DFA08BDF0B5254B1C
:10FC200085B01B78002B43D0234D244E2B683468BD
:10FC30005A425341DBB2009363425C41E4B2009B01
:10FC4000002B33D103A8FFF7DDFF052808D00028DB
:10FC500002D0FCF73BFA05E003982B68984701E0D7
:10FC600001230093002C1DD1154B03A91B880124EF
:10FC70000B80144B1B68181C0193FFF7C9FF071E6C
:10FC8000052F09D0002803D0FCF720FA002403E058
:10FC90000198336898473C1C009B002BCFD0002C68
:10FCA000CDD005E0009B002B02D1C8E7002CDBD0B3
:10FCB00005B0F0BD00320020083200200C320020D8
:10FCC0000232002004320020F8B5051C0C1C171C61
:10FCD0001E1CFCF7B9F90720002C13D0A30711D183
:10FCE000094B281C1C60094B09491F80094B1E60E9
:10FCF000FFF78AFF002805D10122074B16301A7042
:10FD0000FFF77EFFF8BDC04604320020023200201B
:10FD100015FC010010320020003200200E230028C4
:10FD200002D0024B18600023181C70470C320020D0
:10FD30000E23002802D0024B18600023181C7047C5
:10FD40000832002008B5064B1B68002B05D09847E9
:10FD5000002804D0FCF7BAF901E0FFF75FFF08BD07
:10FD60001032002070B5141C051C0E1C101C002144
:10FD70001422FBF74DFA002201232261227B23800B
:10FD80009A43227326726572002D00D0A372002060
:10FD900070BD000037B50E4B0193019B834214D018
:10FDA00080225205936B546B051C63431A1C8023FD
:10FDB0009B05D4180020019A06492B1CFCF76EF90C
:10FDC000621B00200449FCF769F900203EBDC046D3
:10FDD000001F0020341502006515020037B5041C11
:10FDE000164B00200193019A15490092FCF756F931
:10FDF000201C6946FFF70AFF009A019B051C9A42E6
:10FE000012D0802149058B6B4C6B00205C430D495F
:10FE1000FCF744F9009B0020E21A80239B05D218CE
:10FE20000949FCF73BF907E0002805D00020074905
:10FE30002A1CFCF733F9FEE7281C3EBD001F0020FA
:10FE40008C150200AF150200E81502000F16020023
:10FE50000B7B002B03D04B680360002302E00B6890
:10FE6000036001230371704710B503684A6889680D
:10FE7000D41A8C4202D9CB18036002E0002302603E
:10FE8000037110BD10B503680A6889689C1A8C421A
:10FE900002D95B1A036002E001230260037110BD06
:10FEA00010B50379041C002B02D0FFF7DDFF01E041
:10FEB000FFF7E8FF206810BDA0DF7047A2DF7047A2
:10FEC000A6DF7047F7B54479161C621E9441C21C28
:10FED000D27F031CA400002A01D002221443FF2970
:10FEE00006D901227170090A1443B170032001E0A0
:10FEF000022071701F1C4C373A88002A01D0102252
:10FF00001443002569004218D2B200923A88019247
:10FF1000954219DA009A0232142A0CD9291C181CAD
:10FF2000103149005918019B04315A1B52002430EA
:10FF300000F020FB08E059188A8C009901357118EF
:10FF40000A70120A4A70DDE73B8800985D1B3D800D
:10FF50003470FEBD13B50B88112B05D0502B07D084
:10FF6000102B19D18B8801E001235B42038413E03D
:10FF7000CC88828994420FD1CB8B022B0CD10368A1
:10FF8000002B09D00131CA7F01A9D20701D5002277
:10FF900000E001220A70984713BD0000F0B50A681E
:10FFA00099B0026001900B79C21C437101235B423E
:10FFB00003840023D377493213800F1C013305A932
:10FFC0008B70564B821D01200B80FFF775FF041EBE
:10FFD00000D09FE003AE211C301C0322FBF718F970
:10FFE00001221023134333703B7B05327370B378C7
:10FFF00011AD9343043A1343211C1A32281CB370E9
:020000022000DC
:10000000FBF706F910222B786E6113432B700F3A21
:1000100002AB9A74424B04AE02AA1382211C301C1C
:1000200003226C60EC602C61AC61FBF7F1F80622F6
:100030007B7B211C3370BB7B07A87370B378934321
:10004000043A134306329343083293430F3A13435F
:100050001332B370FBF7DCF808960CAE06AB211C2C
:10006000321C01980793FFF72DFF142202AB9883EF
:10007000DC831A84019B0B96D888291C07AA0833B5
:10008000FFF71CFF041E45D1BB68002B42D0211C8A
:100090001C22281CFBF7BCF802222B78211C1343DE
:1000A0002B70013A02AB9A751E4B02AA938206A8E6
:1000B00003226C60EC602C616C61AC61FBF7A8F80A
:1000C000FB7B02AA13743B7C211C5374937C062295
:1000D0009343043A134306329343083293430F3A4F
:1000E000934302AA9374301C1422FBF791F807ABD8
:1000F000336006AB7360012333810123B381BB6896
:1001000074813361019B291CD888321C1033FFF79E
:10011000D5FE041C201C19B0F0BDC0460D1800000F
:10012000372A0000382A0000F0B5174B028C051C56
:100130008DB008209A4224D007AF3A1C281CFFF744
:10014000C1FE83B2019302AB9E1C6B4603AC9B883D
:100150000021201C10223380FBF75AF82B89288CB1
:1001600023800123A3700023211CA380A660E760E5
:10017000FFF7A6FE002804D13388019A934200D0ED
:100180000C300DB0F0BDC046FFFF000070B5061C7E
:100190004C363388051C0C1C142B08D1291C243028
:1001A0002631262200F0E6F93388013B338033887C
:1001B0005A1C10335B00EB1832809C8070BD0330FA
:1001C000C177704703210A4802680A430260094860
:1001D00002680A4302600849084A094B9B1A03DD7A
:1001E000043BC858D050FBDC06488047064800470F
:1001F0002405004054050040C8160200001F0020DE
:10020000801F002075FB010021B10100FEE7FEE721
:10021000FEE7FEE7FEE7FEE702B471464908490043
:10022000095C49008E4402BC7047C04603B4714665
:10023000490840004900095A49008E4403BC7047F0
:10024000002243088B4274D303098B425FD3030A15
:100250008B4244D3030B8B4228D3030C8B420DD328
:10026000FF22090212BA030C8B4202D312120902B6
:1002700065D0030B8B4219D300E0090AC30B8B42F4
:1002800001D3CB03C01A5241830B8B4201D38B03A2
:10029000C01A5241430B8B4201D34B03C01A524147
:1002A000030B8B4201D30B03C01A5241C30A8B428A
:1002B00001D3CB02C01A5241830A8B4201D38B0275
:1002C000C01A5241430A8B4201D34B02C01A524119
:1002D000030A8B4201D30B02C01A5241CDD2C3098B
:1002E0008B4201D3CB01C01A524183098B4201D307
:1002F0008B01C01A524143098B4201D34B01C01AF2
:10030000524103098B4201D30B01C01A5241C30869
:100310008B4201D3CB00C01A524183088B4201D3D8
:100320008B00C01A524143088B4201D34B00C01AC4
:100330005241411A00D20146524110467047FFE730
:1003400001B5002000F0FCF802BDC0460029F7D03E
:1003500003B5FFF775FF0EBC4243891A1847C04624
:1003600003460B437FD4002243088B4274D3030916
:100370008B425FD3030A8B4244D3030B8B4228D3B7
:10038000030C8B420DD3FF22090212BA030C8B42DD
:1003900002D31212090265D0030B8B4219D300E07D
:1003A000090AC30B8B4201D3CB03C01A5241830B02
:1003B0008B4201D38B03C01A5241430B8B4201D3B2
:1003C0004B03C01A5241030B8B4201D30B03C01ADB
:1003D0005241C30A8B4201D3CB02C01A5241830A55
:1003E0008B4201D38B02C01A5241430A8B4201D384
:1003F0004B02C01A5241030A8B4201D30B02C01AAE
:100400005241CDD2C3098B4201D3CB01C01A524114
:1004100083098B4201D38B01C01A524143098B429D
:1004200001D34B01C01A524103098B4201D30B0186
:10043000C01A5241C3088B4201D3CB00C01A5241AB
:1004400083088B4201D38B00C01A524143088B4270
:1004500001D34B00C01A5241411A00D20146524109
:10046000104670475DE0CA0F00D04942031000D328
:100470004042534000229C4603098B422DD3030A7D
:100480008B4212D3FC22890112BA030A8B420CD38D
:10049000890192118B4208D3890192118B4204D3B6
:1004A00089013AD0921100E08909C3098B4201D336
:1004B000CB01C01A524183098B4201D38B01C01A70
:1004C000524143098B4201D34B01C01A52410309E7
:1004D0008B4201D30B01C01A5241C3088B4201D396
:1004E000CB00C01A524183088B4201D38B00C01A43
:1004F0005241D9D243088B4201D34B00C01A52411A
:10050000411A00D20146634652415B10104601D3A6
:100510004042002B00D54942704763465B1000D330
:10052000404201B5002000F00BF802BD0029F8D0D0
:1005300003B5FFF715FF0EBC4243891A1847C046A2
:100540007047C04630B50024944208D0035D651C56
:100550000C5DA34201D0181B02E02C1CF4E7002024
:1005600030BD002310B5934203D0CC5CC45401339A
:10057000F9E710BD10B5814208D28B18984205D218
:100580009B1A013A09D3995C8154FAE700239342FC
:1005900003D0CC5CC4540133F9E710BD0FB40B4B4E
:1005A00013B51C68002C05D0A369002B02D1201CB8
:1005B00000F060F805AB201CA168049A019300F0DC
:1005C0006BF916BC08BC04B01847C046601F002079
:1005D000031C0A7801311A700133002AF9D17047DF
:1005E0000023C25C0133002AFBD1581E7047000073
:1005F00008B5024900F0AEF808BDC046511102002E
:10060000002310B5041C036043608360818143664E
:10061000C281036143618361191C08225C30FAF7CF
:10062000F7FD054B24626362044BA362044BE36253
:10063000044B236310BDC046E90D0200110E0200F9
:10064000490E0200750E020070B568254B1E5D4311
:100650000E1C291C743100F09FF8041E08D00021E4
:100660002A1C016046600C30A0606832FAF7D0FDA9
:10067000201C70BD836913B5002B28D18364C3642B
:100680000365134B134A1B6882620193984201D1A0
:1006900001238361041C00F01FF86060201C00F03F
:1006A0001BF8A060201C00F017F80421E060002275
:1006B0006068FFF7A5FFA06809210122FFF7A0FFEE
:1006C000E06812210222FFF79BFF0123A36113BD03
:1006D0001C140200F1050200F8B51D4B061C1D6834
:1006E000AB69002B02D1281CFFF7C4FF4835AC686A
:1006F0006B68013B05D40C22A75E002F10D0683434
:10070000F7E72B68002B06D1301C0421FFF79CFF74
:100710002860002801D02D68E9E70C23336016E03B
:100720000123201C5B42E3810233A38167662760BB
:10073000A760676027616761A7615C30391C082288
:10074000FAF766FD201C6763A763A764E764F8BD3A
:100750001C140200F7B5041C071C00260191483444
:10076000002C16D06368A5680093009B013B0093A2
:100770000DD4AB89012B08D90E22AB5E013304D016
:10078000381C291C019B984706436835EDE724680F
:10079000E6E7301CFEBD0000032370B5CC1C9C4373
:1007A0000834051C0C2C01D20C2405E0002C03DAC3
:1007B0000C2300202B6042E08C42F9D3204A1368BE
:1007C000101C191C002913D00A68121B0DD40B2A07
:1007D00002D90A608B181FE08B4202D15A6802606E
:1007E0001BE04A685A600B1C17E00B1C4968E9E7DC
:1007F000144E3368002B03D1281C00F0E3FA30605C
:10080000281C211C00F0DEFA031C421CD0D003225D
:10081000C61C964386420AD11C60181C07210B3067
:100820001A1D8843821A0AD05142995007E0311AA2
:10083000281C00F0C7FA431CBAD0331CECE770BD8B
:100840001832002014320020936810B5013B9360E9
:10085000002B05DA9469A34208DBCBB20A2B05D042
:100860001368581C10601970C8B201E000F008FB52
:1008700010BDF8B5061C0F1C141CD518AC4208D0CE
:100880002178301C3A1CFFF7DFFF0134431CF5D1FF
:1008900000E00020F8BD0000F0B59FB0061C0F1C62
:1008A00002920593002804D08369002B01D1FFF741
:1008B000E1FE794B9F4201D1776808E0774B9F4278
:1008C00001D1B76803E0764B9F4200D1F768BB893E
:1008D0001B070AD53B69002B07D0002306AD6B61CF
:1008E00020336B761033AB763DE0301C391C00F0C2
:1008F0001FFB0028F1D001204042CAE0059A111DDB
:1009000012680591002A7EDB0992013423782E2B90
:1009100000D189E021786348032200F0B1FC00286F
:1009200008D0604B0134C01A40238340181C2B6848
:10093000184328602178631C5B48062202932976BD
:1009400000F09EFC002800D191E0584B002B00D015
:1009500084E00722059B07339343083305936B69B3
:10096000039A9B186B61029C2378002B04D1029B95
:10097000E31A049311D003E0252BF8D00134F3E7F8
:10098000049B301C391C029AFFF773FF431C7BD079
:100990006A69049B944663446B612378002B73D08F
:1009A0000122002352426A6002A9543252180134D3
:1009B0002B60EB60AB601370AB6521783C4805227F
:1009C00000F05EFC002809D0394B0134C01A012325
:1009D0008340181C2B6818432860EEE72B68DA0662
:1009E00004D55322202102A8121811701A0704D529
:1009F00053222B2102A81218117022782A2A00D122
:100A00007CE7099B05E05242EA60022213432B6017
:100A10007BE72278303A092A04D80A214B43013473
:100A20009B18F6E7099371E763782A2B09D1059B98
:100A300002341A1D1B680592002B0DDA01235B425C
:100A40000AE0002301342278303A092A04D80A2126
:100A50004B4301349B18F6E707935BE705AB009324
:100A6000301C291C3A1C134B00E000BF07E005AB0B
:100A70000093301C291C3A1C0E4B00F08BF803909D
:100A8000039B013300D06AE7BB895B0600D532E7E0
:100A90000B981FB0F0BDC0462C1602004C16020089
:100AA0006C1602009216020096160200000000006A
:100AB0008C16020073080200F7B5171C01930A692F
:100AC0008B6800900C1C934200DA131C221C3B60C4
