:020000040001F9
:10C0000068460020E1C10100FBC10100FDC1010043
:10C010000000000000000000000000000000000020
:10C02000000000000000000000000000FFC101004F
:10C03000000000000000000001C2010003C2010076
:10C0400005C2010005C201001DD5010069D401002F
:10C0500005C2010000000000A9D0010005C20100D6
:10C0600005C2010005C2010005C2010005C20100B0
:10C0700005C2010005C2010005C2010005C20100A0
:10C0800005C20100F5D1010005C2010005C2010091
:10C090009DD4010005C20100A5D4010005C2010024
:10C0A00005C2010005C20100000000000000000000
:10C0B0000000000000000000000000000000000080
:10C0C00000F002F800F040F80CA030C8083824183E
:10C0D0002D18A246671EAB4654465D46AC4201D1C0
:10C0E00000F032F87E460F3E0FCCB64601263342B2
:10C0F00000D0FB1AA246AB46334318473445000034
:10C10000544500000023002400250026103A01D3E6
:10C1100078C1FBD8520700D330C100D50B607047FF
:10C1200010B5732902D100F093FA10BD002010BDA4
:10C130001FB50098019900F0C8FE00F08BFC1FBDF0
:10C1400010B500F0F3FC10BD00F07EFE1146FFF7C5
:10C15000EFFF02F0A5FF00F0ECFE03B4FFF7F0FFE5
:10C1600003BC01F05FFB0000401E00BF00BF00BF2A
:10C1700000BF00BF00BF00BF00BF00BF00BF00BFC7
:10C1800000BFF1D170470000401E00BF00BF00BFDC
:10C1900000BF00BF00BF00BF00BF00BF00BF00BFA7
:10C1A00000BFF1D17047000070B505460C46164639
:10C1B00002E00FCC0FC5103E102EFAD2082E02D38B
:10C1C00003CC03C5083E042E07D301CC01C5361F9E
:10C1D00003E021782970641C6D1C761EF9D270BDB5
:10C1E00003210C4802680A4302600B4802680A43B4
:10C1F00002600A4880470A480047FEE7FEE7FEE77C
:10C20000FEE7FEE7FEE7000006480749074A084B3D
:10C21000704700002405004054050040C9D40100C7
:10C22000C1C001006836002068460020683E00203A
:10C23000683E0020704700000FB4054910B503AAFE
:10C24000029800F009FA10BC08BC04B018470000BE
:10C250005C350020F8B50E460446002020622046DA
:10C26000E1688847002829D0252802D06268A168A3
:10C2700020E0E16820460027884705001ED02846B8
:10C280004138192802D80127FF02203532462046BE
:10C2900027602946FFF744FF002808D0012804D072
:10C2A000F61DF608F6000836D9E7361DD7E76268AE
:10C2B0002846A1689047206A401CCFE7206AF8BD55
:10C2C00070B50C460546012A05D02878800600D5B1
:10C2D000EA69002302E0012305E05B1C934202D2DD
:10C2E000E05C0028F9D1A869E618C01AA861286A9C
:10C2F000C01828622846C046C04604E06A68207814
:10C30000A968641C9047B442F8D32846C046C0468A
:10C3100070BD000070B50446C068810713D0800668
:10C3200001D5A56A04E0A169606840182169451A31
:10C33000204600F047FB002206462946204600F032
:10C3400097FA304670BD002070BD70B5002802D04D
:10C35000FFF7E0FF70BD0025074C6E1E08E0204689
:10C36000FFF7D8FF002800D03546206D4408640050
:10C37000002CF4D1284670BD08350020F8B5042AF9
:10C380002CD3830712D00B78491C0370401C521E1B
:10C3900083070BD00B78491C0370401C521E830787
:10C3A00004D00B78491C0370401C521E8B079B0F56
:10C3B00005D0C91ADF002023DE1B08C90AE0FFF7F9
:10C3C000F3FEF8BD1D4608C9FD401C46B4402C4391
:10C3D00010C0121F042AF5D2F308C91A521EF0D455
:10C3E0000B78491C0370401C521EEAD40B78491C80
:10C3F0000370401C012AE4D409780170F8BD01E003
:10C4000004C0091F0429FBD28B0701D50280801CC0
:10C41000C90700D00270704700290BD0C30702D0B3
:10C420000270401C491E022904D3830702D50280F2
:10C43000801C891EE3E70022EEE70022DFE7000010
:10C44000024670B50A4392072AD11E4DEE0104C878
:10C4500008C9541B9443344017D0D0B2D9B2401A03
:10C460002106014310D190B299B2401A2104014330
:10C470000AD110021902000A090A401A21020143D6
:10C4800002D1100E190E401A70BD9A42DFD010BAB8
:10C4900019BA884201D9012070BD0020C04370BD87
:10C4A00002780B78401C491C002A09D09A4207D117
:10C4B00002780B78401C491C002A01D09A42EFD028
:10C4C000D01A70BD01010101002203098B422CD357
:10C4D000030A8B4211D300239C464EE003460B43D4
:10C4E0003CD4002243088B4231D303098B421CD336
:10C4F000030A8B4201D394463FE0C3098B4201D328
:10C50000CB01C01A524183098B4201D38B01C01A5F
:10C51000524143098B4201D34B01C01A52410309D6
:10C520008B4201D30B01C01A5241C3088B4201D385
:10C53000CB00C01A524183088B4201D38B00C01A32
:10C54000524143088B4201D34B00C01A5241411A59
:10C5500000D201465241104670475DE0CA0F00D03C
:10C560004942031000D34042534000229C46030935
:10C570008B422DD3030A8B4212D3FC22890112BABB
:10C58000030A8B420CD3890192118B4208D3890193
:10C5900092118B4204D389013AD0921100E08909AB
:10C5A000C3098B4201D3CB01C01A524183098B428C
:10C5B00001D38B01C01A524143098B4201D34B0175
:10C5C000C01A524103098B4201D30B01C01A5241D8
:10C5D000C3088B4201D3CB00C01A524183088B425F
:10C5E00001D38B00C01A5241D9D243088B4201D3E8
:10C5F0004B00C01A5241411A00D2014663465241D3
:10C600005B10104601D34042002B00D549427047D1
:10C6100063465B1000D3404201B50020C046C046CF
:10C6200002BD704770477047704710B54369002BD3
:10C6300002D0C046C04601E0FFF742FE012010BD17
:10C640001278014624310A7000224A700122ECE778
:10C6500011680022D243E8E7084B70B50D467B44D1
:10C6600000F0F3FA0446284600F002FB002802D04E
:10C670000020C04370BD204670BD0000F1260000C0
:10C68000F8B505460C46C8680521C9048843012150
:10C6900089050843E060800602D5204600F0B8F91D
:10C6A0007149E0680140022903D0204600F05AF9A0
:10C6B000BCE00521012249030140D20391420FD180
:10C6C000C00306D56168E06A884200D80846606009
:10C6D00006E02069E0626060606901F0A4F8A06192
:10C6E000A1680022EEB200290EDAE06883050BD4BF
:10C6F000C943A1600921226049030843E0606068E2
:10C70000411C61600670ACE0E06801214903084308
:10C71000E060002020602069002831D1606901F0CC
:10C7200084F8012527462437ED02002816D0A08979
:10C730008005800F08D0E06900F02AFA0028206107
:10C7400002D0E068284318E001202761E061E0683A
:10C75000032109028843012189020DE0E06900F00C
:10C7600017FA00282061EFD0E0682843E0608105D7
:10C77000890F03D1FF2101310843E0602069606027
:10C78000E2683A4F2569D0051FD56168E06A8842A2
:10C7900000D80846411B05D02246284600F0ECF898
:10C7A000002843D1E068010204D5E56200206560FD
:10C7B000A06053E0691CE1626160E169491E384391
:10C7C000A160E06030462E70F8BD100201D53A40FD
:10C7D00009E06068411C61600670E06838430A2E19
:10C7E000E06006D00022E16A6068814203D90B460E
:10C7F00002E00122F7E70346A7895B1B7F0504D40B
:10C80000E7699F4201DD002A1ED0814200D801461F
:10C810000F1A0020E5626560002BA06009DD22464A
:10C820001946284600F0A8F8002802D00020C0438E
:10C83000F8BD002F08D0A069E5626560C01BA0614B
:10C84000E06810210843E060E068000209D56168F3
:10C85000A069E562491B40186560A0610120C043E2
:10C86000F8BD3046F8BD0000821000000000010055
:10C87000F8B5044616460D464769007B800730D060
:10C88000384600F0D2FF00282BD132461026002A6D
:10C8900025D0012A02D0022A23D104E0204600F04C
:10C8A000EBF945191BE0384600F0BDFFE168314364
:10C8B0000028E16004DA204600F054F80120F8BDB9
:10C8C000C9030BD56268E16A914200D81146A2699A
:10C8D00089182269891A814200DD08462D18002D29
:10C8E00001DA0220F8BDE16A6068E268814206D29E
:10C8F0009103E06203D5012149048A433243A669CA
:10C90000AE4211DCE16A814201D90B4600E00346E8
:10C910009F192369FF1AAF4206DD814201D90F46F4
:10C9200000E007469F4206D1202002430020A0607D
:10C93000A56220600DE0AD1BE669AE1B8142A660DA
:10C9400000D90846C01A281A2060581960602020B3
:10C950008243034802400020E26040342072F8BD68
:10C96000BFCFD7FFC1688022114392039143C160BA
:10C970000021816001607047F7B514460E463348C8
:10C98000D5685769054209D03846A16900F070FFA3
:10C99000002811DB2D48C0430540E5602B46324698
:10C9A0003846009900F066FF4200A1695208B21AA9
:10C9B00089180028A16104D02046FFF7D3FF00208A
:10C9C000C043FEBD70B504460569C06A616888420F
:10C9D00000D80846E1680522D2049143E160C9030A
:10C9E00014D5A84209D02246411B2846FFF7C4FFB0
:10C9F000002802D00020C04370BDE56200206560C1
:10CA0000A060E068012109048843E060002070BD57
:10CA100010B50446C06820218843E060A16AA0697F
:10CA200088420ED02046FFF7CDFFE06803210903BE
:10CA3000884310210843E060A06AA0612069E06299
:10CA400060600349E0680840E06010BD100002002B
:10CA5000BFBFFFFF10B543485421FFF7EEFC42482B
:10CA60005421FFF7EAFC41485421FFF7E6FC404817
:10CA70003C493D4B404A01603E4803603B481060E2
:10CA80005A1C0A65411C1965012101653C48354A5B
:10CA90003AA1784400F038F9002804D138487844A5
:10CAA0000C3800F0CBF938482F4A36A1784400F012
:10CAB0002BF9002804D1344878440C3800F0BEF932
:10CAC00032482A4A2FA1784400F01EF9002804D1E8
:10CAD0002E4878440C3800F0B1F940232148DC009E
:10CAE0000021224600F0EAF8002804D024487844C7
:10CAF0005C3800F0A3F91C4822464023002100F0D6
:10CB0000DDF8002804D0204878445C3800F096F91D
:10CB1000164822461023002100F0D0F8002804D047
:10CB20001A4878445C3800F089F910BD0F4870B598
:10CB3000006D44080B48640000F05AF90A4800F000
:10CB400057F90A4800F054F909E0206D45082046DD
:10CB50006D0000F04DF9204600F04BF82C46002CFB
:10CB6000F3D170BD083500205C350020B0350020C1
:10CB7000502900205429002058290020720000006C
:10CB80007A3B000077000000663B0000533B00004A
:10CB900070B5064600F078F9056830460B30C408D9
:10CBA000E400B44201D8002070BD68682A4600281D
:10CBB00018D00168A14211D30B46214608318B429F
:10CBC00008D3436801194B6003681B1B0B6051605D
:10CBD000046001E041685160001D70BD024640687C
:10CBE0000028E6D12146284600F05AF90028DCD179
:10CBF00070BD70B50446051F00F046F90068002CB2
:10CC00001AD0446801E020466468002C01D0AC4290
:10CC1000F9D301680A18AA4204D12A68054689187E
:10CC2000016000E0456028684119A14205D16168B2
:10CC3000696021684018286070BD6C6070BD00009C
:10CC400001694A1C02610878704700B58FB00291F3
:10CC500000210591054901937944039111460490FF
:10CC60006846FFF7F7FA0FB000BD0000E5FFFFFFD1
:10CC7000C06880210840704710B50146C26890071F
:10CC800003D0900607D5886A0AE000F001F9012177
:10CC90000160881E10BD8B694868C0180B69C01AF6
:10CCA00040310B7A002B02D0497A401A10BD110393
:10CCB000FCD50028FADD401E10BD000070B5C46828
:10CCC000A50713D0650211D4D51FF93D0AD0FF3D49
:10CCD0006D1E07D0FF3DFF3D022D07D101462431D7
:10CCE000012305E0074E5D1EB54201D3012070BD52
:10CCF0000161C36141600F2109028C431443C46088
:10CD0000002070BDFFFFFF00F7B516460C46104629
:10CD100000F06EF82078611C61280AD0722802D0D9
:10CD2000772839D102E00125002404E002250424FB
:10CD300001E02D4D08240222032301270878491C15
:10CD40002B2806D0622807D02039C87F742807D046
:10CD500008E01D431443F1E7042005433C43EDE79D
:10CD6000102004430098214600F068FD411C13D0B8
:10CD70000021316171600121F5604902F16170614A
:10CD8000200704D5304602220021FFF771FD306DE7
:10CD9000384330653046FEBD0020FEBDF8B50D4677
:10CDA0000646124C206DC10704D0410804D0440847
:10CDB0006400F7E7224610E05420FFF7E9FE070081
:10CDC00010D07908206D49000122114308435421F5
:10CDD00020653846FFF731FB3A4629463046FFF7D3
:10CDE00093FFF8BD0020F8BD028000000835002048
:10CDF000FEB50446466900690F4F0190E5680020C2
:10CE00000090A80707D02046FFF7DCFD304600F071
:10CE100007FD002801DA3846FEBD280502D5019835
:10CE2000FFF7E7FE4C212046FFF707FB206D400887
:10CE3000400020650098FEBDFFFFFFFF10B500F029
:10CE400087F800F07EF810BD754600F09BF8AE46FE
:10CE5000050069465346C008C000854618B020B595
:10CE6000FFF7D2F960BC00274908B6460026C0C5C6
:10CE7000C0C5C0C5C0C5C0C5C0C5C0C5C0C5403D92
:10CE800049008D4670470000004870470C3600206E
:10CE9000004870470436002070477047704770475D
:10CEA00038B504460A4600206946C046C0460028F8
:10CEB00005D002462046009900F068F8012038BDF0
:10CEC00010B5012000F096F810BDF8B5C046C04678
:10CED000054600200C461020C0460646A819A04270
:10CEE0000DD9324669460020C046C046070001D130
:10CEF00000F080F80098A04200D00546C419FFF762
:10CF0000C3FFF61D07460560F008C0004619284615
:10CF100000F008F8B44204D031463868A21B00F093
:10CF200035F8F8BD00210160416080607047102035
:10CF3000704710B50446C046C0462046FFF70DF9BD
:10CF400010BD10B5002801D000F06CFC10BD000031
:10CF500010B5014602A000F033F8012010BD00001A
:10CF600053494752545245443A20526564697265A8
:10CF700063743A2063616E2774206F70656E3A2087
:10CF800000000000004870470436002010B503463A
:10CF9000406801E003464068002801D08842F9D388
:10CFA0001868C3188B4206D0CB1CD808C000001DDF
:10CFB000411A521A0146081D0A60FFF71AFE10BDF9
:10CFC00070B505460C460A2000E06D1C00F060FCC0
:10CFD000002D06D028780028F7D102E0641C00F06C
:10CFE00057FC002C02D020780028F7D10A2000F04E
:10CFF0004FFC70BD10B500F003F8FFF7A2FF10BDA5
:10D0000010B5012805D0002103A0FFF7D9FF0120AA
:10D0100010BD09A1F8E7000053494752544D454D52
:10D020003A204F7574206F662068656170206D65C9
:10D030006D6F7279000000003A2048656170206DC4
:10D04000656D6F727920636F7272757074656400BC
:10D0500070B58C180578401C6B075B0F01D1037805
:10D06000401C2A1106D10278401C03E00678401CBF
:10D070000E70491C5B1EF9D12B0705D40023521EEC
:10D080000DD40B70491CFAE70378401CCB1A921C94
:10D0900003E01D780D70491C5B1C521EF9D5A1429E
:10D0A000D8D3002070BD0000F8B50024FF2501355D
:10D0B000012627460094284602F03AFD002808D0B1
:10D0C00034484068304204D03348002128183443A3
:10D0D00001602D1D76007F1CADB2042FEBD3FF2025
:10D0E0007D3002F025FD002807D02C48002101608A
:10D0F000400704432A48006900902A4F200712D0B5
:10D100000126002526420AD02748AA0011180869DE
:10D110000969C004C00E8903BA58890F9047760088
:10D120006D1C042DEED3002C30DA00241D4E00219E
:10D13000301940304156491C25D00778BD06AD0E48
:10D14000284601F0CBFC80003658002E1BD0BF09CA
:10D150000121A940154AA80080180068009A8003A0
:10D16000800F114202D0022802D00CE003280AD11D
:10D17000032F05D102280AD00221284602F0C0FC64
:10D1800039462846B047641C042CCFD3F8BD032190
:10D19000F3E7000000630040006000407C61004055
:10D1A00000050050882F0020006500400007005057
:10D1B0008307FF22DB0E9A408907090E9940002859
:10D1C0000BDA0007000F0838830808489B0018187E
:10D1D000C36993430B43C3617047830804489B00B2
:10D1E0001B181868904308431860704700ED00E072
:10D1F00000E400E010B5064900200860486088603F
:10D20000C860034940390860486002F04FFF10BD14
:10D2100040110140F7B518214843214916464418EA
:10D22000E16A8807800F02280BD0A06A626A801A20
:10D23000401E01D5226A1018864202DD89072DD0D2
:10D240000646002E2AD00027A06A616A451A6D1E84
:10D2500001D5206A4519616A206A411AA94201DC98
:10D26000616A451AB54200DB3546616AE0692A46C3
:10D2700040180199FFF782F801987F194019019031
:10D28000606A761B40196062606A216A884201D137
:10D2900000206062002ED7D13846FEBD0020FEBDC2
:10D2A000D428002010B500220B46002900D105E04B
:10D2B0001C78002C02D0521C5B1CF9E7FFF7AAFF78
:10D2C00010BD0FB408B504A900916A46039900F097
:10D2D00004F801B008BC04B01847F7B598B007A827
:10D2E0000290402000250495039018980C4605955F
:10D2F00006902178641C002974D0252907D002A843
:10D3000000F062FA05980028F3DA1BB0F0BD0021A6
:10D3100001230227042208262078232817D02B284F
:10D3200013D02D280DD030280DD0002220780346B0
:10D33000303B0A2B0ED20A235A431218303A641C8F
:10D34000F4E7194304E0394302E0114300E03143BC
:10D35000641CE1E70023C7B22E2F0AD1641C207899
:10D360000746303F0A2F04D20A277B431B18303B65
:10D37000F4E76C280DD068280BD0702852D00BDC55
:10D3800025285AD058282ED063280CD0642858D18C
:10D3900010E02078641CECE7732832D0752817D091
:10D3A00078284ED11FE01A981A9A0068011D116062
:10D3B000017843E01A981A9F0068061D3E600068D5
:10D3C0000191009201460A2202A800F029F938E0F2
:10D3D0001A981A9F0068061D3E600068009201912D
:10D3E0000A2209E02FE01A981A9F0068061D3E6085
:10D3F0000068009201911022014602A800F072F923
:10D400001FE01A981A9A0068011D116006683178A9
:10D41000761C002915D002A800F0D6F9059800283E
:10D42000F5DA0EE01A981A9A00680823011D1160B7
:10D430000168102200960195DFE7252102A800F07F
:10D44000C3F9641C5EE70598002800DC5DE70498DA
:10D45000002804D0024607A91898FFF7DBFE0499BC
:10D4600005984018059050E770B5FF21094809312B
:10D47000094C00254550214602F05AFE002808D1EB
:10D48000A079FF2801D002F04BFB657121680020D4
:10D49000884770BD00300040C030002010B502F059
:10D4A0009BFD10BD10B507484068002807D0804795
:10D4B000002803D00022114600F076FB10BD01F0D9
:10D4C0007FFC10BDBC28002010B501F0C7FC00286F
:10D4D00005D00E490C484860C8130D4988610D48B5
:10D4E000018CC9B201290ED1818C09070BD1018DA4
:10D4F0000906090F042906D1808D0006000F02D10C
:10D5000005490120886010BDDFFF07C0000500400D
:10D51000006C0040C00F00F000060040F0B53C4D2C
:10D52000012185B04902284602F011FB012700269F
:10D53000384C002823D0FF212531284602F002FB79
:10D5400000281CD0FF2025302E5081203249800039
:10D550008860607D002800D16F60022168460170FC
:10D560002E49086808600390E17C68460172E06813
:10D570000190E67406CC6846083C90471DE0042103
:10D58000284602F0E4FA002817D0FF210931284686
:10D5900002F0D8FA002810D002F0FEFBE07C217DDA
:10D5A00088420AD1607D002800D16F6081201A492D
:10D5B00080008860207D02F055FCFF211D31284647
:10D5C00002F0C0FA00280DD0A07C218A884202D93E
:10D5D00002F0D6FD06E0FF211D316E50002801D07B
:10D5E00002F024FEFF214531284602F0ABFA002864
:10D5F0000CD0FF2045302E50607D002800D02F60D9
:10D60000E07C002802D0207D02F02CFC05B0F0BDAB
:10D6100000200040D02F0020002300408024004044
:10D62000FFB583B00E4670420D9F0C9C0090002900
:10D6300000DB0846012502E0FEF746FF6D1C059958
:10D640008842F9D20698A84200D90546002C04D099
:10D65000002E01DB780700D5641EB80702D50698B6
:10D66000002811D0F8070FD1002C0DD02046641EE1
:10D67000A84209D92021039800F0A6F80398C068B1
:10D680000028F1DA07B0F0BD002E02DA2D21009E4D
:10D6900002E0780707D52B21039800F095F803984E
:10D6A000C0680028EEDBB807800F022811D1069869
:10D6B00000280ED1002C0CD02046641EA84208D9A8
:10D6C0003021039800F080F80398C0680028F1DA50
:10D6D000D8E7019700943146069B059A039800F01D
:10D6E00001F8CFE7FFB581B001271E463D460A9CF1
:10D6F000029802E0FEF7E8FE6D1C03998842F9D219
:10D70000AE4200D935460B98C0071CD1002C1AD068
:10D710000B98800701D5002E02D0202000900BE04E
:10D720003020FBE70099019800F04EF80198C0689E
:10D73000002845DB002C06D02046641EA842F1D804
:10D7400001E00398474339460298FEF7BDFE0146C3
:10D750000398814201D3012000E000203146761E6B
:10D76000012901DD012100E000210843E9D1154E26
:10D7700039460298FEF7A8FE0146029A7943511AEB
:10D780000291315C019800F01FF80198C0680028F0
:10D7900005DB38460399FEF797FE0700E8D10B98A2
:10D7A000C0070DD0002C0BD02046641EA84207D91C
:10D7B0002021019800F008F80198C0680028F1DAEB
:10D7C00005B0F0BD0006020010B50446806863682D
:10D7D000421C934205DB23681954A260E068401C98
:10D7E000E060A2686068824209D121682069FFF781
:10D7F00011FDA168884203D00020C043E06010BD45
:10D800000020A06010BD30B47446641E2578641CEE
:10D81000AB4200D21D46635D5B00E31830BC184785
:10D8200000207047FEE7002070470121C9038842AD
:10D8300001DD0120704700207047000010B504464C
:10D840000949FEF7FDFD002808D007492046C91DFB
:10D85000FEF7F6FD002803D0002010BD034810BDE0
:10D860000248401C10BD00001606020002800000A5
:10D870000020704710B514460246044B00209A421F
:10D8800003D12246FFF7C6FC201A10BD028000001B
:10D8900010B5034901F05DFA0148FEF756FD10BDD1
:10D8A0005C350020F7B584B0002516880746158042
:10D8B000406B1446002813D003780598032E51D3EB
:10D8C0000221017021881122491C89B22180425411
:10D8D0002188491C89B2218043542088401C208023
:10D8E000386B00281DD00546208805990246123263
:10D8F000B24237D811220A5420881022401C80B22C
:10D9000020800A542088401C20800F202A5C238815
:10D91000401ECA54228840B2521C22800028F5DAE8
:10D920000025384620300290807B002806D0334600
:10D930002246059901F0B6FA050014D10298407B01
:10D94000002806D032462146059800F02DFD05003E
:10D9500009D1B878002823D0059886462088001D74
:10D96000B04202D90C2007B0F0BD684679DF00282C
:10D97000F9D1218803207246505420881921401C77
:10D9800080B22080115420887146401C80B22080D3
:10D9900041186846008802F0E1FC21884018208088
:10D9A000F878002817D0218803230A46FB56C91CA3
:10D9B0000598B142D6D80221815421880122491C00
:10D9C00089B2218042542188491C89B22180435464
:10D9D0002088401C20807868002817D021880023E8
:10D9E000C3560A46C91C0598B142BBD802218154CE
:10D9F00021880A22491C89B2218042542188491C6D
:10DA000089B2218043542088401C20803889002816
:10DA10000AD0009438460196062202210830059B60
:10DA200002F011FD05009ED1388A00280AD000942A
:10DA300038460196072203211030059B02F003FDB2
:10DA4000050090D1388B00280AD000943846019602
:10DA5000152214211830059B02F0F5FC050082D137
:10DA6000386A002806D033462246059901F092F81C
:10DA70000500D8D1786A002806D033462246059999
:10DA800001F056FC0500CED10298007B002807D09B
:10DA9000334622463846059902F002FA0500C2D103
:10DAA0003878002807D0334622463846059901F0D9
:10DAB00073FC0500B7D1284655E710B501220221B5
:10DAC000002000F037FE002801D0072812D10722DD
:10DAD0000221012000F02EFE002801D0072809D1E4
:10DAE00000210A22084600F025FE002801D0072860
:10DAF00000D1002010BD0000044842680121C90582
:10DB00000B46934383600A40C26070470005005093
:10DB100070B50024064D06E06968E000085C01214C
:10DB200001F0C8FC641C28788442F5D3002070BD45
:10DB300088280020F8B515460C460646052A01D26D
:10DB40000720F8BD01F08CFD002803D101F05EFD37
:10DB50000028F6D1104900204E600C70C8608D601E
:10DB600008610E4D0DE0E000696880190091817830
:10DB70006A46517000780A4A694601F0EBFC0028B9
:10DB8000DFD12046641EE4B20028ECD1054A002112
:10DB9000024800F037F8F8BD88280020F805020098
:10DBA00071ED01008DEC01000C2000F0E7FDFEE7B7
:10DBB00010B58268C368934203D001F0B7F8002023
:10DBC00010BD052010BD002906D0002A02D0531E2A
:10DBD000134203D0092070470E20704701608380F4
:10DBE00000218160C1600846704710B58268C36833
:10DBF0009A1A83889A4203D801F0A2F8002010BD37
:10DC0000042010BD094B9B68002B07D0002A07D0C9
:10DC1000002805D00068037C002B03D00820704743
:10DC20000720704741744261002070479C28002003
:10DC3000FFB59007002581B014460E46002832D16A
:10DC40001B4F002C31D002F085F804987861032036
:10DC5000387033461821224600204B43BC601834EC
:10DC6000C10089180D704D708E704C601C19401CDD
:10DC70000328F5DBFD607D7001240E48BD7024058E
:10DC8000046003211420FFF793FA0B4804600B4C47
:10DC90000198A06003211120FFF78AFA60683861BB
:10DCA000002005B0F0BD0720FBE7BD60FBE70000EA
:10DCB0009C28002080E200E000E100E00015014027
:10DCC000FEB50D461B4917468968044600292AD02F
:10DCD000002C28D0052D01D20720FEBD6069002848
:10DCE00021D0607C012820D0002602F06FFBC0000C
:10DCF0001049019089684018694602F091FB00289C
:10DD000015D0012101700C49446049680830E2C017
:10DD1000084901988968411868460078487002F0FF
:10DD20009DF90020FEBD0820FEBD2E46DDE7042043
:10DD3000FEBD00009C28002000150140F8B5134DE1
:10DD40000446A96800291CD0002C1AD0606900285C
:10DD500017D00026267402F039FBC700A868694670
:10DD6000381802F05DFB00280DD0022101704460DC
:10DD7000A868391868460078487002F06FF9304694
:10DD8000F8BD0820F8BD0420F8BD00009C28002044
:10DD900010B5044609488168C2688088511A8142DA
:10DDA00007D10121064801F0ABFD002801D0052074
:10DDB00010BD21460148FFF7FBFE10BD682F002073
:10DDC0005E28002070B50446224888B01E460D002B
:10DDD00042601CD0A888296882B21F48FFF7F3FE72
:10DDE000002815D1A889A96882B21B481030FFF716
:10DDF000EAFE00280CD1202218496846FEF7D4F923
:10DE0000A06806902079002804D0012103E00720B3
:10DE100008B070BD0021684601750677607900285A
:10DE200000D00E2069464875E0780290A0780390F3
:10DE300020780190607800900949684601F008FD5B
:10DE40000028E5D101F0B6FD02480121801C01F057
:10DE500057FDDDE75C280020682F0020A8050200A0
:10DE6000B902020010B50446064801214470401C66
:10DE700001F0ACFD112803D121460348FFF7B5FEA0
:10DE800010BD00005C280020782F0020F0B50C4663
:10DE900093B01F216A461180072600279180002831
:10DEA00009D0C17849070DD502A9FFF7FBFC00286E
:10DEB00009D102AD01E000251780002C0ED0E078DA
:10DEC000002802D0304613B0F0BD01AA0AA92046AE
:10DED000FFF7E8FC0028F6D10AAA02E06846002213
:10DEE000878068468088C3B268460088C1B22846E9
:10DEF00072DFE8E770B50D4604991646040042D07B
:10DF0000002E40D0424800224271C36001612422A9
:10DF100031464048FEF748F900F0BCF83D4934313D
:10DF20000846103801602031816038215C38FEF7E6
:10DF300084FA3848217838380170A1788170E17806
:10DF4000C170617841706269216942610161E26872
:10DF5000A168C26081600146E369A269CB618A6100
:10DF6000616A002919D00146AC310246B8324162DB
:10DF70008A60636A1B880B80616A436A898899801A
:10DF80000021436A06E00E2070BD666AB668765CC2
:10DF90005654491C9E888E42F7D8A16A00291CD08D
:10DFA0001C4AAC3211460C398A608162A36A9B8894
:10DFB0008B80A16A836A098819800021836A04E042
:10DFC000A66AB668765C5654491C9E888E42F7D87D
:10DFD0002C210A5D0F4918390A73216A002909D0DA
:10DFE0000B4914310162226A52884A80216A026A0E
:10DFF000098811806168002904D00549891D4160A4
:10E0000061684160034829463838FFF73FFF70BD1B
:10E0100028280020602E002010B502881C4C102AF1
:10E0200017D00021112A1AD0192A11D1807900287D
:10E030000ED1607901281ED0022822D0032822D0D8
:10E04000042805D12171E2680846002A00D09047D3
:10E0500010BD017D0129FBD18088208110BD617038
:10E06000808821898842F9D1012005E021690029B1
:10E07000F4D0884710BD022000F034F80028F5D114
:10E0800010BD0320F8E7032020710420F4E700000E
:10E090002828002010B507210148FEF7CEF910BD51
:10E0A0004028002010B50D480078012814D10C4CF0
:10E0B0006078002810D16079002802D074DF002831
:10E0C0000BD101206070607900F00CF8002803D0BB
:10E0D0002169002900D08847002010BD602E002053
:10E0E00028280020F0B5754C87B06071002606A87E
:10E0F000069601F01BFE0127082806D000286FD1E4
:10E100000698002802D02770D4E00696FFF7C2FFD9
:10E110006B4D6878002802D06079012805D0A87876
:10E1200000280AD06079022807D1E168002903D0CD
:10E13000E7700820884700E0E6706079012808D180
:10E140006878002809D05D48193001F0CBFD00281F
:10E1500003D06079022802D00CE002206071A87818
:10E16000002805D05548193001F0BCFD002801D128
:10E1700003206071287B002804D16079032801D135
:10E1800004206071287E002804D16079042801D120
:10E1900066712671E16800290AD06079032801D0F0
:10E1A000042805D12878002802D06078002818D0EB
:10E1B000A67018216846FEF740F968460670019679
:10E1C00006720396607901280FD0022816D03C4EC3
:10E1D000243637465C3F03281CD004285ED13BE040
:10E1E00069E0A77007208847E3E7344818300190BA
:10E1F0006846077046820682277152E02F48183021
:10E2000001906846077029894182A988018202200D
:10E21000207146E0A88A69464882288A08822848F0
:10E22000243002F07FF9002805D02878002802D099
:10E230006078002801D003202FE002206946087290
:10E2400004200396F8701E4800213838FFF71EFEA0
:10E25000002830D1052020E0A88B69460882288C50
:10E2600048821748243002F05DF9002805D028784C
:10E27000002802D06078002801D004200DE00220A0
:10E280006946087204200396F8700D48002138385A
:10E29000FFF7FCFD00280ED10620207160790028D0
:10E2A00003D0684673DF002805D1E168002901D05A
:10E2B00020798847002007B0F0BD00002828002002
:10E2C000602E002070B5054601461C220E48FDF761
:10E2D0006BFF0E4C002626702968002906D0082204
:10E2E000201DFEF74BF8201D7ADF02E00748001DD5
:10E2F0007BDF002807D1401E60806670044A002141
:10E300000448FFF77FFC70BD4C2F002048280020F8
:10E310006903020094050200F8B5214C0288002729
:10E320001E4DE689102A15D01E49112A21D0122A25
:10E330002DD0502A1CD1C288801DB24218D1028B28
:10E34000022A15D1C27E837E10021843C007C00F77
:10E350000CD112E0818869800146104808221631EC
:10E360000C30FEF70BF86F70002E01D100F05AFC54
:10E37000F8BD0020C04368806F700868FFF7DEFCBE
:10E380000028F5D0A1690029F2D08847F8BD811D89
:10E39000024808220C30FDF7F1FFE7E7482800208B
:10E3A0004C2F0020940502007CB5054608880C46D9
:10E3B0000930904201D90C207CBD684671DF0028ED
:10E3C000FAD121880820685420881B21401C80B283
:10E3D00020802954208800A9401C80B22080401948
:10E3E00006220131FDF7CAFF20886946801D80B2F0
:10E3F00020800978002900D0012129542088401C60
:10E40000208000207CBD000010B50446FFF784FF8B
:10E410002146064800F040F8204601F0F1FB204676
:10E42000FFF7FAFD204600F0B7F810BDA02D002040
:10E4300030B5184B0D4604000FCB85B003936B46E7
:10E4400007C324D0002D22D00020C043A08228681A
:10E45000A0610020A0752146684663DF002814D122
:10E4600021786846817401210182A21C04A901203F
:10E47000A0DF002809D12946204601F0A3FC00288E
:10E4800003D12946204601F091FE05B030BD0E2093
:10E49000FBE700009805020000281ED000291CD0D0
:10E4A0000A88102A14D0112A14D0502A15D1CA88EB
:10E4B000038A891D9A4202D10B8B022B0ED08388CE
:10E4C0009A420AD18369002B07D00A8B1A31184768
:10E4D000898801E00021C94381827047CA7E8B7E12
:10E4E00011021943C907C90F00D001218175704776
:10E4F00007B584B000280DD0828A114B9A420BD008
:10E50000827D002A08D06A46128B142A06D9072079
:10E5100007B000BD0E20FBE70820F9E700220092BB
:10E5200001920292039282896B461A80039106A996
:10E53000029101219970808A6946A6DFE8E7000010
:10E54000FFFF00007CB5134E00250C46306000290B
:10E5500018D06946002000F0B5F8002819D101A9AB
:10E56000012000F0AFF8002813D16846017900209F
:10E57000002901D0022004E069460978002900D072
:10E580000B2020707068002802D1FFF796FA05462C
:10E5900028467CBD2028002010B51C4C01886068EE
:10E5A00010290DD011290AD1401E606007D1FFF754
:10E5B00084FA002803D02168002900D0884710BDC4
:10E5C00000281ED100210122084600F0B3F80028DF
:10E5D00001D0072811D107220221012000F0AAF85A
:10E5E000002801D0072808D104220221002000F0D1
:10E5F000A1F8002805D0072803D02168002900D001
:10E6000088476068401C606010BD00002028002022
:10E6100010B5032000F00CFA002801D0062800D124
:10E62000002010BDF8B507460024234802E0641C12
:10E63000042C1AD2A2008258BA42F8D1042C14D267
:10E640001D481E4E0C38002929D001290ED0022960
:10E650000BD16000201880194578002D05D018488E
:10E660000169002901D028468847F8BD610061187A
:10E67000755C8E19717800290CD011490A224968FD
:10E68000806851430E4A521CFFF71AFB002801D143
:10E690000B4847700A48B17814300155DDE78068AF
:10E6A000FFF74CFB06486100611814308919005DC2
:10E6B0008D78A842D1D0F8BD64050200FC2D002061
:10E6C0000828002004280CD2074A1269074B800052
:10E6D0001B5C01209840904300D00120087000206E
:10E6E00070470020FAE700000005005064050200B2
:10E6F00010B5042806D0072810D00A2801D101F04F
:10E7000016FC10BD0A481321408876DF0828F8D08F
:10E710000028F6D00C2000F031F8FEE7FFF7C2FC2D
:10E720000828EED00028ECD00C2000F027F8FEE7F7
:10E730000028002070B50023042811D244000419D9
:10E740000D4D012A02D101290DD000224600801969
:10E75000094E801900290CD0012906D0022906D0C3
:10E760000723184670BD0D30C2B22A55F9E7427032
:10E77000F7E78270F5E70000FC2D002010B5054A90
:10E780000146127A0020D20702D0084600F054F861
:10E7900010BD00000828002070B50E46204905462F
:10E7A0004E608D6000200A61A9071ED50024012259
:10E7B00011462046FFF7BEFF641C042C02D200283D
:10E7C000F5D012E0002810D1720804211548FFF797
:10E7D000B1F9002809D1FFF79BF9002805D11148AC
:10E7E000114A00211438FFF70DFAE90706D00F226D
:10E7F0000E4952058A600023CB608A6100280DD142
:10E8000008480B4A00211C38FFF7FCF9002805D105
:10E810000448084A01211838FFF7F4F970BD0000D8
:10E8200008280020740502006DEA01000005005070
:10E83000F9EE0100F9DA0100FEB57A4D0722EB6826
:10E8400092059A4302936B6800939C0006461B193D
:10E8500000200121019349050746734C3300FEF760
:10E86000D2FF180D1515374755677C887F8891DED4
:10E870009E9E9E9E9EC8CED1D8DEDE140F21029AA7
:10E8800049059143A160E7602F70FEBDA260E7607B
:10E8900060680F2252055040800209D5A160E760F0
:10E8A000022E02D1E120C0000AE07D20400107E0F5
:10E8B000E160A760022E01D1C82001E0FF20913065
:10E8C0002E706421FDF700FE0099414300223FE0D5
:10E8D000A260E76060680F2252055040800204D5B4
:10E8E000A160E76019204001EAE7E160A760E3E783
:10E8F000A260E76060680F2252055040800202D596
:10E90000A160E760D1E7E160A760D7E7A260E760B8
:10E9100060680F2252055040800202D5A160E76076
:10E9200001E0E160A7602E700098410000220FE036
:10E93000A260E76060680F2252055040800202D555
:10E94000A160E76001E0E160A7602E7000990022FD
:10E9500036480068FFF7B4F9FEBDA260E7601BE02F
:10E9600061680120800502468A43A2600140E1609F
:10E9700010E06068012189050A468243A2600840D0
:10E98000E060E3E76068012189050A468243A260EE
:10E990000840E0600199C9E7E160A7602DE02348E5
:10E9A0004068FFF7CBF911218A1B01D0002807D05E
:10E9B0000F22E96852051140A160E760EF60FEBDDB
:10E9C0000121C905E960012A0CD91046C821484334
:10E9D0006421FDF779FD69680022414313484068CE
:10E9E000FFF76EF90F22E96852051140E160A76058
:10E9F000FEBD0F214905A160E7602E70FEBD072214
:10EA00009205AAE70D214905A160E760012189056A
:10EA1000C2E70321C905A160E7608910BCE70F21A7
:10EA20004905B9E7082800200005005058050200F4
:10EA3000F0B500210B4C0C4D03273F048A00A2586F
:10EA400092005619326801238B40034000D0032303
:10EA5000BA431B0413433360491C0429EED300203E
:10EA6000F0BD0000640502000007005010B50078FA
:10EA70000221FFF7D7FD10BD0022D24383000449D5
:10EA80000428CA5002D308182030027770470000CB
:10EA9000882F0020F0B50025ED43002A02D0002386
:10EAA000042601E0042308260B4C04E09F00E759EC
:10EAB0007F1C04D05B1CB342F8D32846F0BD261857
:10EAC0005DB2203635709E00A151002AF5D1E118C3
:10EAD00020310877F1E70000882F0020024909184B
:10EAE0002020085670470000882F0020F8B52348E2
:10EAF000C16800293ED00E6821494C680769C0787A
:10EB0000E11B0D022D0AED1C002814D101201D4A25
:10EB1000000450601B4A403A50601B4940000860A6
:10EB20001A4908601A49012008602F20FDF72CFBC4
:10EB300012490120C870B54200D23546E8190002DA
:10EB40000F4B000A403318600D4A5168001B091B27
:10EB50000902090A0002000AC91C814209D9506849
:10EB600018602F20FDF710FB012007494004803971
:10EB70000860F8BD01F0EEF8F8BD00009C28002008
:10EB8000001501404013014080E200E000E100E098
:10EB900000100140F8B50646108814468446801DD2
:10EBA0000D46984201D90C20F8BD32880720062A6C
:10EBB000FAD31927FF01184BBA4201D99A42F3D16F
:10EBC00071880629F0D3B94201D99942ECD19A4211
:10EBD00003D0994201D08A42E6D8052160462954E3
:10EBE00020881221401C80B2208029542088401C9B
:10EBF00080B220804119308801F0B0FB2188401894
:10EC000080B220804119708801F0A8FB218840184B
:10EC100020800020F8BD0000FFFF00000C20FFF75F
:10EC2000ADFDFEE7F8B5164800F00AF9144D0026D0
:10EC30000C3D144C002807D0616900291CD001202C
:10EC40006A461070684616E02878002805D0616989
:10EC5000002911D0684606700DE0687800280DD0B4
:10EC6000A168094800220068FFF72AF8002803D0AD
:10EC7000A169002900D088472E70F8BD6168F0E7CF
:10EC8000542800204C2F002094050200F8B50026DF
:10EC90000124154D23E06968F000471838782146B3
:10ECA0002A698140114218D08A432A6100F0A4FCED
:10ECB0003A782146EB6891401940034693409942C7
:10ECC0000BD17978012901D0012100E000217B6876
:10ECD0004140002B01D010469847761CF6B22878A8
:10ECE0008642D8D3F8BD00008828002010B50E4910
:10ECF00000234A788C78A24212D0521CD2B24A70B9
:10ED0000022A00D14B704A78074B920018339A5868
:10ED10000260086910180002000A0861012010BD95
:10ED20000360002010BD00009C28002082688388BA
:10ED30001A4003689A5C0A708168491C81607047B8
:10ED4000C26883881A4003689954C168491CC1602D
:10ED5000704710B58A68002A02DCFDF791FC10BDEF
:10ED6000521E8A604A68C0B2531C4B60107010BDBE
:10ED7000F8B50746104E0125BD403068FEF7DEFFAE
:10ED800000280DD10D4C2069284207D1384600F0EB
:10ED900033FC0028E06804D0284303E0A843206146
:10EDA000F8BDA843E0602069002228432061A168E3
:10EDB0003068FEF785FFF8BDF805020088280020BE
:10EDC000F8B51E4C2078002837D02069002807D0DD
:10EDD0000026E068002805D00025002E04D013E0AE
:10EDE0000126F6E70125F8E7684651DF052806D039
:10EDF000002806D000221146FEF7D6FE04E00126C8
:10EE000002E0216900988847002D12D16088694688
:10EE10000880A06861DF052806D0002806D00022FF
:10EE20001146FEF7C1FE04E0012502E0E168A0689A
:10EE30008847002ED8D0002DCFD0F8BDBC280020A8
:10EE4000418805480288914204D34088814201D814
:10EE500001207047002070474C2800201048018C8A
:10EE6000C9B2012917D1818C090714D1018D090676
:10EE70000A0F03D1828D1206120F0ED0090F01293D
:10EE800003D1828D1206120F07D0032903D1808D82
:10EE90000006000F01D000207047012070470000DD
:10EEA000C00F00F030B51588EC1C9C4201D90C2035
:10EEB00030BD02244C5513881C255B1C9BB213806B
:10EEC000CD5413885B1C9BB21380012807D0022805
:10EED00007D0032807D0042807D0072030BD002022
:10EEE00004E0012002E0CC5401E00320C854108863
:10EEF000401C1080002030BD10B50448017AC907BD
:10EF000002D00078FFF798FC10BD00000828002010
:10EF1000F8B52C49C8680A690C780F798968864663
:10EF2000944600913EE00099E20055182A7836E0B8
:10EF3000182353436968521CC918AB78D2B2934264
:10EF400000D100220B78022B02D0032B27D123E023
:10EF50004E680346014603E0B14204D00B46C9693E
:10EF600000291CD0F8E7002919D08B4208D1C069CC
:10EF7000002805D1144F0126BE600026B4460127A3
:10EF80000E68C969D961002909D00B689B190B600B
:10EF900005E00174C06900E000210028F9D169781A
:10EFA0009142C5D12146641EE4B20029BBD1054976
:10EFB00062460A61C8600F71704501D00120F8BD3A
:10EFC0000020F8BD9C28002000100140F8B5044640
:10EFD00031480026C168009107784EE02E48F900BC
:10EFE00080680D1843E0002C02D02046E4691FE041
:10EFF0002878182141436A68401CC0B25118287013
:10F00000AA78904200D12E700A784868012A30D13F
:10F01000027C002A2DD18A684260CA6882600A692F
:10F02000C260496981611C490979002900D04660A4
:10F03000194943680A699C46991A0902174B090A3B
:10F04000994202D28268891807E06146511A090282
:10F050008268090A8A4202D9511A016000E00660FA
:10F060004660012186600174C66100F0FFFF002C3C
:10F07000B9D1287869788842BAD138467F1EFFB264
:10F080000028ABD10448C1680098814201D001201A
:10F09000F8BD0020F8BD00009C280020FFFF7F0085
:10F0A000AEB08FA207CA2AAB07C32AA98FA0FDF76B
:10F0B000C3F800238E4A05211846FEF7B9FD002843
:10F0C00003D00C20FFF75AFBFEE78A4D04AB28461D
:10F0D000083007C807C3FF21013187480090401856
:10F0E0000191039102900323844A694604A8FEF724
:10F0F00069FE002803D00C20FFF740FBFEE7804AA2
:10F1000080490320FFF748FB002803D00C20FFF7BD
:10F1100035FBFEE769460020FFF714FA002803D00C
:10F120000C20FFF72BFBFEE76846007802280FD083
:10F130000020694608717049002348225C39082084
:10F1400000F020FF002805D00C20FFF717FBFEE79A
:10F150000120EEE70024009468460194047060DF0B
:10F16000002803D00C20FFF709FBFEE7664800F0FB
:10F17000FFFE002803D00C20FFF700FBFEE7112064
:10F1800069460870072261A168467CDF002803D029
:10F190000C20FFF7F3FAFEE7019410216846029471
:10F1A00081803C21C180FF2104819131418101A8EE
:10F1B0007ADF002803D00C20FFF7E0FAFEE755487D
:10F1C000009069465448FFF733F9002803D00C201B
:10F1D000FFF7D4FAFEE7382101A8FDF72EF9022146
:10F1E0006846017184710521C17138210FA8FDF7AE
:10F1F00024F9012610A886814848149024211DA8CE
:10F20000FDF71BF920A8067040202190B420229021
:10F21000434B1DAA0FA9009401A8FEF76BFE00281E
:10F2200003D00C20FFF7AAFAFEE71C216846FDF781
:10F2300004F90520C00301900F20000402900094FF
:10F24000032168460173C48104743648059036482A
:10F2500006906846FFF736F8002803D00C20FFF729
:10F260008DFAFEE70320FEF73DFF002803D00C20B7
:10F27000FFF784FAFEE714350FCD299326AB07C3B9
:10F280002A4A26A91B4800F0F3F92448001F0178F8
:10F2900000291DD00470184910227C390B46103308
:10F2A0000D4600200F463E5C2E541C54401C80B27C
:10F2B0009042F8D30F48009200F06CFA002803D077
:10F2C0000C20FFF75BFAFEE77D20C00000F0B4F8E9
:10F2D00048DF0028D9D00C20FFF750FAFEE70000E5
:10F2E00053746172742E2E2E0A00000025730000E4
:10F2F000D82B002034050200D82900204D0202003E
:10F30000F1E60100CD0C000009E401004164616DEB
:10F310006F27730061FB0100A02D0020042800204E
:10F32000DDFB0100C1FC01001DEC0100B5FF010087
:10F3300070B5144682880E4605462088111D411876
:10F34000921C994201D8FE2A01D90C2070BD521C92
:10F3500032542088FF21401C80B220803154208804
:10F36000401C80B220808119288800F0F7FF218896
:10F37000401880B22080AA88002A09D0A9680029F4
:10F3800008D08019FCF7FAFF2088A988401820804F
:10F39000002070BD072070BDF8B50F4601781446F7
:10F3A0000546012902D16878002806D02088821CF1
:10F3B0009A422DD8012902D006E00720F8BD6978CD
:10F3C0004118891C994223D8181A801E86B26846B3
:10F3D00006802188B81C081869467DDF0028EDD119
:10F3E0002878022805D169460988B14201D8092147
:10F3F0000AE00821012805D16878B04202D86A469F
:10F40000108001E06846068068460088FE2801D921
:10F410000C20F8BD2288401CB8542088401C80B2C3
:10F420002080395420886946401C20800988401873
:10F4300020800020F8BD000031B5054C04E0401EDE
:10F4400000902046FCF790FE00980028F7D138BDC8
:10F45000E70300008207D30EFF229A408907090EB6
:10F4600010B5994000280BDA03071B0F083B9C08D6
:10F470000C4BA400E318DC6994430C43DC6107E007
:10F480008408094BA400E418236893430B432360CA
:10F49000C106C90E0120884004490860044908607B
:10F4A00010BD000000ED00E000E400E080E200E0BC
:10F4B00000E100E0F3B581B00F46019800F01EFCBA
:10F4C000012400281E4E019817D0FFF707FB801972
:10F4D0002030007F8009032802D0012806D007E0F1
:10F4E0001848006901998C40204201D1022100E0B6
:10F4F0000321019800F004FBFEBD00F00BFC002886
:10F50000FAD00198FFF7EAFA05468100C81D0E4AB5
:10F51000F93089180A6980B222430A610B49401800
:10F5200000210160002FE7D00198FFF7D7FA800093
:10F5300030580028E0D00648AC404460FEBD0000D2
:10F54000882F00200005005000650040006000404A
:10F5500000630040FEB5044623480E4600192021F2
:10F5600041560027C8171346401C01D0082738E031
:10F57000F27819462046FFF78DFA0546401C2FD039
:10F58000B078002807D01948A1000918086802229D
:10F590009043086007E000217378204600910A46F6
:10F5A000019100F059FAF078002810D01048AA0014
:10F5B0001018317802690F4B1A400261E206D20C32
:10F5C0008907890B0A4301690A43026109E0064879
:10F5D000327840192030017F92011143017700E019
:10F5E00004273846FEBD0000882F00200007005089
:10F5F00000650040FFE0FCFF03490969C140C807FE
:10F60000C00F00D0012070470005005070B5124DAA
:10F610002879002801D0082070BD0F49002040390A
:10F62000421E0B182033401CC0B21A702028F8D399
:10F6300000242046FFF720FA641CE4B2082CF8D31B
:10F6400003210620FFF706FF01200449C007486098
:10F6500001202871002070BDC82F002000630040E9
:10F6600002480079002800D001207047C82F0020F0
:10F67000FEB507460C4640791821424B4143CE184F
:10F680003179002901D00820FEBD002C02D13E496D
:10F69000000144183260207B01250128207804D81D
:10F6A000294681403948C16001E000F039FA2178EB
:10F6B000374A01208900891808606578FF2D06D037
:10F6C0003249A840C860284600F00FFA01E0002542
:10F6D000ED43A078FF2808D0002300931A4619466E
:10F6E0000193029000F0DCF902E00020C043029098
:10F6F000E078FF2804D000F013FAE07800F0F5F984
:10F700007879182148431F49E27840188271396896
:10F710000520000223780818029A8360C560026100
:10F72000A2684262627B237B002A00D00122012B67
:10F7300004D0022B04D0032B06D103E0022302E005
:10F74000042300E006231A4342657A7918235A43BA
:10F750000C4B6579D218D5713268002A04D0032386
:10F7600004221B02C9184A60012505603068002880
:10F7700004D0042021793856FFF76CFE0020707108
:10F780003571FEBDC0300020E805020000050050C4
:10F7900000070050F8B59C464379182463432A4C6F
:10F7A000069F1C196379002B01D01120F8BD134668
:10F7B0003B4346D0A5790126FF2D03D03346AB400D
:10F7C000224DEB600568E16022726046206167723D
:10F7D0000020A0722368002B05D066710326042345
:10F7E0003602AE19B360FF2609360020A851002A60
:10F7F00001D0087800E0E07905231B02EB18D861FE
:10F80000012A01D9487802E0012F01D9E079D861B5
:10F810002068002805D003210420090269184860E7
:10F820000FE00027A8590028FCD0AF5121462846F8
:10F8300000F07EFC0028F5D1A079FF2801D000F06F
:10F840006FF90020F8BD0000C03000200005005016
:10F85000F3B50446244881B0807D002801D00820FB
:10F86000FEBD002C00D1214C206800F034F9207836
:10F87000012739461E4E8140B1600021606800F0CA
:10F8800021F91C4DA0696862607D217D0843E8660E
:10F8900003CCE8606961207B083C01280ED100217F
:10F8A000A06800F00FF9E06800F015F9207B3946F8
:10F8B0008140B160E168A068A96028610A4E0298A1
:10F8C000706021693160002806D00C4A217F0A4807
:10F8D00050600220FFF7BEFD042028600020F07475
:10F8E000B074B7757075FEBDD02F0020C80502003A
:10F8F0000005005000250040800002000023004069
:10F90000F8B5294DEA7C002A01D01120F8BDE97430
:10F91000E86000202875687D002801D100F0B2FA67
:10F920006868224C002805D0812021498000486069
:10F930000020F8BDFF212531204600F003F90546DF
:10F94000FF210931204600F0FDF80746FF2145312F
:10F95000204600F0F7F80646394631432943E9D0FE
:10F960002846304306D100F017FA0F48C17C007DCD
:10F970008142DFD8FF21453100206050FF21253131
:10F9800060500949002DC87401D00320F8BD002E35
:10F9900001D00F20F8BD497D0120002901D0206051
:10F9A000C6E76060C4E70000D02F002000200040C0
:10F9B0000023004010B5044C607D002803D100F006
:10F9C00061FA0120607510BDD02F0020F8B5204CE1
:10F9D0000026A27C002A01D01120F8BDA174A060ED
:10F9E000002020821B4DFF271D37E8510120A86011
:10F9F00000F0C6FB6168002911D024E0FF27013721
:10FA00002946144800F09EF8002802D1208AB84206
:10FA1000F6D1208AB84203D000F0B2FB00E03D46A8
:10FA2000A07C218A8842E9D8218AC81FF9380CD0E5
:10FA3000084F2946384600F085F80028F9D0012003
:10FA4000F8600020A0743046F8BD0F26F9E70000EA
:10FA5000D02F00200020004030B552000A4399000A
:10FA6000039C0A432102049D0A4329040A430249D4
:10FA700080004018026030BD0007005030B55200D1
:10FA80000A439900039C0A432102049D0A43290466
:10FA90000A43024980004018026030BD0007005050
:10FAA00030B552000A439900039C0A432102049D89
:10FAB0000A4329040A43024980004018026030BD0D
:10FAC000000700501CB500220B460092114601921F
:10FAD000FFF7D4FF1CBD1CB5002100910B4601228D
:10FAE00001911146FFF7CAFF1CBD1CB50021009112
:10FAF0000B46012201911146FFF7D2FF1CBD000009
:10FB0000820006481018026803231B049A4302600F
:10FB1000026809040A4302607047000000070050B1
:10FB200001218140014881607047000000050050BC
:10FB3000034940180068012800D0002070470000E9
:10FB4000006000404058002800D001207047032288
:10FB5000120280184068084000D001207047000061
:10FB6000F8B50D46164612A10020FDF79BFB0024B8
:10FB7000134F0CE0285D38552A5D12A10020FDF7D7
:10FB8000A0FB285DFEF76EF90028FAD1641CB44290
:10FB9000F0D30B4A0CA10020FDF793FB0EA100202F
:10FBA000FDF780FB0A20FEF75DF90028FAD1F8BDC9
:10FBB00072656365697665642064617461200A001A
:10FBC0005C29002025630000746F2073656E643A21
:10FBD0002025730A000000000A00000010B500286C
:10FBE0000AD003280AD10220FEF7C8FD002805D05C
:10FBF0000C20FEF7C3FDFEE700F099F910BD0000F0
:10FC000070B505460088224C10280AD0112817D05C
:10FC1000132826D052282FD01EA10020FDF742FB2A
:10FC200070BD20A10020FDF73DFB0720FEF7A6FDDB
:10FC3000002803D00C20FEF7A1FDFEE7A8880EE007
:10FC40001BA10020FDF72EFB0020FEF797FD0028EA
:10FC500003D00C20FEF792FDFEE70020C043608039
:10FC600070BD00231A46852160887FDF0028F7D009
:10FC70000C20FEF783FDFEE700231A461946608834
:10FC8000A9DF0028ECD00C20FEF778FDFEE700008D
:10FC900000280020424C452049444C452E2E2E0A77
:10FCA00000000000434F4E4E45435445440A0000B7
:10FCB000444953434F4E4E45435445440A000000C7
:10FCC00010B50078002809D105483B21408876DF2F
:10FCD000002803D00C20FEF751FDFEE710BD000008
:10FCE000002800200021425C002A01D0012070473A
:10FCF000491C0629F7D30020704700000449081862
:10FD000020214156042901DB012070470020704763
:10FD1000882F00200449081820214156042901D2C7
:10FD20000120704700207047882F0020074909797B
:10FD3000490701D408207047002804D004494978B5
:10FD40000160002070470E207047000064280020EA
:10FD5000E82F002070B501240B49600408600B49AE
:10FD600040108860094940398860094D6C602F2037
:10FD7000FCF70AFAAC60074D00242F202C61FCF739
:10FD800003FAEC7070BD000080E100E04013014018
:10FD9000001001409C280020FF2107480931002263
:10FDA0004250064881690648037DC268D154017DEE
:10FDB000491C0175704700000020004000250040EC
:10FDC000D02F002070B500240546601C90B00007BD
:10FDD000000F08A9103008940870601C0007000F7D
:10FDE000103048708878F9263040801C88701C21BB
:10FDF00001A8FCF722FB69460879102108436946EF
:10FE00000871029408A80494059407940690287831
:10FE100008A988710320694688841120009408701D
:10FE200048708878F7213040801C0840EF21084056
:10FE3000012630436946887014210AA8FCF7FDFAB0
:10FE400009A80A9068460B9069460E8614204C86D5
:10FE500088862B4668880C330AAA01A9A2DF10B055
:10FE600070BD00001FB5012269460A70087204487F
:10FE7000C16801910021C17406C8684690471FBD42
:10FE8000D02F0020FF220548253200218150FF227B
:10FE900009328150012101607047000000200040BC
:10FEA000FFB50746806A81B0144600283DD0002582
:10FEB00038462030009033E00C20B96A68430E18B1
:10FEC000B088801CFE2802D90C2005B0F0BD228825
:10FED0000299401C885420881622401C80B2208041
:10FEE00002990A542088401C80B22080029941184F
:10FEF000308800F033FA2188401880B22080B28820
:10FF0000002A0AD0B16800290FD0029BC018FCF764
:10FF100035FA2088B188401820806D1C0098EDB219
:10FF2000007BA842C8D80020CFE70720CDE710B556
:10FF30000020FEF723FC002803D00C20FEF71EFC57
:10FF4000FEE7FEF765FB002803D00C20FEF716FC49
:10FF5000FEE73CDF002803D00C20FEF70FFCFEE795
:10FF600010BD10B508461146C046C04610BD000081
:10FF7000002803D00249C860002070470E20704757
:10FF8000BC28002070B5002901D08C0701D00720C3
:10FF900070BD064C0125A16062800549636010DFD9
:10FFA0000028F5D1257016202EDF70BDBC2800205A
:10FFB00063FF010010B500280BD10A20FEF7DEFB1D
:10FFC000002803D00C20FEF7D9FBFEE701490120F1
:10FFD000087010BD00280020FEB51F4C00252769C1
:10FFE000E06802906846FEF781FE0190FEF790FF00
:10FFF00006460198002822D000230098E16817E007
:020000040002F8
:100000000E680A46864202D9301A086012E0801B48
:10001000F31800261660D668D169B446002E07D0C2
:10002000FE183602360A566066469660D561154659
:100030000029E5D12846E160FEF7C8FF06E0284622
:10004000FEF7C4FF002801D1002E02D00298FEF76F
:100050004DFD00202071FEBD9C280020012002499A
:10006000000508607047000000E200E010B50E4B8C
:10007000D968002906D002680C68A24204D8A21AE6
:100080000A60C161D86010BD0B4604E00B46C96927
:10009000121B002904D00C689442F7D3A41A0C60F8
:1000A0000260C161D86110BD9C280020F8B51E4DCA
:1000B000EC68002C36D01D48002740682969401A9A
:1000C0000602360A2068B0421AD8361AC7192246E4
:1000D000107CE469002811D0002010746B69002B9B
:1000E00009D0916950699847002807D0002211462D
:1000F000FDF75AFD02E0516990698847002CE1D173
:100100006978A878814206D1401CC0B2A870022844
:1001100001D10020A87004490006800D18310F504D
:10012000FFF79CFFF8BD00009C280020001501404F
:1001300038B505221202831898696A461070887AC9
:100140004A7A904203D26A4612780C692254887A1D
:10015000401CC2B28A720C7A501C844202D9C9680F
:10016000085C03E04D7A854202D9C879D86103E082
:10017000A24201D3AA4201D2012038BD002038BDDD
:10018000FF2107481D31002242500648028A81683B
:10019000895C028A521C02820348C16170470000D8
:1001A00000200040D02F00200025004070B58EB008
:1001B00005461C216846FCF740F9694608780C2181
:1001C000084369460870002401940394049405943C
:1001D0000694287808A98870022069460884601C63
:1001E0000007000F10300794087711204877887FA8
:1001F000F9210840F721801C0840EF210840012622
:10020000304369468877142109A8FCF716F908A835
:10021000099007A80A9069468E851420CC85088627
:1002200068882B1D09AAA2DF0EB070BD1FB5002182
:100230006A4611701072044882680192817406C87F
:10024000684690471FBD0000D02F002070B5007891
:10025000002807D0012825D0022822D10C20FEF743
:100260008DFAFEE7124C114D60782818FDF790FDCD
:100270006078401CC2B2A81862702038C07F0A287B
:1002800001D0142A0DD309490A48FEF731F908288C
:1002900005D0002803D00C20FEF770FAFEE70020FE
:1002A000607070BD0C20FEF769FAFEE7C4290020DB
:1002B00000280020A02D00207CB50178254D0129C3
:1002C0000AD002292FD000292CD129462248FDF737
:1002D0006FFC00282ED031E0406801781E481038AD
:1002E000FDF783FC1C4C103C002805D001216A4618
:1002F00011700190684608E0A068E168081A0128BA
:1003000005D1002069460870684669688847A0687A
:10031000E168081AA188884204D80E480121801C8F
:10032000FFF7EEFA7CBD02216A461170C0680190A9
:1003300068460CE001210748FFF748FB0648816842
:10034000C0688842EED10320694608706846696833
:1003500088477CBD5C280020782F00200870000AA8
:10036000487002207047000038B51549154A488882
:1003700090420FD04A78144C521CD2B24A70237B60
:10038000934208D3091D75DF002803D0A169002915
:1003900000D0884738BD00254D70217C002907D04A
:1003A0003B2176DF002803D0A169002900D08847CF
:1003B00061690029EED068460570884738BD0000A5
:1003C00048280020FFFF00004C2F002012494868F9
:1003D000C005C00D19D0103840B2002807DA020756
:1003E000120F083A920892005118C96904E0810876
:1003F0000A4A8900891809688007C00EC1400806AA
:10040000800F012803D0032803D00220704700206A
:10041000704701207047000000ED00E000E400E0BC
:1004200042788378521CD2B2934200D100220378E2
:10043000934201D1002070470A7041684078182229
:10044000504308187047FFB583B016460C9D0D9CAD
:100450001F46022200950194039800F00CF8002832
:1004600007D13B461022314600950194039800F0D5
:1004700002F807B0F0BDFFB583B0074600200C9C22
:100480008646268805463AE07868A9004218118811
:10049000684681805188C1800022694601A865DFD5
:1004A000002839D1684601780598814226D17046E6
:1004B000002801D0002200E002222088891842187A
:1004C0000D998A4227D8714600290AD1401C80B272
:1004D0002080069A049911542088401C2080012015
:1004E0008646218806980A18694601A865DF002813
:1004F00012D1694620880978401820806D1C388800
:10050000A842C1DC704600280AD02088801B401E0B
:1005100080B2FF2802D90C2007B0F0BD069988559B
:100520000020F9E70179002902D1007B002800D0E2
:100530000120704700300040030001000B09080A49
:100540000100000000509D000401030203CC0000E4
:100550000000001000010000BC2D0020DC2D002058
:10056000082E0020110000001200000013000000FF
:10057000140000001100030025E601001200030032
:1005800025E601001300030025E601001400030026
:1005900025E601002C2F00209ECADC240EE5A9E0F0
:1005A00093F3A3B50000406E090000000B000000AB
:1005B0000A00000008000000000000000000000029
:1005C00000509D0003000000090000000B00000027
:1005D0000A00000008000000000000000000000009
:1005E00000509D0003000000020304FF03FF000011
:1005F0000000004000000000D83000200300000090
:100600003031323334353637383941424344454648
:10061000535444494E005354444F5554005354448A
:10062000455252005465726D696E616C00000000A5
:1006300050060200002800205C01000050D001009C
:10064000840602005C2900200C1D000004C101008A
:10065000120114FFFF0102290203A2FFFF600B53E6
:1006600045474745522052545429DE290414240694
:100670000213F830122002260439301234032820E5
:0406800010D324F47B
:040000050001C0C175
:00000001FF
