:020000021000EC
:108000000080002061C50100A9C50100ABC50100C9
:108010000000000000000000000000000000000060
:10802000000000000000000000000000ADC50100DD
:108030000000000000000000AFC50100B1C5010054
:10804000B3C50100B3C50100CD980100B3C501005F
:10805000B3C501000000000019920100B3C5010082
:10806000B3C50100B3C50100B3C50100B3C501002C
:10807000B3C50100B3C50100B3C50100B3C501001C
:10808000B3C5010011850100B3C50100B3C50100EE
:10809000F1850100B3C501002DC50100B3C5010084
:1080A000B3C50100B3C501000000000000000000DE
:1080B00000000000000000000000000000000000C0
:1080C00010B5064C2378002B07D1054B002B02D0AE
:1080D000044800E000BF0123237010BD742000207D
:1080E0000000000088D7010008B5084B002B03D022
:1080F0000748084900E000BF07480368002B00D18B
:1081000008BD064B002BFBD09847F9E700000000A4
:1081100088D7010078200020742000200000000093
:10812000164B002B00D1144B9D46402292029A1A06
:10813000924600218B460F461348144A121A00F04B
:1081400067F80F4B002B00D098470E4B002B00D048
:1081500098470020002104000D000D48002802D09F
:108160000C4800E000BF00F02DF82000290002F0CC
:108170004DFB00F011F8C046000008000080002010
:10818000000000000000000074200020BC28002037
:108190000000000000000000084B10B5041C002B7C
:1081A00002D0002100E000BF054B1868836A002B55
:1081B00000D09847201C00F033F8C04600000000B3
:1081C00074D501000E4B70B500251E1C0D4CE41A31
:1081D000A410A54204D0AB00F35898470135F8E746
:1081E00005F0BAF9084B00251E1C084CE41AA4102F
:1081F000A54204D0AB00F35898470135F8E770BDAD
:108200006C2000206C2000206C20002070200020BA
:10821000031C8218934202D019700133FAE77047A9
:10822000FEE7C046F8B54D465F4656464446F0B4B4
:10823000224B1978994600292AD0214B00259846CF
:10824000204B214F01269A4603E00135EDB28D42C5
:108250001ED243461B68321C9C46EC0064442078C6
:108260003B6882401342F0D093433B6000F0CAFF6A
:10827000331C22785146934009680B40011C914001
:108280008B420BD04B4601351978EDB28D42E0D3CD
:108290003CBC90469946A246AB46F8BD61686378FF
:1082A0008B460029EED0591E4C424C41211A4B42BC
:1082B0004B41101CD9B2D847E4E7C04698200020B3
:1082C00094200020BC200020C0200020F8B5124DD2
:1082D000071C281C00F0BAFC002807D10124BC4070
:1082E0000E4E3368234202D0A3433360F8BD381CDE
:1082F00000F088FF0A4A136800280BD0234313605C
:108300003368281C1C43074B00221968346000F0B6
:108310001FFCEBE7A343F2E79C200020C0200020D5
:10832000BC20002090200020F0B54F464646C0B447
:10833000141C071C83B00E1C0720042A04D803B0A9
:108340000CBC90469946F0BD00F050FE00282FD09E
:108350001A4B1B4A1F601B4B751E1E701A4BEDB249
:108360001C6000231360194A1360002E1AD0184BAA
:1083700001AC994603230026984600E01D1C4246A6
:10838000EB00FB182270A670E6709A78187862707D
:10839000211C4A4600F034FE0028D0D16B1EDBB20F
:1083A000002DEBD100210B4A0B4800F0B7FBC6E7CC
:1083B00000F0E8FD0028CBD0C1E7C04694200020A3
:1083C000BC2000209820002090200020C020002009
:1083D000CD8201002582010078D5010070B5094DDC
:1083E0002B78002B0BD00024074E3268E300985CFA
:1083F000012100F0B3FE2B780134A342F5D8002010
:1084000070BDC0469820002094200020BFF34F8FFD
:10841000024A034BDA60BFF34F8FFEE70400FA0510
:1084200000ED00E010B500290DD00923002A01D18C
:10843000181C10BD541E2240FAD182600160848055
:10844000C2600023F4E70E23F2E7C046031C10B518
:108450009C888068DA68121A0420944200D210BD09
:10846000DA68002014401A681155DA680132DA60BF
:10847000F5E7C04610B58468C268031C0520944225
:1084800009D098689A8802401868825C00200A70B7
:108490009A6801329A6010BD80218023184A8902AF
:1084A000D1508022D221174B520289005A504039B4
:1084B0005A5001222F205A600138C046C046C0469B
:1084C000C046C046C046C046C046C046C046C0467C
:1084D000C046F1D19A6000230B4A2F201360013867
:1084E000C046C046C046C046C046C046C046C0465C
:1084F000C046C046C046C046F1D1044A137070471A
:1085000000E100E000100140C4200020E420002031
:10851000A021F0B5002347462C4A490080B45350AF
:108520000431535004315350043153504C3953509B
:1085300004315350264B1B68002B37D025490026A9
:1085400052582549254F0C68141B00222402240A86
:10855000904602E0002D1AD02B1C1A68A24216D8B1
:10856000A41AB6181A7CDD69002AF3D0424699692C
:108570001A745A693B68002B1BD0101C98470028BE
:10858000E8D000210022FFF741FF002DE4D1144B79
:1085900014491A780B789A420ED0134A9B009E50C9
:1085A00080218023114A49035B00D15004BC9046CE
:1085B000F0BD081C9047CDE70132D3B2022B01D0A9
:1085C0000B70EAE700230B70E7E7C046001001409C
:1085D000C820002004050000C4200020CC2000207A
:1085E000D8200020D9200020DC20002000E100E07D
:1085F000F0B55F4656464D464446F0B4B54BB64AD4
:108600001B68B64989B0019309781378994200D163
:10861000B3E10133DBB2022B00D100231370B04A67
:108620009B009B58AB4A9946019B4B441B021B0A7B
:10863000136001230493AB4B00241B689B46AA4B99
:10864000D8461B781A1C0293A84B944607931B68C4
:108650000393A04B1B680693A54B1B7805935B46C1
:108660006646013EF2B29446FF2A4FD06246D000E1
:10867000039A9246504401784578A942F0D04A00C6
:108680005218877801314668C9B27F1AB2467E1EF9
:10869000B741D2007F42524439401778022F0AD0A6
:1086A000032FEAD1002BE8D01C74DB69002BFBD12F
:1086B00045789846E1E75668002B25D09E421AD0AF
:1086C0001F1C00E0171CFA69002AD6D09642F9D187
:1086D000321C3D1CBE4200D1EBE01768D269EA6152
:1086E000002A06D013689A465744176045784346D7
:1086F000C3E74578C1E7DE691A1C002E00D1DDE032
:10870000B046331C151CE8E70023B6E74146754A1E
:10871000181C11606F4A0699039311606946744AE8
:10872000097D1170049A002A00D02AE15B461B1AC9
:108730005A1E93410025DBB20493079B00271B6858
:10874000039E0693634B1B689C46664B1B689A46C8
:10875000674B1B780593674B019301239846029B57
:10876000013BDBB20293FF2B00D18FE0069ADB00C6
:1087700093469B44002D27D06968AB68281CED699F
:108780006246019C8A1A1202120AA24250D8D318D9
:1087900042460360476087600274C761002E56D06E
:1087A0003168341C994204D35FE01168994263D266
:1087B000141CE2695B1A002AF7D10360331CC26102
:1087C000E0611E1C002DD7D15B465A461B785278BB
:1087D0009A42C4D0594649685A0089465946D21827
:1087E0000133DBB20B708978D2004A4499424AD0F7
:1087F00011785068331C0129E3D1037C994649461E
:10880000331C0029DDD191684160D368836014690D
:10881000C46052698261059A002AB1D04A4600219B
:1088200042606246019C8A1A1202120AA242AED922
:108830006246511A0902090A99420CD242465B1A51
:108840000360476087600274C761002EA8D1031CD3
:1088500082461E1CB6E74346076047608760037484
:10886000C761002EF3D000233168CB1A3360031C9C
:10887000C66182461E1CA5E7C91A11600360C26169
:10888000331CE0619DE75B461D70B1E75246154B16
:108890001A60039BB34231D1049B002B2ED10023DD
:1088A000134A137009B03CBC90469946A246AB46A9
:1088B000F0BDDE693A1C002E00D021E701250E4BE9
:1088C00001369D600023059600269846151C0696E5
:1088D00003E7C046C4200020D8200020D920002073
:1088E000DC200020C8200020D0200020D420002040
:1088F000DA200020FEFF7F0000100140002E62D031
:10890000474B48493568CC58474B484E1B68307830
:10891000E21A1202120A0332904600285ED0424642
:10892000AA4200D22A1CA820D21812023D49130ADA
:10893000C0003B4D0B504A591B1B121B1202120A5E
:108940001B0203321B0A9A42A9D94B590B502F2004
:108950000138C046C046C046C046C046C046C046B4
:10896000C046C046C046C046C046F1D180218023E3
:108970002F4A89025B00D15091E700239946049366
:1089800059E647460025002100244846002B13D015
:108990001A6882421AD8DE68801A89181C60DF695A
:1089A000002E07D0DD611D1C019A9E608A181202FC
:1089B000120A5A603B1EEBD11E4B1F60002303932B
:1089C00001330493B9E6FFF767FD68E7121A1A60EE
:1089D00003930123174904930F60AEE68020D1274B
:1089E0004002BF00C851403FC851C02280271048F4
:1089F000BF0252008750076001272F200F60013807
:108A0000C046C046C046C046C046C046C046C04636
:108A1000C046C046C046C046F1D137707FE7C04669
:108A20000405000000100140C4200020E4200020C4
:108A300000E100E0C8200020F8B54F464646C0B42B
:108A40000326351C80460F1C141C99461540072030
:108A5000002D03D00CBC90469946F8BD002A44D0A6
:108A6000FFF71AFD4A46224B80201A60221C214B38
:108A700018321E70204B62601C607B00DB19DB002B
:108A8000D218E260D318C022636125706570A770A8
:108A900025726572A77225746574A774C524FF21B9
:108AA000164B40031D60164B52001D70154BA40061
:108AB0001D70154B98501A598A433F390A431A5171
:108AC000A122186040461149D2008850C42080007D
:108AD0001C580F4A2240C024240222431A500D4B36
:108AE0000020CA580C4B1A60B4E7034B1A60B1E778
:108AF000CC200020D0200020D4200020C82000203E
:108B0000D8200020D920002000E100E00010014022
:108B1000FF00FFFF04050000C420002010B50B4B30
:108B20001B68002B0BD0002A07D0002805D0036853
:108B300008201C7C002C04D010BD0720FCE7082076
:108B4000FAE759745A610020F6E7C046D4200020A5
:108B5000F0B5474680B4374B1C68002C08D000287D
:108B600006D00723042905D8181C04BC9046F0BD84
:108B70000823F9E74369002BFAD00025437CA84677
:108B8000012B2ED02C4B10255B68DB05DB0D2CD187
:108B900064196378A5785E1CF6B2AD1B6F1EBD41EB
:108BA0006D422E402578B5421DD05D00EB186568FA
:108BB000DB00ED180423002DD6D0033B2B7068603A
:108BC0001E4B1F48C358E960AB60434680212B61B0
:108BD00080236A611B4A5B0049036670D150002301
:108BE000C2E78846CEE70423BEE7103BDEB275B28B
:108BF000002D13DBAD08134EC035AD00AD59032673
:108C00003340DB00DD402B069B0FDBB20025012B40
:108C1000BED00835032BBBD00835B9E70F230A4D6A
:108C20003340AC46083B9B089B0063445D680323CC
:108C3000E6E7C046D420002000ED00E00405000077
:108C40000010014000E100E018ED00E030B52D4AD1
:108C5000031C12680820002A2DD0002B2BD0596944
:108C6000002928D000211974274910254968C90511
:108C7000C90D23D155196A78A978541CE4B2091B8F
:108C8000481E814149420C402978A14214D051002C
:108C90008A186968D2008C4662440420002A0AD0EF
:108CA000022153601170802380210020174A49035C
:108CB0005B006C70D15030BD0420FCE71039CCB2A1
:108CC00060B2002813DB8008104CC03080000059CF
:108CD00003242140C900C8400106890FC9B20025FC
:108CE0000129C7D008350329C4D00835C2E70F21B0
:108CF000074821408446083989088900614448684A
:108D00000321E6E7D420002000ED00E000E100E0D0
:108D100018ED00E070B5161C0C1C8D18002A05DD3E
:108D20002078013400F0DAF8AC42F9D1301C70BD83
:108D300010B50C1C201C00F0B7F80528FAD0012053
:108D400010BDC04630B5047885B0012C19D0022C76
:108D500034D0002C01D005B030BD254C254D201C51
:108D6000291CFFF787FB002823D0A268E3689A42FA
:108D7000F1D1032302AA13701F4B101C1B689847E4
:108D8000E9E743681D4D1978281CFFF75FFB0028B1
:108D90001ED1AA68EB689B1A012B21D0AA68EB6848
:108DA0009B1AAA889342D6D80121154800F0F4FCFA
:108DB000D1E7281C012100F095FCD6E702AB1C701E
:108DC000C36802A8019303930B4B1B689847C2E743
:108DD00002AB1C70084B03901B6802A89847DDE7A4
:108DE00002AB1870044B02A81B689847D6E7C04630
:108DF000F4200020E8200020EC20002004210020A6
:108E0000F0200020F0B51E1C214B051C89B00C1C65
:108E10001A600720002906D08A881E480968FFF7D3
:108E200001FB002801D009B0F0BDA168A2891A4851
:108E3000FFF7F8FA0028F6D16A46184B684692CB3D
:108E400092C292CB92C212CB12C2AB6806932B791C
:108E500006775A1E934103756B790E22591E8B417A
:108E60005B421A404275EB780D490293AB7803934D
:108E70002B7801936B78009300F0ACFB0028D2D1E3
:108E800000F00EFD0121074800F086FCCBE7C0464C
:108E9000EC20002004210020F42000207CD50100DB
:108EA000458D0100F020002038B50A4C051CA16852
:108EB000A288E3685B1A9A4204D0201C291CFFF7A1
:108EC000D9FA38BD0448012100F066FC0028F4D02E
:108ED0000520F6E704210020F020002010B5041C36
:108EE00006480121047000F0FDFB112800D010BDE0
:108EF000211C0348FFF7AAFAF9E7C0461421002015
:108F0000F4200020F0B5002820DBFF271B4B0322B4
:108F10009C463B1C8408C026C0B20240D20093404D
:108F2000A4006444B600A5599D438B013B40934087
:108F3000191C2943A1511F2318401E3B8340C02206
:108F4000181C0E4B520098501860F0BDFF260C4ABA
:108F500003249446321C0F23C0B20440E400A24014
:108F60000340083B9B089B006344DD6995438A01ED
:108F70003240A240111C2943D961DCE700E100E046
:108F800000ED00E038B54425164C0820635D002B49
:108F900000D038BD4022FF21013BA3540132A1542F
:108FA0000132A354236201326362A362E36223634A
:108FB0006363A363E3630238FC39A35423606360F3
:108FC000A360E36023616361A361E361FFF79AFF3C
:108FD0008021C123044A9B000906D15001230020AF
:108FE0006355D6E718210020006000404423034A5F
:108FF000D05C431E9841C0B27047C0461821002083
:10900000F0B5474680B4524C0825231820331E780B
:109010007F2E03D8281C04BC9046F0BDCD78AC460A
:10902000002D36D02568013500D187E004230026C5
:109030009846731C9D006759013733D0B31C98457F
:1090400025D99D00675901372CD0F31C98451ED9AE
:109050009D006759013725D0331D984517D99D00CC
:10906000675901371ED0731D984510D99D00675967
:10907000013717D0B31D984509D99D0067590137AD
:1090800010D00736B04502D9E369013308D0042572
:10909000C0E72569013555D0082304269846C8E75E
:1090A00007231C25625162462718DEB220373E7026
:1090B000002A02D1E3183C3318708B78002B15D1AD
:1090C000031CA0254A78C133FF3392009B00ED05B5
:1090D0005A51CB78002B15D176B2A4193C340B78B9
:1090E00022789B0113432370002593E7A022D20529
:1090F0009446E025022783006344ED005A59BA43A1
:109100005A51E6E7A22476B2124BB600F318E400F7
:109110000A781D591049000229401951F8214901C6
:109120000840061CC0211004021C301C89021D5975
:109130000A4010432843185100256BE7002622609F
:109140001E70BAE7042522611D702E1C2B1CB1E78E
:109150001821002000600040FFE0FCFFF0B5264D24
:109160002C182034227853B2032B18DDEB183C3333
:109170001B789B09032B32D0012B39D0C025AD02BF
:10918000A023DB059C46E02380006044DB00C4583C
:109190001A492140C150C2582A43C250F0BD032A87
:1091A000FCD81748A227844601269A006244FF0093
:1091B000D0593043D0511A1C6046002740329200EB
:1091C00092B217500029E9D00022A25692005259BB
:1091D000002AE3D0C1229E4092008650DEE7A223FF
:1091E000A022DB00D205D258012383401A42C5D108
:1091F0008025AD02C4E7C04618210020FFFFFCFF18
:1092000000600040A223A022DB00D205D358C34057
:10921000181C012318407047F8B54F464646C0B4A5
:10922000C74A00241368012B00D1CBE0C54B1A6854
:10923000012A00D1D4E0C44B1A68012A00D1DFE032
:10924000C24B1A68012A00D1EAE0C14B00251A6816
:10925000012A00D1F5E023070BD0E30700D506E192
:10926000A30700D512E1630700D51DE1230700D550
:10927000F1E0002C03DB0CBC90469946F8BD40237E
:10928000B44CE15C4BB2013321D0C9B2C023081CFD
:109290009843231820331B785BB29B001E59002E85
:1092A00015D0A022D205944683009C44E023624658
:1092B000DB00D3580122C0278240BF023B4089090E
:1092C0001B0C154200D106E1022B00D160E14123C5
:1092D000E15C4BB2013321D0C9B2C023081C9843D2
:1092E000231820331B785BB29B001E59002E15D02B
:1092F000A022D205944683009C44E0236246DB0012
:10930000D3580122C0278240BF023B4089091B0C71
:10931000154200D1D8E0022B00D1FDE04223E15CF0
:109320004BB2013321D0C9B2C023081C9843231883
:1093300020331B785BB29B001E59002E15D0A02253
:10934000D205944683009C44E0236246DB00D35858
:109350000122C0278240BF023B4089091B0C1542F5
:1093600000D1D2E0022B00D1FEE04323E15C4BB2FE
:10937000013300D17FE7C9B2C023081C98432318EA
:1093800020331B785BB29B001E59002E00D172E780
:10939000A0230124DB059C46E023C02784408200F3
:1093A0006244DB00D358BF023B4089091B0C2542B5
:1093B00000D197E0022B00D05DE7032900D199E0AE
:1093C000B04758E7C1216448890041580B4200D199
:1093D0002CE75C4B14601A680134012A00D02AE79C
:1093E000C1225D499200895802220A4200D122E737
:1093F00000211960544B14431A68012A00D01FE75A
:10940000C12255499200895804220A4200D117E727
:10941000002119604D4B14431A68012A00D014E74B
:10942000C1224D499200895808220A4200D10CE716
:1094300000211960464B14431A680025012A00D008
:1094400009E71D6080231B061C43A022A223D2052E
:10945000DB00D558FFE6404A404BD058D1583D4B31
:10946000C0048903C00E890FDB68984701E7A22377
:10947000394ADB00D058D158364BC00489031B68E9
:10948000C00E890F9847A30700D4ECE6344B324A4C
:10949000D058D1582F4BC00489035B68C00E890F88
:1094A0009847630700D4E1E6A3232B4ADB00D0589A
:1094B000D158284BC00489039B68C00E890F984778
:1094C000230700D4D5E6C6E7032B00D026E70329FF
:1094D00072D0B04722E7032B00D0F8E6032973D0FF
:1094E000B047F4E6032B00D0C5E6032900D067E7B8
:1094F0008027BF02E023DB00D5581A4C2C40D45003
:10950000D4582743D750B047B5E6032B00D02CE7FB
:10951000032955D0B04728E70329DAD1B946E0231B
:109520006246DB00D258904647460E4A3A406746AC
:10953000FA50FA584F4617436246D750B047EDE607
:109540000061004004610040086100400C6100407F
:109550007C61004018210020006000401C050000D4
:1095600014050000FFFFFCFF0329D3D1B946E02317
:109570006246DB00D25890464746154A3A40674655
:10958000FA50FA584F4617436246D750B047ECE6B8
:109590000329A5D1B946E0236246DB00D2589046A4
:1095A00047460B4A3A406746FA50FA584F46174327
:1095B0006246D750B0478AE680239B029946AEE7C1
:1095C00080239B029946D2E780239B029946E2E7DB
:1095D000FFFFFCFFF0B557464E464546E0B4394C18
:1095E000031CA27D0820002A04D01CBC904699468A
:1095F000A246F0BD002B62D0A02003251A68C0054A
:10960000C132FF32920015500122AA461D68AA40BD
:10961000A125ED004251A94600255A68AC46C13249
:10962000FF32920015509E69274A284D56511D7DE4
:10963000A84646465D7D3543254E95515D681E68BA
:10964000A846244D56514646234D56511D7D012DA9
:109650001AD19E68371CE0267600B0464744BE000B
:1096600067463750C137FF37B8465746DE6846442D
:10967000B6003750DE68B5404E468551D8689D68C3
:109680009051A220C00015501A6961602260002923
:1096900008D0197FC12311480B4A9B00D0500220EB
:1096A000FFF730FCA0230421074ADB00D150002340
:1096B0000122E374A374A2756375002095E7084B3B
:1096C0009AE7C046602100200020004024050000E9
:1096D0006C0500000C05000014050000800002006D
:1096E0009CD50100F0B5264A041C937C1120002B68
:1096F00000D0F0BD01259174224823491382946063
:109700000B6005600B60138AE05C138A1F4C013309
:109710009BB213821E4BE0505068002801D00020FD
:10972000E7E70027261C1D1C0130FF30947C138ABC
:109730009C4203D812E0138A834202D00B68002BAC
:10974000F9D0138A8342F2D00F60138A9468E45CE4
:10975000138A01339BB213827451E7E78023118A85
:109760005B0099420AD008490B68002BFCD001210C
:109770000020084B196000239374BAE70F20FAE722
:1097800060210020082000401C21004000200040F3
:109790001C0500000C200040F0B54F464646C0B402
:1097A000394B041CDA7C1120002A03D00CBC9046F3
:1097B0009946F0BD1A755A7DD974DC60002A0AD02A
:1097C0005A68002A0FD08121C123304A89009B00AA
:1097D000D1500020EAE72E490A602E490A60012193
:1097E0002A4A1160ECE7294A294D9046A322D2006B
:1097F00091462848284C296806684A1E91412268EB
:10980000C9B2571EBA41D2B2002E0BD1002A2BD1B9
:109810000029F0D00022204903200A601C490A6078
:10982000DA74C3E70029F5D1002A1FD147464E4616
:109830000260197DBE59B4466746DE687754197DCB
:10984000DE7C0131C9B21975197D8E42D3D8124917
:109850000A600F490A60DA745B7D002B0ED001228A
:109860000A4B00201A60A1E70029D3D100220A493F
:109870000F200A6006490A60DA7497E70122074B55
:1098800000201A6092E7C0466021002000200040BE
:1098900024210040082100404421004004200040D1
:1098A000064A537D002B07D105490B6005490B6023
:1098B000054901330B6053757047C0466021002095
:1098C000242100400821004000200040C12210B5A2
:1098D000514B92009A5884B092054CD54F4A11686A
:1098E000002948D0002111608121C2228900920004
:1098F00099504B4B5A7D002A02D10121494A1160EF
:10990000022269460A7090214348C90042584250D9
:1099100069460392DA7C68460A72DA68196801922D
:109920000022DA745B6898473F4A1368002B10D016
:109930003B4B188A997C814251D9002111601A8AC7
:109940009968895C1A8A013292B21A82374B324A7C
:10995000D150374B1A68002A0BD000221A60304BC6
:109960005A7D002A02D001212B4A1160DA7C002A9C
:1099700044D104B010BDC123274A9B00D3585B07D4
:10998000D2D52C4B19680029CED00021A324196010
:10999000234BE400187DD96812590A541A7DD87CEB
:1099A0000132D2B21A751A7D9042BDD15A7D002A79
:1099B00002D101201B4A10608124C2221648A40053
:1099C000920084506C461A7D012022720022207081
:1099D0000191DA74196868465B689847A4E700202B
:1099E00010600029B5D06A46107011729A68987498
:1099F000196801925B6868469847AAE768461A7D2D
:109A000001210272DA680170019200221968DA7489
:109A10005B689847ADE7C046002000402421004025
:109A200060210020042000401C2100401C05000093
:109A30004421004008210040074B1A6808235207C0
:109A400001D4181C7047002804D0044B5B780360D5
:109A50000023F6E70E23F4E74422002078210020BB
:109A6000A02210B5064BD205D15880231B041C1C24
:109A7000A1208C430B400349C0001450535010BD2B
:109A8000040500000C050000F8B54F464646041CCE
:109A9000C0B4112809D0122839D0132839D014287D
:109AA00039D00CBC90469946F8BD0025012911D04B
:109AB00000291FD00229F4D16B005D191F4B5D19DD
:109AC0006E78002EEDD01E4B1B68002BE9D0301CA9
:109AD0009847E6E7194B6F00984642467B19D65CDB
:109AE00043445B78002B18D17F194744BA78154B53
:109AF0005A55E6E71448FFF7A9F8104A6B005B19BE
:109B0000D318104A9B78565D9E42CAD1D9E70125E9
:109B1000CCE70225CAE70325C8E70C4B0A481B68B7
:109B20009900C9180A4B49001A1C9946FFF710F80A
:109B30000028D9D14B461C70D6E7C046C42200206D
:109B400078220020682200207C220020742200203D
:109B5000C0220020F8B5C74B1B68DB0700D4F8BD56
:109B6000C54A1478172CFAD8C449A300CB589F468D
:109B7000A022C34BD205D1588023DB031C1CA1209B
:109B80008C430B40BF49C00014505350BE4B0022C1
:109B90001B68BE489900C918FEF7DAFFDFE7A0236B
:109BA000F021B84ADB05490499500021043A995044
:109BB000D5E7A022B24BD205D1588023DB031C1C71
:109BC000A1208C430B40AF49C00014505350AE4B02
:109BD00000221968AD48FEF7BBFFC0E7AC4BA120DF
:109BE0001968E0235B048B43A0210026F025C905FA
:109BF000C000A44C0B50A24B0E51CB586D046B40CF
:109C00008025AD032B4000D120E10D5003230E51E0
:109C1000082113709C4B00221B689C485943FEF797
:109C200097FF9CE79A4BA1201968E0235B048B43C4
:109C3000A0210026F025C905C000924C0B50904B86
:109C40000E51CB586D046B408025AD032B4000D1E5
:109C500004E10D5004230E512821DAE7A023A122AC
:109C6000E021DB05D2004904802499500021854879
:109C7000A40319501C50995071E7864D281CFEF71B
:109C8000E5FF11231C1B00D1C7E0002800D0C4E071
:109C900080237F4E1B043360012C10D0C830642118
:109CA000604302F087FC784B00221B684343281C6A
:109CB000191CFEF74DFFF02332685B041340A0220D
:109CC0007049D2055350A1230021DB00D15046E753
:109CD0006F4BA1211A68F0235B049343A022C900B3
:109CE000D20553500021674BD15038E7684BA12073
:109CF0001968E0235B048B43A0210027F026C905E7
:109D0000C000604D0B505E4B4F51CB5876047340F2
:109D10008026B603334000D18EE00E504F51022C06
:109D200000D1A0E02821147074E7A023A122C02153
:109D3000DB05D2004904C024995000215148E403B6
:109D400019501C5099500AE7A023A122D021DB050D
:109D5000D20049048024995000214A48E403195054
:109D60001C509950FBE6A023F021A122DB054904F9
:109D7000D20099500021434A9950F0E6E022444B2A
:109D800052041B68A1219A43A023C900DB0580244B
:109D90005A5000223B48A4031A501C505A50DEE689
:109DA0003B4BA1201968E0235B048B43A0210026D4
:109DB000F025C905C000334C0B50314B0E51CB5828
:109DC0006D046B408025AD032B403CD00D500E51EF
:109DD000052313702C4B002219682C484900FEF70C
:109DE000B7FEBCE62A4BA1201968E0235B048B4335
:109DF000A0210026F025C905C000224C0B50204BA5
:109E00000E51CB586D046B408025AD032B4022D002
:109E10000D500E5106231370D9E6F0231C4A5B0443
:109E20001168A1200B40A021C000C9050B500023E0
:109E300014480B50136092E64E510B50022C15D073
:109E400004211470E6E60D510B50C1E70D510B5083
:109E500002210323DDE60D510B50DBE70D510B50C2
:109E600004210423D5E612211470D3E602211470D4
:109E7000D0E6C046702200209C220020BCD5010004
:109E8000040500000C050000742200204822002078
:109E90006C220020A022002008B50378112B06D0E8
:109EA000122B12D0132B12D0142B12D008BD00236A
:109EB0005A00D318084AD31858780028F6D0074B10
:109EC0001B68002BF2D09847F0E70123F0E702234C
:109ED000EEE7113BECE7C046C422002078220020C8
:109EE000002303280DD8A223A022DB00D205D258DC
:109EF000054B8000C0580123834093435A1E934171
:109F0000DBB200200B7070477CD6010070B5DB4BD4
:109F1000041C1B680020DB0700D470BD172CFCD884
:109F2000D74AA300D3589F46A022D64BD205D1587A
:109F30008023DB031C1CA1208C430B40D249C000B2
:109F400014505350D14B00221B68D1489900C918B6
:109F5000FEF7FEFDE1E7A022CA4BD205D1588023CF
:109F6000DB031C1CA1208C430B40C749C0001450CC
:109F70005350C64B00221968C548FEF7E9FDCCE7EF
:109F8000C44D281CFEF762FE11231C1B00D14CE1BE
:109F9000002800D049E18023BF4E1B043360012C10
:109FA00010D0C8306421604302F004FBB74B00229C
:109FB0001B684343281C191CFEF7CAFDF0233268B6
:109FC0005B041340A022B049D2055350A1230021C5
:109FD000DB00D150A1E7A023F021A122DB05490439
:109FE000D20099500021A84A002099501222AB4B70
:109FF0001A7092E7A023A122E021DB05D2004904D8
:10A00000802499500021A048A40319501C50995055
:10A010001322A24B00201A707FE7A023F0219A4A56
:10A02000DB05490499500021043A99509B4B0020CC
:10A030001C7072E7984BA1211A68F0235B049343CC
:10A04000A022C900D205535000238F49002053504D
:10A05000924A137061E7904BA1211A68E0235B04D8
:10A060009343A0220026F025D205C900864853500C
:10A07000844B1650D3586D046B408025AD032B40A4
:10A0800000D1E9E055501650022C00D1F1E0282112
:10A09000824B1C707D4B00221B687D485943FEF7A4
:10A0A00057FD3AE7A023F021774ADB054904995090
:10A0B0000021043A99500C22784B00201A702CE7AA
:10A0C000A023A122D021DB05D2004904802499508D
:10A0D00000216D48E40319501C50995014226F4B15
:10A0E00000201A7019E76C4BA1211A68E0235B0469
:10A0F0009343A0220025F024D205C90062485350A2
:10A10000604B1550D358640463408024A40323405B
:10A1100000D199E054501550082103221AE05E4BFB
:10A12000A1211A68E0235B049343A0220025F024B8
:10A13000D205C90054485350524B1550D3586404AB
:10A1400063408024A403234000D18BE05450282195
:10A1500015500422514B1A709CE7E0224E4B5204DA
:10A160001B68A1219A43A023C900DB0580245A5013
:10A1700000224548A4031A501C505A50474B07323E
:10A180001A700020C9E6A023A122C021DB05D2005D
:10A190004904C024995000213B48E40319501C5045
:10A1A000995015223D4B00201A70B6E63A4BA1217A
:10A1B0001A68E0235B049343A0220025F024D20513
:10A1C000C900314853502F4B1550D3586404634095
:10A1D0008024A40323403CD05450155005222F4B1B
:10A1E0002B481A70294B002219684900FEF7B0FC71
:10A1F00093E6294BA1211A68E0235B049343A02234
:10A200000025F024D205C9001F4853501D4B15509E
:10A21000D358640463408024A403234026D05450C0
:10A22000155006221D4B1A70A3E6F0231A4A5B0450
:10A230001168A1240B40A021E400C9050B510023A3
:10A24000114C0B51136068E6145053500221032245
:10A2500080E714505350C1E715505350022C0AD0D8
:10A26000042115E714505350042172E71450535041
:10A27000D7E712210CE702210AE7C046702200202E
:10A280001CD60100040500000C050000742200200B
:10A2900048220020A02200206C2200209C220020C6
:10A2A000234B10B51960234B041C1860224B1A6015
:10A2B000830712D50D22214B21481A700132DA7022
:10A2C00001329A7101325A724A080421FEF72CF8C1
:10A2D000002820D0E30703D41CE0C3070ED50020DC
:10A2E000A023F022A1210024DB055204C9005A500A
:10A2F00014495C500C315A5000280BD112480021EF
:10A30000124AFEF70BFC002804D111480121114A22
:10A31000FEF704FC10BDFEF761F80028DAD10E4804
:10A3200000210E4AFEF7FAFBE307E5D5D8E7C04661
:10A33000742200207022002078220020C4220020F5
:10A3400090D601000C050000B0D60100559B01001D
:10A35000B4D60100619A01008CD60100999E0100DB
:10A36000031C0720032B00D97047012A13D00129B1
:10A3700017D0002908D0022919D15800C3180D4858
:10A38000C3185A700020EFE75800C3180948C318D3
:10A390009A700020E8E700220129E8D11A1C0D324A
:10A3A000D2B258000349C3185A540020DCE70720F2
:10A3B000DAE7C046C4220020E0231D4ADB00D25861
:10A3C0001C4B1A400023C10701D5C0239B02134335
:10A3D000E0221749D2008B50174B9A58154B1A4060
:10A3E0000023810701D5C0239B021343E0221249B9
:10A3F000D2008B50114B9A580E4B1A400023410744
:10A4000001D5C0239B021343E0220C49D2008B509C
:10A410000B4B9A58074B1A400023010701D5C02364
:10A420009B021343E0220649D20000208B50704764
:10A4300044000050FFFFFCFF480000504C0000505B
:10A440005000005008B50320FFF7B6FF031C0020A2
:10A45000002B02D0062B00D0181C08BD10B50388B5
:10A46000102B08D0112B05D1294A1368013B13602A
:10A47000002B07D010BD264C2368002B11D00133D0
:10A480002360F7E7002002210122FFF769FF00287F
:10A490002BD0072829D01F4B1B68002BEAD09847E8
:10A4A000E8E7002000210122FFF75AFF002808D02A
:10A4B000072806D0174B1B68002B00D0984723684D
:10A4C000DDE7012002210722FFF74AFF002801D023
:10A4D0000728EFD1002002210422FFF741FF0028C6
:10A4E000EDD00728E6D12368C9E701200221072221
:10A4F000FFF736FF002801D00728CCD1002000212B
:10A500000A22FFF72DFF0028B4D00728C3D1B1E7F6
:10A51000D4220020D022002010B5244B82B00C1E83
:10A52000186018D06B460020991DFFF7D9FC002851
:10A5300001D002B010BD6B460130D91DFFF7D0FC31
:10A540000028F6D16B46DB79002B29D16B469B792D
:10A55000002B28D12370164B1B68002B01D0002044
:10A56000E7E7002002210122FFF7FAFE002801D0D0
:10A570000728DED1012002210722FFF7F1FE002883
:10A5800001D00728D5D1002000210A22FFF7E8FEDC
:10A590000028E4D0C31F5A1E93415B421840C8E70D
:10A5A00002232370D7E70B232370D4E7D0220020A7
:10A5B000D422002076DF70477ADF70477CDF704757
:10A5C0007FDF7047A9DF704760DF70473CDF70476F
:10A5D00048DF704708B500210022FDF717FF08BDCE
:10A5E00070B50D1C161C0024002A07D0285DFEF74C
:10A5F00075FC0028FAD10134B442F7D30A20FEF7E3
:10A600006DFC0028FAD170BD08B50378002B00D08E
:10A6100008BD064B3B211888FFF7CCFF0028F7D078
:10A6200000210022FDF7F2FEF2E7C046682000207C
:10A6300010B5041C01F0BEFC2448211C01F018FDDB
:10A640002388112B2DD021D9132B11D0522B08D1B7
:10A650001F4B0021188800220023FFF7B3FF0028BA
:10A660000FD1201C01F0F8F9201CFFF7F7FE10BDF8
:10A67000174B8521188800220023FFF7A1FF00282F
:10A68000EFD000210022FDF7C1FEEAE7102BE8D150
:10A690000720FFF73BFC002812D1A2880C4B1A8040
:10A6A000DFE70020FFF732FC002804D10122084B2D
:10A6B00052421A80D5E700210022FDF7A7FEF5E7F8
:10A6C00000210022FDF7A2FEE7E7C046FC2600209D
:10A6D0006820002008B5072820D00A2810D00428B8
:10A6E00000D008BD144B13211888FFF763FF08231F
:10A6F000021C9A43F5D000210022FDF787FEF0E707
:10A700000020FFF703FC002810D1FFF79BFE002874
:10A7100007D1FFF75BFF0028E3D0ECE701F0F4F985
:10A72000E5E700210022FDF771FEF2E7002100229B
:10A73000FDF76CFEE9E7C0466820002038B50378D5
:10A74000012B03D0002B07D0022B04D1406800213D
:10A750000022FDF75BFE38BD104C114D2078281803
:10A76000FEF7A2FB22780132D2B2AB18013B1B7874
:10A7700022700A2B01D0132AEDD992B20948291C64
:10A7800001F0AAFD0823021C9A4303D000210022F5
:10A79000FDF73CFE00232370DDE7C04618270020AC
:10A7A000A0260020FC26002008B5002807D003289A
:10A7B00004D10138FFF7AAFB00280DD108BD002005
:10A7C000FFF7A4FB00280CD1FFF73CFE00280DD1B9
:10A7D000FFF7FCFE0028F1D000210022FDF716FE55
:10A7E000ECE700210022FDF711FEEDE70021002239
:10A7F000FDF70CFEECE7C04608B5031C0A1C024836
:10A80000191CFDF703FE08BDEFBEADDEF0B5ABB021
:10A8100002AF3A1C824B03CB03C21B88002013807B
:10A820000521804A0023FEF707F9002803D0002104
:10A830000022FDF7EBFD0EAD2A1C7B4B13CB13C2A0
:10A840007A4B7B4A1C9380231CAC5B006360A26044
:10A85000E360281C211C774AFD3BFEF7D3FA002851
:10A8600003D000210022FDF7D1FD03207249734A75
:10A87000FFF716FD002803D000210022FDF7C6FDDA
:10A880000020211CFFF748FE002803D000210022F1
:10A89000FDF7BCFD08206A494822002301F016FE9E
:10A8A000002803D000210022FDF7B0FD0822201C63
:10A8B0000021FDF7ADFC01222378201C9343237077
:10A8C000FFF782FE002803D000210022FDF79EFD45
:10A8D0005C4801F021FE002803D000210022FDF792
:10A8E00095FD0F2101222B78574E8B4313431022E5
:10A8F0000B401343301C2B7001F012FF311C82B24D
:10A90000281CFFF75BFE002803D000210022FDF782
:10A910007DFD201C00210822FDF77AFC10232380F6
:10A920002C3363800023A3809133FF33201CE3800A
:10A93000FFF742FE002803D000210022FDF766FD4C
:10A940000021201C0422FDF763FC404B4048211CE1
:10A950001C9301F0BDFB002803D000210022FDF76D
:10A9600055FD00213822281CFDF752FC0223002649
:10A9700038222B7000210333201CEB70AE70FDF7E2
:10A9800047FC01232382334B05AA63610123D66070
:10A99000137340231361743353615660966096615C
:10A9A000D6611662281C0096211C2B4B059600F0E0
:10A9B0004FFE002803D000210022FDF727FD1C22B6
:10A9C000201C0021FDF724FCA02292026260F022EC
:10A9D00000231203A26003221C93E38123741F4B04
:10A9E000201C63611E4B2273A36101F0A7FA0028AB
:10A9F00003D000210022FDF709FD1A48391C01F09F
:10AA000075FE032000F0C8FE002803D1FFF7E0FD2B
:10AA10000028FBD000210022FDF7F8FCF6E7C04635
:10AA2000D4D60100D8230020B8D60100A0250020EC
:10AA3000D82200203DA70100CD0C0000D5A60100C2
:10AA4000B426002031A60100C4D60100E1A5010012
:10AA5000FC26002064200020A9A7010009A601000F
:10AA6000D5A50100D0D6010071DF704772DF7047B5
:10AA700079DF70477DDF704765DF7047F0B5048888
:10AA8000051C83B00720012C04D01488A01C984218
:10AA900002D90C2003B0F0BD2E78012E04D16E78BF
:10AAA00002363619B342F4D3023B1C1B6B460F1C13
:10AAB000A4B20818991D161CDC80FFF7DBFF0028E4
:10AAC000E8D12B78022B18D0012B11D0231C0821A0
:10AAD000FE2BDED83288581CB85432880020013250
:10AAE00092B23280B954328801329B183380D1E758
:10AAF0006B789C42EBD2231CE9E76B46DB8809218B
:10AB00009C42E5D2231CE2E7F0B55F465646444638
:10AB10004D46F0B485B09A460EAB80CB061C1B8820
:10AB200000919B463B88904601930388002B5BD0A5
:10AB30000023994602AB0024DD1C03E03388013476
:10AB4000A3422ADD7368A1009C460422614403A845
:10AB500001F0C2FD03A8291C0022FFF78DFF002889
:10AB600026D12B784345E9D14B46002B27D04346CD
:10AB70003A88D3185B4539DC524403A8291CFFF7F7
:10AB80007BFF002814D13B882A780134D3183B80FE
:10AB9000012399463388A342D4DC4B46002B23D0B3
:10ABA0003B88019A013B9B1A9BB20C20FF2B18D9C2
:10ABB00005B03CBC90469946A246AB46F0BD424625
:10ABC0003B889A1802325A4510DC694652460133D6
:10ABD00009789BB23B80D1543A88013292B23A80D4
:10ABE000CAE7111C524653540020E1E70C20DFE76E
:10ABF000F0B55F4656464D464446031C0020F0B46F
:10AC000017881080586B87B0002800D16FE1047856
:10AC1000022F18D90220112508701088013080B247
:10AC200010800D541088013080B210800C541488AC
:10AC30000134A4B21480186B002800D177E0251CE1
:10AC40001235BD4207D90C2007B03CBC904699464E
:10AC5000A246AB46F0BD11250D551488013D0134C7
:10AC6000A4B214800D5514880134A4B21480C57B9D
:10AC70000D5514880134A4B21480857B0D551488B9
:10AC80000134A4B21480457B0D5514880134A4B25C
:10AC90001480057B0D5514880134A4B21480C57A44
:10ACA0000D5514880134A4B21480857A0D5514888A
:10ACB0000134A4B21480457A0D5514880134A4B22D
:10ACC0001480057A0D5514880134A4B21480C57916
:10ACD0000D5514880134A4B2148085790D5514885B
:10ACE0000134A4B2148045790D5514880134A4B2FE
:10ACF000148005790D5514880134A4B21480C578E8
:10AD00000D5514880134A4B2148085780D5514882B
:10AD10000134A4B2148045780D5514880134A4B2CE
:10AD200014800078085514880134A4B214802E20B1
:10AD30001D5C002D00D0DCE01E1C2D23F35C151CD7
:10AD40008846002B00D0F7E0B378002B00D024E138
:10AD5000F378002B16D0E21CBA4200D973E7022226
:10AD6000414640460A5501212A88013292B22A8082
:10AD700081542A88013292B22A8083542C8801346B
:10AD8000A4B22C807368002B16D01A78E31CBB4247
:10AD900000D958E70223414640460B550A212B882B
:10ADA00001339BB22B80C1542B8801339BB22B8083
:10ADB000C2542B8801332B803389002B00D010E143
:10ADC000338A002B00D076E1338B002B00D08BE14F
:10ADD000336A002B4AD02A880C20911DB94200D931
:10ADE00032E7198805388B46052900D82CE7CC4C6A
:10ADF0005C44A4B2A146CB4CA446A14500D823E7AD
:10AE00005C88A246052C00D81EE7C54C6946A146C1
:10AE1000D1444C46CC81CC89644500D814E7C24C5F
:10AE2000A34504D0A24502D0D34500D90CE70521A3
:10AE3000404681542A880D31013292B22A808154D1
:10AE40002A88013292B22A80198842441170090A74
:10AE500051702A88023292B22A805988131C4344C6
:10AE60001970090A59702B8802332B80746A002CE0
:10AE700032D0A2882988131D5B180C20BB4200D950
:10AE8000E2E6931CFE2B00D9DEE6434603325A5419
:10AE9000FF2241462B8801339BB22B80CA542B885A
:10AEA00001339BB22B80228843441A70120A5A70D5
:10AEB0002B8802339BB22B80A288002A0CD0A16879
:10AEC0000538002900D1BFE64344181C01F004FCFA
:10AED0002A88A388D3182B802C23F35C002B00D066
:10AEE00098E03378002B00D0DEE00020ACE60024B0
:10AEF000A1E6E61C2238BE4200D9A5E602260E5580
:10AF00001C241088013080B210800C54108801304D
:10AF100080B21080022D00D10FE100D806E1032D90
:10AF200000D108E1042D00D0F7E003240C5414886C
:10AF30000134A4B21480FFE609340C20BC4200D9CD
:10AF400082E604A8FFF790FD002800D07CE6414689
:10AF500008222B88CA542B88133201339BB22B80D2
:10AF6000CA5402AB9C4609212888153A013080B2A8
:10AF700028806144404401F0AFFB2B8802AA0633CD
:10AF8000127A9BB22B80002A00D001224146CA547B
:10AF90002C880134A4B22C80D6E604340C20BC42A8
:10AFA00000D951E604A8FFF763FD002800D04BE666
:10AFB000032241462B88CA542B88163201339BB298
:10AFC0002B80CA542B8802AA01339BB212892B8092
:10AFD00043441A70120A5A702C880234A4B22C808E
:10AFE000B6E6341C083400950197201C0221022289
:10AFF0004346FFF789FD002800D025E6009501971C
:10B00000201C062110224346FFF77EFD002800D0B9
:10B010001AE6D5E6B46A002C00D17EE0A38802339C
:10B02000FE2B00D90FE600229146163292461632C8
:10B03000288893460BE04B465C00B36A4C449C4620
:10B04000A4006444A3880233FE2B00D9FBE54246EA
:10B050005146013313542B8801339BB22B80D154BA
:10B060002B8801339BB22B80228843441A70120A2A
:10B070005A702888023080B22880A288002A0AD01C
:10B08000A168002949D0404401F026FB2888A38804
:10B09000C01880B228804B460133DBB299465B462C
:10B0A000F35C4B45C7D81CE7301C41462A1C3B1CAF
:10B0B000FFF7E4FCC8E5341C103400950197201C10
:10B0C000032102224346FFF71FFD002800D0BBE505
:10B0D00000950197201C072110224346FFF714FD1D
:10B0E000002800D0B0E56FE6341C183400950197B5
:10B0F000201C142102224346FFF706FD002800D041
:10B10000A2E500950197201C152110224346FFF768
:10B11000FBFC002800D097E55AE6072094E5C046DE
:10B120007FF3FFFF7DF30000FFFF0000012DF4D14E
:10B1300000240C54FBE60E54F9E601240C54F6E608
:10B14000F0B54E46574645461F23E0B496B002AAD6
:10B15000041C0E1CD381002800D171E0C3785B076A
:10B1600067D5002302AA9381436B002B00D13EE1F7
:10B170001B78022206ADAB700323032705210420B0
:10B180002A700F326A7002AA9381226B002A3AD089
:10B19000112306ADEB55013B2B54D37B6B54907BB5
:10B1A0004B1CE854507B8B1CE854107BCB1CE854A0
:10B1B000D07A0B1DE854907A4B1DE854507A8B1DC1
:10B1C000E854107ACB1DE854D0790133E8549079D3
:10B1D0000133E85450790133E85410790133E854CD
:10B1E000D0780133E85490780133E854013302A851
:10B1F00083815078E854013302A883811278EA549D
:10B20000013383819BB22E22A25C002A00D0F1E19F
:10B210002D22A25C002A00D011E1A278002A00D0E1
:10B220003DE1E278002A35D0D91C1F2925D90C2010
:10B2300000E0072016B01CBC90469946A246F0BD1F
:10B24000002502AB9881002E00D1D4E0F378002BCA
:10B25000EFD102AA94460E236344301C0EA91A1C97
:10B26000FFF7C6FC0028E5D102AB9B7B0EAA02A922
:10B27000097B281CFFF7FAFBDCE70220012706AD5B
:10B28000E854581C02339BB280B22F54EA548BB25C
:10B2900002AA93816268002A0FD01078DA1C1F2A54
:10B2A000C5D802210A2706ADE954591C02339BB2C6
:10B2B00089B26F54E85402AB9A812389002B00D0E5
:10B2C0009EE0238A002B00D00AE1238B002B00D0C4
:10B2D00025E1236A002B43D002AA92890C20911DFC
:10B2E0001F29A7D81888824655460720052DA1D9C1
:10B2F000D24D5544ADB2AC46D14DA846AC4599D9D6
:10B300005D88A946052D00D894E7CC4D6F46AC4624
:10B31000CC446546FD81FD89454500D88AE7C94D85
:10B32000AA4504D0A94502D0CA4500D982E7052024
:10B33000122706ADA854501C80B22F54901C80B226
:10B3400002AFB8811F88281807703F0A477004327F
:10B350005B8892B2AD182B701B0A6B7002AB99819F
:10B36000676A002F2FD0BB880C20991C02AB9B89E9
:10B370009A1C55181F2D00D95CE7FE2900D959E702
:10B3800006AD0131E954591C89B2F330685492B2C8
:10B3900002A98A813988AA180433117098B2090A5F
:10B3A00002AB51709881BA88002A0CD0B968002984
:10B3B00000D13EE7281801F08FF902ABBA889B89CB
:10B3C000D31802AA93812C23E15C002900D0C5E0A8
:10B3D00006AD2378002B00D135E7201C291C05AAD7
:10B3E0001F23FFF74BFB002800D12CE722E70027A3
:10B3F00002210120C9E602ABDE810022002336E7EC
:10B4000005AB271C00931F23083706AD9846019310
:10B41000381C022102222B1CFFF776FB002800D0EB
:10B4200008E705AB00934346381C01930621102220
:10B430002B1CFFF769FB002800D0FBE641E709332E
:10B440000C201F2B00D9F5E60EA8FFF70DFB0028F6
:10B4500000D0EFE6082202AB9B8906ADEA545A1CE5
:10B46000023398B21B2102AB9C4692B2A95416310A
:10B47000988161440622281801F02EF9302002AB91
:10B4800002A99B89091809789A1D92B2002900D057
:10B4900001210733A9549BB202AA9381BDE604336C
:10B4A0000C201F2B00D9C5E60EA8FFF7E1FA0028F3
:10B4B00000D0BFE60322192102AB9B8906ADEA54F6
:10B4C0005A1C92B2A95402AA118E9A1C92B2AD18BB
:10B4D000043329709BB2090A02AA69709381A0E61D
:10B4E00005AB271C00931F23103706AD9846019328
:10B4F000381C032102222B1CFFF706FB002800D07A
:10B5000098E605AB00934346381C019307211022AF
:10B510002B1CFFF7F9FA002800D08BE6D5E605AB27
:10B52000271C00931F23183706AD98460193381C3B
:10B53000142102222B1CFFF7E7FA002800D079E63D
:10B5400005AB00934346381C0193152110222B1C98
:10B55000FFF7DAFA002800D06CE6BAE6A76A002FF7
:10B5600000D166E6BB880233FE2B00D95FE602AA53
:10B57000908900229046163291461632924606ADC8
:10B580004A4601332B54431C9BB2EA54831C9BB2A2
:10B5900002AA93813A88EB181A700430120A5A7082
:10B5A00080B202AB9881BA88002A0FD0B96800290E
:10B5B00000D13EE6281801F08FF802AB9B89B888CD
:10B5C000C01880B202AB98815346E15C4346013318
:10B5D000DBB298468B4200D3FBE643465F00A36A8A
:10B5E00047449C46BF006744BB880233FE2BC7D943
:10B5F0000C201FE602201C27591C06AD89B2E85416
:10B600006F54191889B282420CD010D9032A0CD079
:10B61000042A00D00DE603226A5403339BB202AA27
:10B620009381F5E501226A54F7E76854F5E7012AAA
:10B6300000D0FEE500226D182A70EEE77FF3FFFFD1
:10B640007DF30000FFFF000073DF704774DF704779
:10B65000F8B5051C0E20002D00D17DE0002A00D198
:10B660007AE000200F1C3D4908703D490B600699A7
:10B670003C4B19603C490B1C13CA13C313CA13C3B8
:10B6800013CA13C3002107223848FCF7C1FD384B09
:10B69000384A394E1A60394A00219A60301C3822E3
:10B6A000FCF7B6FD2B782A1C3370AB781032B370E0
:10B6B000EB78F3706B787370331C103303CA03C3D9
:10B6C000331C103A083303CA03C3331C083218333F
:10B6D00003CA03C36B6A002B11D0294B294C736238
:10B6E000696A9C600A881A8088889880002806D039
:10B6F00000238A68D25CE25401338342F9D1AB6AF9
:10B70000002B14D0204B2148B362A96A98608C8822
:10B710009C800A881A800023002C05D08A68D25C9D
:10B72000C2540133A342F9D12C23EA5CF2542B6AB0
:10B73000002B06D0164B33622A6A51885980128832
:10B740001A806B68002B03D0124B73606B687360B8
:10B75000301C391CFFF7F4FCF8BDC0462C28002033
:10B7600060270020842700209027002088270020C1
:10B77000D8270020B42700201C2700200C280020F8
:10B78000542700206427002034280020E8270020C8
:10B7900030280020D4270020F0B50024A34D89B024
:10B7A000287001A80194FEF747F9082809D000285D
:10B7B00005D1019B002B05D001229D4B1A7009B0C9
:10B7C000F0BD01949B4F0021381C0722FCF720FD9F
:10B7D000994E7378002B58D02B78012B05D0B27876
:10B7E000002A00D1FCE0022B0FD1944A1268002AF3
:10B7F00000D106E10121924B0820197090472B7867
:10B80000012B00D18DE0022B49D0327B002A01D1DF
:10B81000032B65D0327E002A01D1042B65D0874AE4
:10B820001268002A03D0033B012B00D899E00022C4
:10B83000844B1A7002AC1822201C0021FCF7E8FC93
:10B8400000232A78237063602372E360022A00D108
:10B85000BCE04FD9032A00D1A5E0042A00D09FE024
:10B86000B38B2382338C6382774B1A79002A00D101
:10B87000BCE03278002A04D0744A1278002A00D141
:10B88000C2E00422724B1A703CE0B378002BB6D0B1
:10B890002B78022BA9D0012BB7D102232B70B378C0
:10B8A000002B17D07B78002B00D0A8E0BB78002BB2
:10B8B00000D0A4E0FB78002B00D0A0E03B79002B67
:10B8C00000D09CE07B79002B00D098E0BB79002B66
:10B8D00000D094E003232B70337B002B00D083E057
:10B8E00004232B70337E002B36D10023584A2B7053
:10B8F00013709CE7012A53D163822382544B676003
:10B9000022701A70201CFFF79FFE002800D056E717
:10B910004A4B1B68002B02D04D4A107898470020F4
:10B920004DE77278002AB8D07A78002A00D076E7FE
:10B93000BA78002A00D072E7FA78002A00D06EE7C1
:10B940003A79002A00D06AE77A79002A00D066E7BF
:10B95000BA79002AA1D062E7384B1A68002A00D1D0
:10B9600065E73378002B00D161E7384B1B78002B5B
:10B9700000D05CE70121334B07201970904759E74D
:10B98000E36004233348023200212272C370FFF7C0
:10B99000D7FB002800D012E705222D4B1A702A7819
:10B9A000002AB5D0AEE7B38A6382338A2382264B5E
:10B9B0001A79002A1FD03278002A03D0234A12783D
:10B9C000002ADDD00322224B1A709BE7012323704B
:10B9D000338967606382736823821D4B1A7091E715
:10B9E000022B00D011E775E7032318E71A7B002A22
:10B9F00000D03EE745E71A7B002ADCD1E2E70223CC
:10BA00000DE70F490A70FBE6E36004231148023298
:10BA100000212272C370FFF793FB002800D0CEE60E
:10BA200006220B4B1A702A78BAE7C0462C28002051
:10BA30002D28002088270020902700206027002044
:10BA40000728002008280020D8270020832700206E
:10BA5000402800201C27002008B50388112B1DD08A
:10BA6000192B06D0102B00D008BD8288204B1A80DD
:10BA7000FAE78279002AF7D11E4B1B78022B30D0CF
:10BA800027D9032B1DD0042BEED11B4B1A701B4B57
:10BA90001B68002BE8D000209847E5E70022184BF0
:10BAA0001A70134B82881B889A42DDD10120FFF760
:10BAB00073FE0028D8D0134B1B68002BD4D09847B6
:10BAC000D2E70D4A04201370FFF766FE0028F2D17A
:10BAD000CAE7012BC8D10220FFF75EFE0028EAD199
:10BAE000C2E70320FFF758FE0028E4D1BCE7C046B8
:10BAF0006A2000202C2800204028002060270020F9
:10BB00008327002084270020F0B5474680B4BB4C33
:10BB100088B02378002B00D1A1E0B94D2B78002B01
:10BB200000D09CE0B74F3B78002B00D09CE0002376
:10BB3000012601A82E7098460193FDF77DFF082885
:10BB400008D0002800D095E0019B002B04D0AE4B1C
:10BB50001E7085E043460193AC4B0021181C072260
:10BB60009846FCF755FB6378002B00D088E0A3785B
:10BB7000002B00D197E03B78022B00D189E0012B0C
:10BB800000D096E002233B70A378002B1DD04346E3
:10BB90005B78002B00D01DE143469B78002B00D042
:10BBA00018E14346DB78002B00D013E143461B79B4
:10BBB000002B00D00EE143465B79002B00D009E159
:10BBC00043469B79002B00D004E103233B70237B89
:10BBD000002B00D172E003238D4A1268002A03D0A3
:10BBE000033B012B00D873E000228A4B1A7002AE8F
:10BBF0001822301C0021FCF70BFB00233A7833702D
:10BC000073603372F360022A00D1BCE000D879E09F
:10BC1000032A00D1C2E0042A00D0B0E0A38B338213
:10BC2000238C73827C4B1A79002A02D11A7B002A5A
:10BC300006D02278002A03D02A78002A00D1CBE04F
:10BC40000422764B1A70301CFFF7FEFC002811D13D
:10BC50006F4B1B68002B02D0704A10789847002069
:10BC600008B004BC9046F0BDFFF7F0FC002800D1FE
:10BC70005DE7F5E76A4B1B68002BF0D09847EEE7CD
:10BC80003B78012B05D0A278002A00D19BE0022B43
:10BC90000FD15F4A1268002A00D198E00121614B60
:10BCA0000820197090473B78012B35D0022B00D12A
:10BCB0006AE7227B002A19D1032B17D104233B709A
:10BCC000237E002B19D0524B1A68002A00D18BE733
:10BCD0002378002B00D187E72B78002B00D083E757
:10BCE00001214C4B07201970904780E7227E002AE3
:10BCF00000D071E7042B00D06EE70023474A3B7069
:10BD0000137071E7012A3AD1414673823382434B63
:10BD1000716032701A7096E76278002A00D131E7BC
:10BD200042465278002A00D056E742469278002ACE
:10BD300000D051E74246D278002A00D04CE7424674
:10BD40001279002A00D047E742465279002A00D0F3
:10BD500042E742469279002A00D113E73CE7F360BC
:10BD600004233148023200213272C370FFF7E8F930
:10BD7000002800D07EE70522284B1A703A78002A66
:10BD800000D165E75FE74346736001233370238981
:10BD9000738263683382214B1A7054E7A38A7382DB
:10BDA000238A33821C4B1A79002A02D11A7B002A7B
:10BDB00005D02278002A02D02A78002ACFD0032288
:10BDC000164B1A703FE7022B00D072E7FDE61549CB
:10BDD0000A7069E70223FFE6F36004231248023287
:10BDE00000213272C370FFF7ABF9002800D041E7A1
:10BDF00006220A4B1A703A78C1E7C0469027002005
:10BE0000832700202C2800202D28002088270020B0
:10BE10006027002008280020D82700204028002084
:10BE200084270020072800201C27002075DF70478A
:10BE300076DF70477ADF70477BDF704710B5184BAD
:10BE400082B01888174B984214D0174A174C1378B1
:10BE50000133DBB21370217B99420DD200231370A2
:10BE6000237C002B12D16369002B03D0002201A890
:10BE70000270984702B010BD0D49FFF7D7FF0028A8
:10BE8000F8D0A369002BF5D09847F3E73B21FFF7E3
:10BE9000CFFF0028E7D0A369002BE4D09847E2E762
:10BEA0008C280020FFFF00004C2800205028002094
:10BEB0009028002030B51B4B1B4A5B88118883B04B
:10BEC00099420FD852889A420CD3184B5B69002BC9
:10BED00003D0012201A802709847154C002323705B
:10BEE00003B030BD124C2378002B08D00F4B5B6998
:10BEF000002BF3D0002201A802709847EEE70D4B0B
:10BF00000A4D1B78002B0BD0A9680B480022FCF7C8
:10BF10001FFE0028E2D0AB69002BDFD09847DDE799
:10BF20006968F2E74428002090280020502800206B
:10BF3000412800204C2800206C280020164938B5E4
:10BF4000021C0B1C32CA32C332CA32C312681A60D6
:10BF50000022124B01681A70002916D0104C0832CA
:10BF6000201C00F0B9FB201CFFF764FF00280BD158
:10BF700001220C4B52421A8000220B4B0B481A70C4
:10BF800000210B4AFCF7CAFD38BD0548FFF754FFF6
:10BF90000028EDD0F8E7C0465028002041280020B6
:10BFA000902800208C2800204C280020E0D601009A
:10BFB0003DBE010010B50388112B35D021D9122BBD
:10BFC00017D0502B1CD1214CC288E3899A4217D13B
:10BFD000C38B022B14D11E33C35CDB070ED41C4869
:10BFE000FCF734FE00280BD0A369002B08D098473B
:10BFF00006E0811D0822174800F06EFBFFF75AFF8C
:10C0000010BD102BFCD1011C8288134B16311A80F5
:10C010001048082200F060FB0022104B1A700B4BF6
:10C02000DB89002BECD1E9E701220B4B52421A804D
:10C0300000220A4B06481A70FCF708FE0028DFD0E1
:10C04000024B9B69002BDBD09847D9E75028002092
:10C050006C280020442800208C2800204C28002038
:10C06000A0DF7047A2DF7047A6DF704763DF70472D
:10C0700010B5002808D0002906D00B88112B16D047
:10C08000502B02D0102B0FD010BDCB88028A9A42C1
:10C0900011D082889A42F7D18469002CF4D00B1C0D
:10C0A0002031DA8BA047EFE78B888382ECE701230E
:10C0B0005B428382E8E7CA8B022AEAD12023CA5C6A
:10C0C0001F3B134002D001238375DDE78375DBE757
:10C0D000F0B54D465F46444656461023F0B495B041
:10C0E000041C0D1C04A87B49102299460E2700F061
:10C0F000F3FA002C0ED0002D0CD001235B42A3825A
:10C100002B6804A8A3610023211CA375FFF7AEFFD1
:10C11000071E07D0381C15B03CBC90469946A24675
:10C12000AB46F0BD237802A98B700123A21C01202D
:10C130000B80FFF795FF071EECD100210322684614
:10C14000FCF766F86B460F221B7892469343012258
:10C1500093465A4613435246134010229046424695
:10C1600013436A4613705378524693435A46134317
:10C1700052461340424613436A4653709378062250
:10C180009343043A13436A460DAD937000211C2279
:10C19000281CFCF73DF842462B7801AE13432B7068
:10C1A0006B466A466B612378002193730323301C2E
:10C1B000938103226F60EF602F61AF61FCF728F875
:10C1C00052463378002193435A4613435246134054
:10C1D0004246134352463370737808A893435A4635
:10C1E0001343524613404246134306227370B378FA
:10C1F0009343043A1343DBB2063293434A469343D4
:10C200005A4613431422B370FCF702F803AB0893A9
:10C2100001226B461A8514225F859A85231C60884B
:10C22000291C08AA0C330996FFF71CFF071E00D033
:10C2300070E700211C22281CFBF7EAFF08232A785C
:10C2400000211343042213436A462B702378301CC9
:10C2500093730223938103226F60EF602F616F61FC
:10C26000AF61FBF7D5FF52463378002193435A461E
:10C270001343524613404246134352463370737879
:10C2800008A893435A461343524613404246134369
:10C2900006227370B3789343043A1343DBB2063239
:10C2A00093434A4693435A4613431422B370FBF711
:10C2B000AFFF03AB089301226B461A8514225F85FA
:10C2C0009A856088231D291C08AA0996FFF7CAFED3
:10C2D000071C1FE7E4D6010070B586B06B46041C4E
:10C2E0000D1CDA80002809D0828A114B08209A425E
:10C2F00002D0A37D002B03D106B070BD0E20FBE75A
:10C300006B46DB880138142BF6D802AE301C0021B6
:10C310001022FBF77DFFA389A08A33806B4606338A
:10C32000B3600123311CF560B370FFF79DFEE3E7B6
:10C33000FFFF00001F4B1B78012B00D070471E4BE6
:10C340001B681B07FAD1F0221C4B1B68134018D145
:10C350001B4B1B6813421AD0174B1B681B07EDD1F0
:10C36000F022164B1B681340402BE7D1144B1B687F
:10C370001342E3D1C12380220121DB00D205D15039
:10C38000DCE7102B0FD10E4B1B681342E8D10D4A8E
:10C390000D4B1A6080220D4B12021A60054B1B7860
:10C3A000012BD9D0CAE7302BDAD1054B1B681342D9
:10C3B000D6D1ECE7E00F00F0E40F00F0E80F00F05A
:10C3C000EC0F00F0DFFF07C004050040186C0040D0
:10C3D0002EDF704751DF704710DF704761DF704715
:10C3E00008B5081C111CFEF707FA08BDF0B5574642
:10C3F0004E464546E0B4314B314E1D6899466B427E
:10C400005D41304BB2461C68984663425C412E4FFA
:10C4100082B0EDB2E4B2002D08D0002C27D002B0DB
:10C420001CBC90469946A246F0BD012401A8FFF726
:10C43000D1FF052831D000282AD000210022FBF7A7
:10C44000E5FF002CF1D16A461D4B01A91B889380A2
:10C450001D4B1C68201CFFF7C1FF0528E5D00028F4
:10C4600010D000210022FBF7D1FF0024D3E73C6865
:10C47000338801A9201C0B80FFF7B0FF0528CED020
:10C480000028EED14346201C1B6898470024C2E7D1
:10C490004B4601981B689847D3E7002CBFD1534601
:10C4A0006A461B8801A99380074B01251C68201C44
:10C4B000FFF794FF0528D2D1B1E7C046A02800209D
:10C4C0009A280020A42800209C28002038B5041CAD
:10C4D0000720002901D08D0700D038BD0948016030
:10C4E0000949201C0A80094A09491360FFF774FFB3
:10C4F0000028F2D10122074B16301A70FFF768FFAF
:10C50000EBE7C0469C2800209A280020A82800209D
:10C51000E1C3010098280020002803D0024B1860D6
:10C52000002070470E20FCE7A428002008B50A4B25
:10C530001B68002B08D09847002800D108BD0021B7
:10C540000022FBF763FFF9E7044B1B78002BF5D0C3
:10C55000FFF74CFFF2E7C046A828002098280020EB
:10C5600003210A4802680A430260094802680A4334
:10C5700002600849084A094B9B1A03DD043BC8586E
:10C58000D050FBDC064880470648004724050040A1
:10C590005405004090D701000020002074200020A6
:10C5A00035C3010021810100FEE7FEE7FEE7FEE75B
:10C5B000FEE7FEE7002243088B4274D303098B4257
:10C5C0005FD3030A8B4244D3030B8B4228D3030C63
:10C5D0008B420DD3FF22090212BA030C8B4202D305
:10C5E0001212090265D0030B8B4219D300E0090A2D
:10C5F000C30B8B4201D3CB03C01A5241830B8B4236
:10C6000001D38B03C01A5241430B8B4201D34B031E
:10C61000C01A5241030B8B4201D30B03C01A524183
:10C62000C30A8B4201D3CB02C01A5241830A8B4208
:10C6300001D38B02C01A5241430A8B4201D34B02F1
:10C64000C01A5241030A8B4201D30B02C01A524155
:10C65000CDD2C3098B4201D3CB01C01A5241830909
:10C660008B4201D38B01C01A524143098B4201D343
:10C670004B01C01A524103098B4201D30B01C01A6E
:10C680005241C3088B4201D3CB00C01A52418308E8
:10C690008B4201D38B00C01A524143088B4201D315
:10C6A0004B00C01A5241411A00D201465241104675
:10C6B0007047FFE701B5002000F00CF802BDC0464E
:10C6C0000029F7D003B5FFF775FF0EBC4243891A66
:10C6D0001847C0467047C046002310B5934203D0A8
:10C6E000CC5CC4540133F9E710BD00000FB40B4B10
:10C6F00013B51C68002C05D0A369002B02D1201CA7
:10C7000000F058F805AB201CA168049A019300F0D2
:10C7100063F916BC08BC04B01847C046602000206E
:10C720000023C25C0133002AFBD1581E7047000071
:10C7300008B5024900F0AEF808BDC046B9D2010004
:10C74000002310B5041C036043608360818143664D
:10C75000C281036143618361191C08225C30FBF7CD
:10C7600057FD054B24626362044BA362044BE362F2
:10C77000044B236310BDC04629CF010051CF0100F7
:10C7800089CF0100B5CF010070B568254B1E5D4310
:10C790000E1C291C743100F09FF8041E08D00021E3
:10C7A0002A1C016046600C30A0606832FBF730FD47
:10C7B000201C70BD836913B5002B28D18364C3642A
:10C7C0000365134B134A1B6882620193984201D19F
:10C7D00001238361041C00F01FF86060201C00F03E
:10C7E0001BF8A060201C00F017F80421E060002274
:10C7F0006068FFF7A5FFA06809210122FFF7A0FFED
:10C80000E06812210222FFF79BFF0123A36113BD01
:10C8100074D5010031C70100F8B51D4B061C1D6819
:10C82000AB69002B02D1281CFFF7C4FF4835AC6868
:10C830006B68013B05D40C22A75E002F10D0683432
:10C84000F7E72B68002B06D1301C0421FFF79CFF73
:10C850002860002801D02D68E9E70C23336016E03A
:10C860000123201C5B42E3810233A38167662760BA
:10C87000A760676027616761A7615C30391C082287
:10C88000FBF7C6FC201C6763A763A764E764F8BDD9
:10C8900074D50100F7B5041C071C0026019148342B
:10C8A000002C16D06368A5680093009B013B0093A1
:10C8B0000DD4AB89012B08D90E22AB5E013304D015
:10C8C000381C291C019B984706436835EDE724680E
:10C8D000E6E7301CFEBD0000032370B5CC1C9C4372
:10C8E0000834051C0C2C01D20C2405E0002C03DAC2
:10C8F0000C2300202B6042E08C42F9D3204A1368BD
:10C90000101C191C002913D00A68121B0DD40B2A05
:10C9100002D90A608B181FE08B4202D15A6802606C
:10C920001BE04A685A600B1C17E00B1C4968E9E7DA
:10C93000144E3368002B03D1281C00F0E3FA30605A
:10C94000281C211C00F0DEFA031C421CD0D003225C
:10C95000C61C964386420AD11C60181C07210B3066
:10C960001A1D8843821A0AD05142995007E0311AA1
:10C97000281C00F0C7FA431CBAD0331CECE770BD8A
:10C98000B0280020AC280020936810B5013B9360CC
:10C99000002B05DA9469A34208DBCBB20A2B05D041
:10C9A0001368581C10601970C8B201E000F008FB51
:10C9B00010BDF8B5061C0F1C141CD518AC4208D0CD
:10C9C0002178301C3A1CFFF7DFFF0134431CF5D1FE
:10C9D00000E00020F8BD0000F0B59FB0061C0F1C61
:10C9E00002920593002804D08369002B01D1FFF740
:10C9F000E1FE794B9F4201D1776808E0774B9F4277
:10CA000001D1B76803E0764B9F4200D1F768BB893C
:10CA10001B070AD53B69002B07D0002306AD6B61CD
:10CA200020336B761033AB763DE0301C391C00F0C0
:10CA300033FB0028F1D001204042CAE0059A111DC5
:10CA400012680591002A7EDB0992013423782E2B8F
:10CA500000D189E021786348032200F0C5FC00285A
:10CA600008D0604B0134C01A40238340181C2B6847
:10CA7000184328602178631C5B48062202932976BC
:10CA800000F0B2FC002800D191E0584B002B00D000
:10CA900084E00722059B07339343083305936B69B2
:10CAA000039A9B186B61029C2378002B04D1029B94
:10CAB000E31A049311D003E0252BF8D00134F3E7F7
:10CAC000049B301C391C029AFFF773FF431C7BD078
:10CAD0006A69049B944663446B612378002B73D08E
:10CAE0000122002352426A6002A9543252180134D2
:10CAF0002B60EB60AB601370AB6521783C4805227E
:10CB000000F072FC002809D0394B0134C01A01230F
:10CB10008340181C2B6818432860EEE72B68DA0660
:10CB200004D55322202102A8121811701A0704D527
:10CB300053222B2102A81218117022782A2A00D120
:10CB40007CE7099B05E05242EA60022213432B6016
:10CB50007BE72278303A092A04D80A214B43013472
:10CB60009B18F6E7099371E763782A2B09D1059B97
:10CB700002341A1D1B680592002B0DDA01235B425B
:10CB80000AE0002301342278303A092A04D80A2125
:10CB90004B4301349B18F6E707935BE705AB009323
:10CBA000301C291C3A1C134B00E000BF07E005AB0A
:10CBB0000093301C291C3A1C0E4B00F08BF803909C
:10CBC000039B013300D06AE7BB895B0600D532E7DF
:10CBD0000B981FB0F0BDC046F4D6010014D7010079
:10CBE00034D701005AD701005ED7010000000000D1
:10CBF00054D70100B3C90100F7B5171C01930A69A6
:10CC00008B6800900C1C934200DA131C221C3B60C2
:10CC100043321278002A01D001333B6023689B061F
:10CC200002D53B6802333B60062523681D401ED0B9
:10CC3000231C43331B785A1E9341226892061CD54D
:10CC40003020E1184031C870211C5A1C4531097848
:10CC5000A21840320233D1700FE0221C0123009849
:10CC600001991932089EB047431C0ED00135E36884
:10CC70003A689B1A9D42F0DBDAE7221C0098019982
:10CC80004332089DA847431C02D10120404220E0C6
:10CC900006232068E1683A6803400025042B03D18D
:10CCA0008D1AEB43DB171D40A3682269934201DD17
:10CCB0009B1AED180027AF420ADA221C01230098C4
:10CCC00001991A32089EB047431CDED00137F2E7C3
:10CCD0000020FEBDF0B58BB006920A1C43320793CC
:10CCE000059004920A7E0C1C109B6E2A00D1A8E0CD
:10CCF00011D8632A22D009D8002A00D1B2E0582ADC
:10CD000000D0C2E045310A707C4A4FE0642A1DD051
:10CD1000692A1BD0B9E0732A00D1A7E009D86F2A8D
:10CD200029D0702A00D0B0E0202209680A4322608E
:10CD300037E0752A1FD0782A33D0A6E00E1C1A6877
:10CD40004236111D196013683370A1E021681A681A
:10CD5000080606D4490604D5111D19600023D55EC6
:10CD600002E0111D19601568002D3BDA2D23049A8D
:10CD70006D42137036E021681A68080606D4490629
:10CD800004D51568111D1960ADB202E0111D1960BE
:10CD900015685A4B227E03930A276F2A1DD1082754
:10CDA0001BE0221C782145321170554A1968039204
:10CDB000081D226818600D68100602D4500600D5C0
:10CDC000ADB2D30702D520231A4322601027002DCD
:10CDD00003D1202322689A432260231C002243337C
:10CDE0001A7002E00A27454B03936368A360002B87
:10CDF00003DB0422216891432160002D02D1049EAF
:10CE0000002B0ED0049E281C391CFFF759FC039BF5
:10CE1000013E5B5C281C3370391CFFF7CBFB051E01
:10CE2000F1D1082F09D12368DB0706D56368226991
:10CE3000934202DC3023013E3370049B9B1B236131
:10CE40002BE009681A68080607D4490605D5111DA4
:10CE500019601368A28A1A8004E0111D1960136812
:10CE600062691A600023049E236116E01A68111D8E
:10CE7000196016680021301C626800F0B5FA0028BD
:10CE800001D0801B6060636803E0261C423632706C
:10CE9000012323610023049A1370079B05980093D4
:10CEA000211C069B09AAFFF7A7FE431C02D1012003
:10CEB000404221E0236905980699321C079DA84746
:10CEC000431CF4D023689B0705D4099BE068984273
:10CED00012DA181C10E00025E368099A9B1A9D429B
:10CEE000F3DA221C0123059806991932079EB047F0
:10CEF000431CDCD00135EFE70BB0F0BD65D7010076
:10CF000076D7010038B50023064C051C081C2360A9
:10CF100000F014FB431C03D12368002B00D02B60CE
:10CF200038BDC046B828002038B50C1C0E25495F16
:10CF300000F0ACFA002803DB636D1B18636503E0A7
:10CF4000A289024B1340A38138BDC046FFEFFFFF0B
:10CF5000F8B51E1C8B89051C0C1C171CDB0505D5A0
:10CF60000E23C95E0022022300F0D2F9A289054BEC
:10CF7000281C1340A3813A1C0E23E15E331C00F0F1
:10CF800077F8F8BDFFEFFFFF38B50C1C0E25495FA1
:10CF900000F0BEF9A389421C03D1054A1340A381C6
:10CFA00004E0802252011343A381606538BDC0466E
:10CFB000FFEFFFFF08B50E23C95E00F0E1F808BDE2
:10CFC00070B5051C0E1C141C002804D08369002BAE
:10CFD00001D1FFF7EFFB234B9C4201D16C6808E0C5
:10CFE000214B9C4201D1AC6803E0204B9C4200D114
:10CFF000EC68A369A360A3891B070AD52369002BEA
:10D0000007D023682269F6B2981A636998420FDB49
:10D0100008E0281C211C00F03FF80028F1D0012076
:10D0200040421DE0281C211C00F046F90028F6D1E2
:10D03000A3680130013BA36023685A1C22601E7064
:10D040006369984205D0A389301CDB0708D50A2EF6
:10D0500006D1281C211C00F02FF90028DFD1301C3C
:10D0600070BDC046F4D6010014D7010034D70100CA
:10D0700038B5051C0020074C2060081C111C1A1C28
:10D08000FBF748FE431C03D12368002B00D02B6024
:10D0900038BDC046B8280020354B70B51D68061C49
:10D0A0000C1C002D05D0AB69002B02D1281CFFF70A
:10D0B00081FB304B9C4201D16C6808E02E4B9C42B6
:10D0C00001D1AC6803E02D4B9C4200D1EC68A389F0
:10D0D0009AB2110723D4D10607D409220120326065
:10D0E00037321343A381404240E0530713D5616BAD
:10D0F000002908D0231C4433994202D0301C00F090
:10D100007FF9002363632422A3899343A38100232F
:10D110006360236923600822A3891343A3812369E1
:10D12000002B0BD1A023A2899B00134080229200E8
:10D13000934203D0301C211C00F0FEF80123A28989
:10D14000134005D00023A36063695B42A36103E041
:10D15000910700D46369A36000202369834205D14D
:10D16000130603D540231A43A281013870BDC0467F
:10D1700060200020F4D6010014D7010034D701004C
:10D1800038B50023064C051C081C236000F0B6F9D6
:10D19000431C03D12368002B00D02B6038BDC04650
:10D1A000B8280020F7B58A89051C0C1C13075ED42B
:10D1B0004B68002B02DC0B6C002B1ADDE76A002F9A
:10D1C00017D000232E682B6080235B011A4001D00A
:10D1D000626D15E0281C216A0123B847021C431C1C
:10D1E0000ED12B68002B0BD01D2B01D0162B02D19A
:10D1F0002E6000205EE04021A3890B43A38159E00B
:10D20000A3895B0706D56368D21A636B002B01D034
:10D21000236CD21A0023281C216AE76AB847A38925
:10D22000421C06D12A68002A03D01D2A01D0162AE2
:10D2300019D10022626022692260DB0405D5431CFB
:10D2400002D12B68002B00D16065616B2E60002934
:10D25000CFD0231C4433994202D0281C00F0D0F8D0
:10D260000020606326E040221343A38122E00F697F
:10D27000002FBED00B680F60DB1B019300239207C9
:10D2800000D14B69A360019B002BB2DD281C216AF1
:10D290003A1C019BA66AB047002806DC4022012008
:10D2A000A38940421343A38104E0019B3F181B1A4A
:10D2B0000193E8E7FEBD000038B50B69051C0C1CA6
:10D2C000002B01D100201CE0002804D08369002B32
:10D2D00001D1FFF76FFA0B4B9C4201D16C6808E05B
:10D2E000094B9C4201D1AC6803E0084B9C4200D141
:10D2F000EC680C22A35E002BE4D0281C211CFFF755
:10D3000051FF38BDF4D6010014D7010034D7010015
:10D3100038B5051C0020074C2060081C111C1A1C85
:10D3200000F004F9431C03D12368002B00D02B60CC
:10D3300038BDC046B8280020F0B58B8991B09B0756
:10D3400006D50B1C47330B600B6101234B6145E095
:10D350000C1C0E23C95E061C002904DA8023A58953
:10D360001D4010D10CE001AA00F0A4F80028F5DB64
:10D37000F023029D1B021D40194BED186B425D41CD
:10D380008027FF0001E000254027301C391CFFF7F3
:10D39000A3FA00280CD1A3899A051FD402221343B3
:10D3A000A381231C4733236023610123636115E0BC
:10D3B00080220C4BB362A38920601343A3812061B8
:10D3C0006761002D0AD00E23E15E301C00F084F866
:10D3D000002803D00122A3891343A38111B0F0BD1B
:10D3E00000E0FFFF31C70100C9B28218904204D0AB
:10D3F00003788B4202D00130F8E70020704700002C
:10D4000030B500293ED004390B68002B00DAC9186A
:10D410001D4A1368141C002B02D14B60116031E0CF
:10D4200099420DD208680A189A4203D11368C318AA
:10D430000B6053684B60216024E08A4203D8131CC0
:10D440005A68002AF9D11D685C198C420BD1096811
:10D45000691858181960904214D110685268091858
:10D4600019605A600EE08C4202D90C23036009E077
:10D4700008680C18944203D11468526800190860B7
:10D480004A60596030BDC046B028002038B5051C40
:10D490000020074C2060081C111C1A1CFBF748FCDC
:10D4A000431C03D12368002B00D02B6038BDC0463D
:10D4B000B828002038B50023064C051C081C111C98
:10D4C000236000F023F8431C03D12368002B00D015
:10D4D0002B6038BDB828002038B50023064C051C49
:10D4E000081C236000F01AF8431C03D12368002BAA
:10D4F00000D02B6038BDC046B8280020582201203B
:10D50000014B40421A607047B82800205822012081
:10D51000014B40421A607047B82800205822024B45
:10D5200000201A607047C046B82800205822012009
:10D53000014B40421A607047B8280020044A136823
:10D54000002B03D018181060181C7047014BF9E726
:10D55000B4280020C0280020F8B5C046F8BC08BC9C
:10D560009E467047F8B5C046F8BC08BC9E4670475A
:10D5700043000000002000209C2000200900000043
:10D580000B0000000A00000008000000000000007E
:10D590000000000000509D00030000000900000092
:10D5A0000B0000000A00000008000000000000005E
:10D5B0000000000000509D0003000000D09C01000E
:10D5C000EC9C0100EC9C0100DC9B0100249C010010
:10D5D000A09D0100E49D01007C9D0100B29B010023
:10D5E000709B0100B29B0100709B01009E9B01009B
:10D5F0007A9C01007A9C01007A9C01007A9C0100CF
:10D600007A9C0100669D01005C9C0100489D010020
:10D610002A9D01009E9B01009E9B010034A00100F9
:10D6200056A0010056A00100E6A001001EA10100C5
:10D63000ACA10100F2A101005AA10100569F010016
:10D64000289F0100569F0100289F0100A4A001000F
:10D65000809F0100809F0100809F0100809F01004A
:10D66000809F0100D69F0100F49F0100C0A001002F
:10D6700086A101001AA001001AA0010011000000FB
:10D680001200000013000000140000007C220020A3
:10D6900011000300899A010012000300899A010019
:10D6A00013000300899A010014000300899A010005
:10D6B00048220020A02200200B09080A01000000D7
:10D6C00000509D004E6F726469635F554152540073
:10D6D0002573000053746172742E2E2E0A00000010
:10D6E0006C2800209ECADC240EE5A9E093F3A3B5C4
:10D6F0000000406E0000000000000000000000007C
:10D700000000000000000000000000000000000019
:10D710000000000000000000000000000000000009
:10D7200000000000000000000000000000000000F9
:10D7300000000000000000000000000000000000E9
:10D7400000000000000000000000000000000000D9
:10D7500000000000232D302B2000686C4C00656613
:10D760006745464700303132333435363738394132
:10D770004243444546003031323334353637383948
:08D7800061626364656600004C
:08D7880098A9FF7F01000000D9
:10D7900000000000F4D6010014D7010034D70100C6
:10D7A0000000000000000000000000000000000079
:10D7B00070D5010000000000000000000000000023
:10D7C0000000000000000000000000000000000059
:10D7D0000000000000000000000000000000000049
:10D7E0000000000000000000000000000000000039
:10D7F0000020002001000200FFFFFFFFE980010080
:04D80000C1800100E2
:040000031000C561C3
:00000001FF
