:020000021000EC
:10B0000000800020A5F50100EDF50100EFF501003D
:10B010000000000000000000000000000000000030
:10B02000000000000000000000000000F1F5010039
:10B030000000000000000000F3F50100F5F501003C
:10B04000F7F50100F7F5010065BF0100F7F5010014
:10B05000F7F5010000000000C9CA0100F7F5010082
:10B06000F7F50100F7F50100F7F50100F7F501002C
:10B07000F7F50100F7F50100F7F50100F7F501001C
:10B08000F7F5010035C20100F7F50100F7F5010001
:10B09000EDC20100F7F5010099F40100F7F5010098
:10B0A000F7F50100F7F501000000000000000000C6
:10B0B0000000000000000000000000000000000090
:10B0C00010B5064C2378002B07D1054B002B02D07E
:10B0D000044800E000BF0123237010BDE81D0020DC
:10B0E00000000000B0FF010008B5084B002B03D0A2
:10B0F0000748084900E000BF07480368002B00D15B
:10B1000008BD064B002BFBD09847F9E70000000074
:10B11000B0FF0100EC1D0020E81D00200000000031
:10B12000164B002B00D1144B9D46402292029A1AD6
:10B13000924600218B460F461348144A121A00F01B
:10B1400067F80F4B002B00D098470E4B002B00D018
:10B1500098470020002104000D000D48002802D06F
:10B160000C4800E000BF00F02DF82000290000F09E
:10B17000D7FA00F011F8C046000008000080002057
:10B180000000000000000000E81D0020482E002004
:10B190000000000000000000084B10B5041C002B4C
:10B1A00002D0002100E000BF054B1868836A002B25
:10B1B00000D09847201C00F033F8C0460000000083
:10B1C00080F901000E4B70B500251E1C0D4CE41AD1
:10B1D000A410A54204D0AB00F35898470135F8E716
:10B1E00004F0C0FB084B00251E1C084CE41AA410F8
:10B1F000A54204D0AB00F35898470135F8E770BD7D
:10B20000E01D0020E01D0020E01D0020E41D0020C6
:10B21000031C8218934202D019700133FAE7704779
:10B22000FEE7C0463CDF704748DF704775DF704778
:10B2300076DF704786DF704787DF704788DF7047AB
:10B24000002370B50D688C88A3420ED2EE18767874
:10B25000E95C864206D10233EB1801391360918014
:10B26000002003E001315B18EEE7052070BD00000F
:10B2700000B597B001A802F089FA002801D000F0CB
:10B2800047FF019B002B03D00122164B1A7027E0C9
:10B29000082202A90B7306AB029313480EAB0A7186
:10B2A0008B6003F04FFE002801D000F031FFFC233B
:10B2B0000E48027813400370A0230381503B438162
:10B2C000002343608381FFF7B5FF002801D000F021
:10B2D0001FFF012002F062FD002801D000F018FFDE
:10B2E00017B000BD741E00204D1E0020641E0020FB
:10B2F00010B5041C023C02F03FF8012C07D8044BA7
:10B300001A78002A03D000221A70FFF7B1FF10BD8F
:10B31000741E0020F0B5041C85B003F065FE4248A1
:10B32000211C03F051F84148211C03F0ADF94048BD
:10B33000211C03F06FFA201C02F012FE23881B2B45
:10B3400004D01D2B65D0192B6BD151E0231C6A460C
:10B350000F330093A37B02AFDB0893800220694682
:10B360003A1CFFF76DFF002801D1002617E00320EB
:10B3700069463A1CFFF764FF002852D1F5E73A68A6
:10B380007300D1184D78D35C2D021D43002029494C
:10B390002A1C00F0A5FE284B9D4205D00136BB8833
:10B3A0005B089E42EBD33CE0FFF746FF021E03D052
:10B3B0000020224900F094FE002002F0EFFC00285B
:10B3C00001D000F0A5FE022200251D49A01D0B782A
:10B3D0004D6093431B4A0B70FFF730FF1A4B021E60
:10B3E0001D70AA421DD0281C184900F079FE18E0F3
:10B3F000A379022B06D10020154900F071FEFFF75A
:10B4000037FF0EE0032B0CD10020124900F068FE3C
:10B4100007E0A088A11DFFF709FF002801D000F078
:10B4200077FE05B0F0BDC046B21F002030200020DE
:10B43000501E00208CF901000D1800009AF901003F
:10B44000641E002084F901004C1E0020C0F9010098
:10B45000EFF9010009FA010070B50B78113B122BCE
:10B4600000D9A1E0061C181C141C0D1C04F0C4F823
:10B470000A324E60679C9C9C9C9C9C9C9C9C9C9CC7
:10B4800077838F000020494900F02AFE072002F050
:10B4900085FC002801D000F03BFE6B68444C1A8804
:10B4A000444B201C1A80311C042204F04AFA201C50
:10B4B00003F0CEFC002801D000F02AFE3E4A1378AB
:10B4C0000133DBB21370002B01D1FFF7D1FE002056
:10B4D0003A4967E000203A4900F002FE394800216D
:10B4E0007C22FFF795FE002002F058FC002801D0D6
:10B4F00000F00EFE304C2378012B01D1FFF7B8FE8F
:10B5000023780020013B23702F494BE00020727804
:10B510002E4900F0E5FD264803F09AFC002801D0F2
:10B5200000F0F6FD72780020294900F0D9FD3BE0DB
:10B530000020284900F0D4FD0020274932E00020F7
:10B54000264900F0CDFD6B681E48198802F008FFFF
:10B55000002801D000F0DCFD0020214922E000207D
:10B56000204900F0BDFD002C02D0201C00F0D0FDD1
:10B5700000201D4916E000201C4900F0B1FD002C00
:10B5800002D0201C00F0C4FD002019490AE0002070
:10B59000184900F0A5FD002C02D0201C00F0B8FDD9
:10B5A0000020154900F09CFD002070BD31FA01001B
:10B5B0005D1E0020B01F00205C1E002050FA01001C
:10B5C0006FFA0100B21F002091FA0100B3FA0100E6
:10B5D000DEFA010009FB010035FB010061FB0100FF
:10B5E00082FB0100A3FB0100C4FB0100EEFB010094
:10B5F00018FC010042FC01006DFC010008B50728A1
:10B6000022D00A2802D0042821D111E0002002F023
:10B61000C5FB002801D000F07BFD02F095FC00285E
:10B6200001D000F075FDFFF7FDFD00280FD008E008
:10B63000074B13211888FFF7FBFD0823021C9A43D0
:10B6400005D000F065FD02E00122024B1A7008BD32
:10B65000B01F00204C1E002010B50B780C1C012BD5
:10B660000CD0022B14D14A8800200A4900F038FD82
:10B6700062880020084900F033FD09E003F02CF84F
:10B68000002801D000F044FD0020044900F028FD0E
:10B6900010BDC046B9FC0100DFFC010098FC0100B0
:10B6A00070B50D78061C0C1C012D22D0002D05D084
:10B6B000022D28D14A78002013491DE0281C134987
:10B6C00000F00EFD281C124900F00AFD301C03F0AA
:10B6D000F5F8002801D000F01BFD00200D4900F016
:10B6E000FFFC301C03F0C4F800280CD000F010FD63
:10B6F00009E000204A78084900F0F2FC6278002056
:10B70000064900F0EDFC70BDA3FD0100F1FC010055
:10B7100018FD01003AFD01006AFD010091FD0100E4
:10B72000002030B5032187B0574A031C00F09AFF70
:10B73000002801D000F0ECFC03205449544A02F0E8
:10B740003BFB002801D000F0E3FC01AC0020211CF1
:10B7500002F048FC002801D000F0DAFC2578023D18
:10B760006B425D41EDB200F091FC002801D000F089
:10B77000CFFC0020474900F0B3FC0820464948228E
:10B78000002303F04BFE002801D000F0C1FC012093
:10B790000021221C03F090FE002801D000F0B8FC2C
:10B7A0003E4803F0A1FE002801D000F0B1FC201CAF
:10B7B00003F0BEFE002801D000F0AAFC384803F0D8
:10B7C00057FE002801D000F0A3FC364803F05AFED3
:10B7D000002801D000F09CFC6B461D7001F0FEFDBE
:10B7E000002801D000F094FC684603F097FA002886
:10B7F00001D000F08DFC0920002105226844FFF7EC
:10B8000007FD012102221C20274B2271019363793D
:10B810000B43134383431038034314308343637152
:10B820000723A3710933E371237A20480B431343A1
:10B83000211C237203F0DEFA002801D000F068FC1E
:10B8400002F056FD002801D000F062FC184B1948A8
:10B85000211C019302F0F8FE002801D000F058FCF2
:10B86000154B1648211C019302F0B4FF002801D0AB
:10B8700000F04EFCFFF7FCFCFFF7D6FC0028FBD0E5
:10B8800000F046FCF8E7C046781E0020CD0C000012
:10B89000FDB50100C9FD0100041E0020681B002049
:10B8A00015B30100F1B2010059B401004D1E002092
:10B8B00059B6010030200020A1B60100501E002022
:10B8C0000269C3689A4203D880681018013800E002
:10B8D000501EC01A7047F7B5051CC66883684068DB
:10B8E0000191141C9F1B8019974203D904F029F879
:10B8F000A4190AE001993A1C04F023F8019BE41B07
:10B90000D9196868221C04F01CF8EC60F7BD00230C
:10B91000F7B5061C171CC568019100933369B4681C
:10B92000AB4200D81B19013B5B1B641BBC4200D916
:10B930003C1C9C4200D91C1C7368221C581901999C
:10B9400003F0FFFF009B2D191B190093019B3F1B68
:10B950001B190193B368EB1A5A1E93415B421D40B9
:10B96000F560002FDAD10098FEBD0000022310B56B
:10B97000104C114A23616361104BA261E361802383
:10B98000A2640F4ADB002362E26400231022A36258
:10B99000E3626362E365A3652265636509490A485A
:10B9A00003F0D8FF201C094903F0D4FF2023A37122
:10B9B00010BDC046D02D0020E8FD01004C20002025
:10B9C0003C200020F1FD0100D72D0020F5FD0100F5
:10B9D000F8B51823451C5D434343141C134A0E1C41
:10B9E000D018C76AAD18012F0FD0002F07D0022F33
:10B9F00017D1221C281CFFF78AFF041C14E0281C06
:10BA0000FFF75EFFA0420ED305E0281CFFF758FFAA
:10BA1000844200D9041C281C311C221CFFF75BFF48
:10BA200002E0002400E03C1C201CF8BDD02D0020CA
:10BA300073B50C4B061C1B780D1C141C002B01D17C
:10BA4000FFF794FFEFF31083012181F31088301C7E
:10BA5000291C221C0193FFF7BBFF019B83F3108875
:10BA600076BDC046D02D0020F0B5184C85B00193AE
:10BA70002378051C0F1C161C002B01D1FFF776FF45
:10BA800023699D421ED2EFF31083012181F31088B8
:10BA90000393002D0CD018236A1C5A436B43A75004
:10BAA000A2185660019AE3181A6200229A625A623A
:10BAB00018235D430A9B6419E362039B83F3108898
:10BAC000002001E00120404205B0F0BDD02D002053
:10BAD000F0B5174C85B001932378051C0F1C161C7C
:10BAE000002B01D1FFF742FF63699D421BD2EFF3A8
:10BAF0001083012181F310880393002D09D01823AE
:10BB00006B43019AE3181A6500229F649A65DE640C
:10BB10005A6518235D430A9B6419E365039B83F30D
:10BB20001088002001E00120404205B0F0BDC04671
:10BB3000D02D002010B58268041C4068531C83423D
:10BB400005D820688154A360E3680133E360A268EC
:10BB500063689A420CD120692168FFF769FFA368E6
:10BB6000984203D001235B42E36001E00023A3601D
:10BB700010BD0000F0B5051C1F1C081C012685B077
:10BB80000A9C00910192019B984204D3019903F011
:10BB900047FD0136F7E70296BE4200D20297012325
:10BBA0000B9A1A40039218D1002C01D1002414E002
:10BBB0000B9B20269B070DD5002F0BD1103609E0DB
:10BBC000281C311CFFF7B6FFEB68013C002B04DB9F
:10BBD000002CEBD0029BA342F2D3EB68002B35DBA9
:10BBE0000126012F01D9013F06E00098311C03F026
:10BBF00017FD019B984208D3019B5E43F1E7301C7F
:10BC0000019903F00DFD061E10D00098311C03F0C1
:10BC100007FD331C4343009AD31A00930C4B195C65
:10BC2000281CFFF787FFEB68002BE8DA039B002B4B
:10BC30000CD0002C0AD0029BA34207D2281C202142
:10BC4000FFF778FFEB68013C002BF2DA05B0F0BD9E
:10BC5000FCFD0100F0B59FB00EAB099340230A93A1
:10BC60000023161C06900B930D900C930B784C1C24
:10BC7000002B04D10C9B0393002B22DC16E1252B17
:10BC800016D1002502314F1E3B782B2B0CD003D848
:10BC9000232B27D1082308E02D2B03D0302B21D1D3
:10BCA000022302E0012300E004231D430131EAE7FF
:10BCB000191C09A8FFF73EFF211C0C9B002BD5DAAD
:10BCC000D8E70B9A002A03D006980EA9FFF7B0FE1A
:10BCD0000C9B03930B9B0493049A039B944663442D
:10BCE0000C93E3E000243A78131C303B092B05D871
:10BCF0000A235C43303C0137A418F4E70023039384
:10BD00002E2A0DD101373A78131C303B092B07D866
:10BD10000A23039901374B43303B9B180393F2E707
:10BD2000397804230A1C9A43682A02D139780137EA
:10BD3000F7E7642926D008D8582900D195E063296F
:10BD40001AD0252900D0AFE0ABE0732900D195E0EF
:10BD50000DD8702900D0A7E032680021131D336090
:10BD6000082301910093116809A8102296E0752913
:10BD700071D0782979D097E033681A1D326019683C
:10BD8000C9B28EE033681A1D32601B68DA17981842
:10BD90000493012350400593092805DD0A2103F08F
:10BDA000CFFC059B0133F6E7059B039A934200D233
:10BDB0000592002C05D0049B002B01DB6B0700D5FE
:10BDC000013CAB0702D5039B002B10D0EB070ED430
:10BDD000002C01D100240AE0059BA34207D209A848
:10BDE0002021FFF7A7FE0C9B013C002BF0DA0C9BF7
:10BDF0000793002B58DB049B002B04DA5B4204936F
:10BE000009A82D2103E06B0703D52B2109A8FFF713
:10BE100091FE0C9B002B47DB03232B40022B11D1FF
:10BE2000039B002B0ED1002C01D100240AE0059BBE
:10BE3000A34207D209A83021FFF77CFE0C9B013CEE
:10BE4000002BF0DA0C9B0593002B2DDB0094019561
:10BE500009A8049906E0336800941A1D3260019520
:10BE6000196809A80A22039B18E0336800941A1D78
:10BE70003260019509A819681022F4E733681A1D89
:10BE800032601C682178013400290DD009A8FFF721
:10BE900051FE0C9B0393002BF4DA05E0FFF76AFEDA
:10BEA00002E009A8FFF746FE791C06E70C981FB0D0
:10BEB000F0BD00000022074B1A60074A938A916880
:10BEC000C95C938A01339BB29382044B044AD150DC
:10BED0007047C0461C2100404C2400201C05000077
:10BEE000002000401FB501236A461370044B1072F6
:10BEF00001915A6868461968904705B000BDC04670
:10BF00004C2400201FB500226B461A701872054B96
:10BF1000684699689A7501915A681968904705B002
:10BF200000BDC0464C240020A32210B50A4B0B488C
:10BF3000DC7D0B49D200002C02D104608B5809E053
:10BF400000240460587E8A58D9680A545A7E013207
:10BF5000D2B25A7610BDC0464C24002008210040C1
:10BF6000002000401FB5C123414C9B00E2589205C0
:10BF700026D5404A1168002922D00023136081226F
:10BF8000C22392009B00E2503B4B9A7E002A02D1D2
:10BF900001213A4A1160694602220A709021C900C3
:10BFA00062586846625069460392DA7D0A72DA681E
:10BFB000196801920022DA751A765A6890472DE0C6
:10BFC000E3585B072AD52E4B1B68002B26D0FFF7C2
:10BFD000ABFF294B5A7ED87D191C90421ED11A7E88
:10BFE000002A09D0DA751A69D968DA600022587E09
:10BFF0001A76C0B25A760FE09B7E002B02D1012246
:10C000001E4B1A608122C22392009B00E250002343
:10C01000487ECB75C968C0B2FFF764FF194B1A6838
:10C02000002A0DD0144A918A907D884202D9FFF7E8
:10C0300041FF05E000221A60904201D0FFF762FF45
:10C04000114B1A68002A11D000221A600A4B9A7EFE
:10C05000002A01D001222260DA7D002A06D00022C7
:10C06000587ED968C0B2DA75FFF73CFF1FBDC046E5
:10C0700000200040242100404C24002004200040E7
:10C08000082100401C2100404421004073B50024D9
:10C090000E4D2B78A34216D1012680230096201C3A
:10C0A0000B490C4ADB00FFF7DFFCA04201D008245B
:10C0B00009E00094201C0849084A1023FFF708FDF6
:10C0C0000028F4D12E70201C76BDC04678280020B0
:10C0D0000CFE01007824002013FE010068240020DB
:10C0E0000EB403B503AB02CB01AA0193FFF7B2FD77
:10C0F00002B008BC03B01847BFF34F8F024A034B8E
:10C10000DA60BFF34F8FFEE70400FA0500ED00E0B0
:10C110001FB5002101AA9060034811805160FFF70C
:10C12000EBFF05B000BDC0460140000010B54378EC
:10C1300082780133DBB2D21A041C501E8241524273
:10C140001340227800209A4205D00B7018236078A3
:10C1500043436068C01810BD154B02205968C905DB
:10C16000C90D24D01039CBB25AB2002A0BDA0F22F3
:10C170001A40083AC24082400E49521803210B402F
:10C1800052688B4007E092080B4BC0329200D258A5
:10C1900003230B40DB00DA40D3B29B09DBB2002063
:10C1A000012B04D0033B5A425A410230801A704797
:10C1B00000ED00E018ED00E000E100E08022194B06
:10C1C0009202DA67D2218022174B520289005A501C
:10C1D00040395A5001212F225960101C0138C046A5
:10C1E000C046C046C046C046C046C046C046C0461F
:10C1F000C046C046C046F1D1996000230B49101CCF
:10C200000B600138C046C046C046C046C046C04666
:10C21000C046C046C046C046C046C046F1D1044AEA
:10C220001370704704E100E0001001407C280020FA
:10C230009C28002070B50024224B5C649C64DC6464
:10C240001C655C609C60204B1B68A34239D01F4971
:10C250001F4A8A581F490D68551B2D022D0A1A685E
:10C2600095421AD3AD1AA4181A7CDE69002A10D0A0
:10C2700000221A74184A1268002A07D0586999696E
:10C280009047002805D0FFF743FF02E05A699869FC
:10C290009047002E01D0331CE1E7104B104A19786B
:10C2A00013788B4205D10133DBB2022B00D100237E
:10C2B000137013780B4A9B009C5080220A4B520348
:10C2C0005A6070BDFC100140802800200010014021
:10C2D000040500007C2800208428002090280020ED
:10C2E0009128002094280020FCE100E0F0B5BF4830
:10C2F000BF4A0368BF4989B004930978137899420B
:10C3000011D00133DBB2022B00D10023137013785C
:10C31000B94A9B009958049BCB181B021B0A036067
:10C320000123039301E000210391B44B1B680693A2
:10C33000B34B1B780193B34B019A1B68029207938E
:10C34000AA4B1E68B04B1B780593069B02980138D8
:10C35000C2B20292FF2A2DD0029AD400079A141971
:10C36000227865789542F1D018255543A778013297
:10C370006068D2B2BF1A4519381C471EB8414742FF
:10C380003A402F78022F02D0032FEAD10CE09C46CE
:10C390001F1C6D6860460028E3D0AC4500D148E121
:10C3A0006746F8698446F5E7002BDAD000251D744E
:10C3B000DB69F9E76846944A007D904D8B4C10701C
:10C3C000039A2B602660002A06D1069A9B1A5A1EF1
:10C3D0009341039ADBB221E00022161C002B1AD0F5
:10C3E0001868814204D2411A2B601960012315E0BC
:10C3F000091A36180020DF681860D8698446002FB3
:10C4000007D0DA611A1C04989F6030180002000AF5
:10C4100058606346E2E779490B6001337749096860
:10C42000029178490298096805912168049176493A
:10C430000978069101990139C9B20191FF296CD09F
:10C440000199CD0005994D19002A02D0111CD2691D
:10C4500022E029786C788C42ECD018244C436E682A
:10C4600001313419AE78C9B229708E4200D12A70D8
:10C4700027786168061C012F4DD10F7C002F4AD10F
:10C48000A6684E60E6688E602669CE6064698C613D
:10C49000069C002C00D04F604C68049E0394A61BA1
:10C4A0005A4C3602360A8F68A64202D8F6190E6038
:10C4B0000BE0049C039EA41B2402240AA74202D979
:10C4C0003F1B0F6001E000240C60002401264C603B
:10C4D0000E748C60CC610E1CA0421CD00E680468E7
:10C4E000A64204D8A61B0660C8610E1C13E0844651
:10C4F000041C2768BE4206D9F61BE769A446002F34
:10C5000005D03C1CF5E7BF1B2760271C64460E6066
:10C51000061CCF61E161301C96E7384A1060029A30
:10C52000904202D1002B00D17EE0002800D179E0BA
:10C530000568374937482D4B0C581B68364EE21AB0
:10C540001202120A3778033201920290002F1FD193
:10C550008020D1274002BF00C851403FC851C022AF
:10C5600080272E48BF0252008750076001272F20E6
:10C570000F600138C046C046C046C046C046C046EF
:10C58000C046C046C046C046C046C046F1D137701E
:10C59000019AAA4200D22A1CA820D3181B021B0A07
:10C5A000C0000B50029A1A4D8958091B0902090A4A
:10C5B0001C1B24020331240AA14235D9154BEB5828
:10C5C0002B502F200138C046C046C046C046C0464A
:10C5D000C046C046C046C046C046C046C046F1D16F
:10C5E00080220F4B92025A601EE0C0467C28002039
:10C5F00090280020912800209428002080280020E6
:10C60000882800208C28002092280020FEFF7F0030
:10C6100000100140040500009C28002000E100E01B
:10C62000FCE100E0FFF7CAFD00220C4B1A7009B0D4
:10C63000F0BDAF4207D1DB69002B04D101260848C9
:10C64000866005961E1C2868ED698446FD61002DF4
:10C6500000D186E628686044286082E6922800209F
:10C6600000100140F7B5032700900D1C141C019326
:10C6700007203A4241D1214E002A01D132603CE0EC
:10C68000FFF79CFD1E4B019A34601A601D4B182267
:10C690001F70231C1833191C6A430020636020702C
:10C6A0006070A57008349B188C42F6D18021C0229E
:10C6B000C524FF25144B49031860144B5200187011
:10C6C000134BA4001870134B99501A59AA433F3DBD
:10C6D0002A431A51A1221960009C0F49D2008C50A4
:10C6E000C424A4001D590D4A2A40C0252D022A4306
:10C6F0001A510B4BCA580B4B1A60FEBD8C280020F8
:10C7000084280020882800208028002090280020ED
:10C710009128002000E100E000100140FF00FFFF31
:10C72000040500007C28002010B50A4B1C68082373
:10C73000002C0CD0013B002A09D0002807D000684B
:10C740000133047C002C02D1231C41744261181C6B
:10C7500010BDC0468C280020F0B51D4B051C1E687E
:10C7600085B00820002E30D0002D2ED001380429AD
:10C770002BD96B690130002B27D06B7C0027012B54
:10C7800000D10F1C01920091FFF7E6FC02ABC00044
:10C790003418DE1D201C311CFFF7C8FC031C0420CC
:10C7A000002B12D001220B491A700B4A5D608A5887
:10C7B00000209A60009A1F61DA60019A5A61802213
:10C7C000337852036370054B5A6005B0F0BDC04624
:10C7D0008C2800200010014004050000FCE100E06E
:10C7E000F7B5134B1F680823002F1ED000281CD05C
:10C7F0004269002A19D000260674051CFFF7ACFC1C
:10C800006B46C0003C18DF1D201C391CFFF78EFC56
:10C810000423B04209D08022023B03703B7845607C
:10C820006370044B52035A60331C181CFEBDC04693
:10C830008C280020FCE100E0F0B58901002814DA22
:10C840000F23C4B22340083B174A9B0803259B00D3
:10C850009B18FF222C40AC40151C1140A540A14064
:10C86000DE69AE433143D96112E0104B8208920079
:10C87000D218FF2303241F1CC0250440E400A74056
:10C88000AD0056591940BE43A140331C0B435351D0
:10C890001F2318401E3B8340C022181C034B52002C
:10C8A00098501860F0BDC04600ED00E000E100E0E7
:10C8B000A0238000DB05C018E02310B5DB00C458BE
:10C8C000034A09042240C250C2581143C15010BD4E
:10C8D000FFFFFCFF0123054A81005B428B500328C8
:10C8E00002D910183C3003707047C046A0280020C1
:10C8F00038B5124C0820231C44331B78002B1CD164
:10C900001A1CFF2120320133A154202BF8D100251D
:10C91000281C0135EDB2FFF7DDFF082DF8D1062008
:10C920000321FFF789FF8021C123054A9B000906E7
:10C93000D150012300204434237038BDA0280020AA
:10C9400000600040034B44331878431E9841C0B246
:10C950007047C046A0280020F7B5304B94461A18FF
:10C960000132D27F041C019308207F2A55D9CF7849
:10C970000426002F08D00026043805E0274DB20019
:10C980005359013303D001368642F7D117E02819F5
:10C990000130F3B2C37760465051002F02D1AD1978
:10C9A0003C352C708A78002A0BD0A020E025022686
:10C9B000C005A2001218ED005059B04309E0042050
:10C9C0002BE0221CA0254878C132FF328000920063
:10C9D000ED055051C8780A785BB2002816D0A22520
:10C9E0000F499B005B18ED0058590E492402014085
:10C9F0005951F820C0214001120489025E590440B7
:10CA00000A40144334435C51002006E0019992012E
:10CA1000CB183C3319780A431A70FEBDA0280020B9
:10CA200000600040FFE0FCFFF8B5204D2C180134F9
:10CA3000E27F53B2032B1ADDEB183C3319788909D6
:10CA400003290CD1A223A022DB00D205D258012356
:10CA50008340191C11404B1E9941023104E00139F9
:10CA60004B4259410323591AFFF722FF1DE0032AC5
:10CA70001BD8A2270E489A0012180120FF00D65991
:10CA80000643D6511A1C002740329200084E92B23B
:10CA90009751B94209D01F22A25692005259BA4268
:10CAA00003D0C12298409200B050F8BDA0280020C9
:10CAB00000600040A223A022DB00D205D358C3406F
:10CAC000181C012318407047F7B5012200243C4B85
:10CAD0001968012908D1C1213A48890041581142F9
:10CAE00002D00021144319603749043352008B42AD
:10CAF000EED1364B00271A68012A08D11F60802327
:10CB00001B061C43A022A223D205DB00D758230713
:10CB100003D1002C53DA002626E0012600253442FA
:10CB20000DD0284AAB009918A222D2008858895803
:10CB3000274AC0048903C00E890F9B5898470135C6
:10CB40007600042DEBD1E4E7E4B2C023251C9D431D
:10CB500053190133DB7F5BB29B009B580193002B81
:10CB60000AD10136042E2AD0331C194A4033D45C32
:10CB700063B20133E8D1F4E72B1CA022C133FF33A9
:10CB8000D2059B009B580122AA409B03A4099B0F3E
:10CB9000174202D0022BE4D102E0032BE1D103E0E3
:10CBA000032C07D1211C02E0032C03D10221281CF5
:10CBB000FFF77EFE281C211C019B9847D1E7F7BD9B
:10CBC0000061004000600040106100407C61004056
:10CBD000A028002008B5064B586980235B05421C3D
:10CBE00004D0196989B202F01BFD00E0586908BD44
:10CBF0000010001029DF704728DF704708B5034B8D
:10CC0000034A1B789B009B58984708BD04290020C5
:10CC10001CFE01000B1C37B50C24021C181C896873
:10CC2000054D4C432D6819780095044D0830645922
:10CC30001B69A04737BDC0460C290020F028002002
:10CC4000802208B55205116914220E4889B2037872
:10CC50005343C3181A69501EDA881B898018C018FC
:10CC600002F0DEFC084A031C126801209A4207D336
:10CC700000209A4204D1054B1B6858425841C0B26B
:10CC800008BDC04618290020E8280020EC28002014
:10CC900008B50823034A116899431160FFF7AEFFF6
:10CCA00008BDC0460029002008B5094A13681907C5
:10CCB0000AD4990702D501210B4313600222054BC8
:10CCC0001A70FFF79BFF01E0FFF7E2FF08BDC046C7
:10CCD000002900200429002008B5064B1B681B070B
:10CCE00005D40122044B1A70FFF788FF01E0FFF71B
:10CCF000CFFF08BD002900200429002008B5002826
:10CD000014D0112805D10823094A11680B43136078
:10CD10000CE01423074A1178594351180431FFF7E6
:10CD200079FF0422044B1A7000F098F808BDC04641
:10CD300000290020182900200529002008B5FFF748
:10CD400059FFFFF7DBFF08BDF8B51423144A802410
:10CD5000167864055E439619371C331C2169F288E6
:10CD600089B23089083710330E4D8A420FD92169B4
:10CD7000266989B2521AB96840185968801889180A
:10CD8000B2B29208FFF7DAFF23699BB206E0B968F6
:10CD9000920840185968FFF7D1FFF3882B60F8BD5F
:10CDA00018290020E429002038B580256D052C695C
:10CDB000084AA3B21468013C5C43FFF70BFF2B69E0
:10CDC000411E9BB25943044B201C1A68FFF7B6FF63
:10CDD00038BDC046E828002014290020142270B570
:10CDE00080260E4976050B785343CB181A89DC88C8
:10CDF0001B69A4183169E418201C89B202F096FC62
:10CE00000D1CFFF7E7FE336901389BB25843044B12
:10CE100041191A68201CFFF791FF70BD18290020E6
:10CE2000EC28002008B5FFF7D5FE802252051369D3
:10CE300001389BB25843054B116912691B6889B2CE
:10CE400092B259439208FFF779FF08BDE828002005
:10CE500008B5FFF7D1FEFFF751FF08BDF0B52C4B29
:10CE600085B01878032850D802F0C6FB020E114B8B
:10CE70000023284A1360284A1360284B5B78002B54
:10CE800043D000F001F940E0FFF75EFF3DE0244CA5
:10CE9000802723687F0501930123019A9A43142375
:10CEA000029222601D4A15785D4355192B69039340
:10CEB0003969181C89B202F0B3FB1A4B061C1860C2
:10CEC000039B3969581EEB8889B2C01802F0A8FB91
:10CED000864203D10223029A134303E00323019AFB
:10CEE0009A43131C2360104B1A68104B002A03D17D
:10CEF00021680232114200D000221A70FFF77EFE34
:10CF000003E0084B1868FFF7A3FF05B0F0BDC0466B
:10CF10000529002010290020E429002018290020DC
:10CF200000290020E82800201429002004290020DE
:10CF30001422F0B54E4985B00B7880255343CB18A9
:10CF40001A1C083252686D0501920C220198296959
:10CF5000424348481C6982185089168952687043B8
:10CF600082180292DA88444E03921F8989B2D3193B
:10CF70001B1900930023201C336002F0D7FB2A1CEE
:10CF800000290BD12B6903999BB2994209D0009BD0
:10CF900002998B4251D1002F5CD102E0019B022B00
:10CFA00008D11169201C89B202F03AFB334B18609A
:10CFB00003233CE02969381989B202F0B7FB304BF2
:10CFC00089081960029A009B296993422ED089B280
:10CFD000009802F0ABFB002928D080246B46640542
:10CFE00021691F88236989B201936B46188902F071
:10CFF00017FB6B46051C9988381C02F011FBADB27B
:10D0000080B2854207D16B466A461B8912889B1AFB
:10D010009B0833600AE023692169381C89B29CB2FD
:10D0200002F084FB89B2641AA40834600223154A12
:10D030001370FFF713FF05B0F0BD019B022BB0D0BA
:10D040002969381989B202F071FB0D4B8908196002
:10D050002969BCE7019B022BA3D02969381989B241
:10D0600002F064FB064B890819602B69DEE7C046B5
:10D0700018290020F0280020EC280020E8280020B3
:10D080001429002005290020142208B50A490B782C
:10D090005343CB18D988094A11601B79032B08D058
:10D0A000042B06D0012B06D1054A1370FFF7D6FEDC
:10D0B00001E0FFF73DFF08BD182900200C290020E2
:10D0C00005290020F7B5124D01936E7808AC27882A
:10D0D00004240A2E1AD02C78A419092C00DD0A3C4D
:10D0E00014235C432C196261221C20710C3209C983
:10D0F00009C26B469B882781E3800024054B0136DB
:10D100001B786E70A34201D1FFF7BEFF201CFEBD4D
:10D11000182900200529002038B51424104D0020BE
:10D120002978614369180431FFF774FD29780022DA
:10D130004C432B1901241A71DA80DC601A615A61A0
:10D140001A816B780919013B6B70CBB20A2B01D0A5
:10D150002B7000E02A70034B1A70FFF77FFE38BD7A
:10D160001829002005290020142208B507490B784A
:10D170005343CB181B79042B02D0FFF7CDFF04E0FB
:10D180000122034B1A70FFF769FE08BD1829002021
:10D1900005290020F8B508241D4E35682C4022D101
:10D1A00014221C491C4F0B783F685343CB18802135
:10D1B00049051869DA8809691B89002F16D00138DA
:10D1C0008018C01889B202F02BFA144B1B688342F6
:10D1D0000CD1134B1C6001231D43124B35601C7096
:10D1E000FFF70CFD13E0FFF753FD10E0FFF728FDFC
:10D1F000002804D000220A4B1A60023202E0002FFD
:10D2000003D00322074B1A70EAE7FFF7ADFFF8BD22
:10D210000029002018290020EC280020E828002000
:10D22000142900200429002008B5054B1B681B07A2
:10D2300002D4FFF799FF01E0FFF72AFD08BDC046C1
:10D240000029002038B5154D2C68230723D4144A33
:10D25000136801331360134B04221B68002B04D1A5
:10D26000FFF7EEFC002802D002220F4B0CE00F4B20
:10D270001B68002B0CD00121221C0B4B0A4002D151
:10D280000C432C6000E003221A70FFF7B7FC04E0A7
:10D29000FFF76AFF01E0FFF7FBFC38BD0029002023
:10D2A000E82800201429002004290020EC28002070
:10D2B00008B51E4B1B78022B30D0032B19D0012B45
:10D2C00032D108211A4A13680B4222D1142319497A
:10D2D0000A785A43184B8A181968D3885B1A9BB28C
:10D2E000D380002B02D1FFF717FF1DE0FFF72CFDC5
:10D2F0001AE008210E4A13680B420AD10F4A13683C
:10D3000001331360FFF79CFC002804D1FFF72CFFCA
:10D310000AE08B431360FFF7A1FD05E0084B094AC3
:10D320001B789B009B58984708BDC04605290020E4
:10D330000029002018290020E4290020E8280020E6
:10D340000429002030FE010008B5024B1868FFF7E1
:10D350007FFD08BDE828002008B5FFF73BFC8022D0
:10D360005205136911699BB20138584389B202F022
:10D3700057F9FFF76DFD08BD38B5144C0425227828
:10D38000131CAB4321D002281DD003281DD1104B04
:10D390001B681B0717D40F490B6801330B60032B65
:10D3A00004D0022A0CD1FFF729FC0EE014230A4A0C
:10D3B0000D201178594351180431FFF72BFC2570CB
:10D3C000FFF74CFD01E0FFF773FF38BD0529002092
:10D3D0000029002010290020182900200023174AC6
:10D3E00010B513705370131DCC32002401211C7032
:10D3F0005C809960DC601C619C8014339342F4D1A2
:10D400000F4B1C80FFF7E6FB802304225B051B69A2
:10D4100002389BB258430B4B18600B4B201C1C600E
:10D420000A4B1C601C815C81094B1C70094B1C6001
:10D43000094B1C60094B1A6010BDC046182900201A
:10D44000FC28002008290020E8280020F0280020DF
:10D450000529002010290020E429002000290020AF
:10D46000F7B504242C4B1A680823224251D0063306
:10D4700000284ED000294CD00268002A49D08027CD
:10D480007F053A69838892B2934201D9072340E02D
:10D490000F2BFBD9C288002AF8D053430E1C1F491A
:10D4A000041C0D685B190093FFF794FB3B6901387E
:10D4B0009BB25843194B0193009B8342E6D8A38843
:10D4C0009B07E3D1164B1F880423012F21D008337B
:10D4D0007B4337607560134A2068D1184D609850BF
:10D4E000A08801370881E28880244A81640542438C
:10D4F000236921699BB2D018013889B202F020F962
:10D500002469019BA4B2604345191D60044B1F8030
:10D510000023181CFEBDC046002900200829002059
:10D52000FC280020F028002030B5104B1C68082390
:10D53000640719D50633002816D0002A14D00368D2
:10D54000002B10D10A4D2C68002C0CD02C8940687F
:10D55000614309186889444368682418A14202D2CB
:10D560001360516000E00723181C30BD0029002023
:10D57000F0280020F0B5041C1B4885B00568082081
:10D580006D072ED5063000292BD0002C29D0256818
:10D590000738002D25D1154D2E68002E21D0666844
:10D5A00003962E896F896D687743BC46039F654457
:10D5B000AF4216D2002A14D0B24212D8D518B542C2
:10D5C0000FDC0325093029420BD12B4209D12F4210
:10D5D00007D1181C131C00900A1C0120211CFFF706
:10D5E00071FD05B0F0BDC04600290020F0280020E4
:10D5F000F0B5041C1B4885B0056808206D072ED5C2
:10D60000063000292BD0002C29D025680738002DA2
:10D6100025D1154D2E68002E21D0666803962E89DF
:10D620006F896D687743BC46039F6544AF4216D24D
:10D63000002A14D0B24212D8D518B5420FDC032507
:10D64000093029420BD12B4209D12F4207D1181C96
:10D65000131C00900A1C0420211CFFF733FD05B0A9
:10D66000F0BDC04600290020F0280020F0B5151CB0
:10D67000224A85B012680293082453073AD506342B
:10D68000002937D0002835D00C68002C2FD11C4E33
:10D690003268002A2BD0378973894A687B439C46BD
:10D6A00073689C44624522D2002D20D0BD421ED812
:10D6B000029BEB18BB421ADC0327384219D1029BAC
:10D6C0003B4216D1174014D103950D1C9918039AAB
:10D6D000029002F036F90C232A68281C5343039A5F
:10D6E00002210092F6583A1C029BB04702E0072440
:10D6F00000E01024201C05B0F0BDC0460029002029
:10D70000F0280020F0B51F4B85B01B6808245B078C
:10D7100034D50634002831D00368073C002B2DD1C6
:10D72000194A1368002B29D0178953685289466813
:10D730007A43D2180292964220D20934B2071DD100
:10D7400003900D1CF01A391C01F0F0FF093C002970
:10D7500014D1281C391C01F0E9FF89B200290DD130
:10D76000002D0BD0029BAE199E4207D80022032049
:10D77000009203992B1CFFF7A5FC041C201C05B08C
:10D78000F0BDC04600290020F0280020064B1A6892
:10D790000823520706D50633002803D0034B5B78D5
:10D7A00003600023181C704700290020182900205E
:10D7B000F8B50024164B1B78A34228D90127391C41
:10D7C000144BE6001B68144A9E1930781368814098
:10D7D0000B4219D08B431360FFF76CF935780F4B70
:10D7E000AF401B681F40031CAB409F420CD17268C6
:10D7F0007378002A08D0013B59424B41191A48421C
:10D800004141281CC9B290470134E4B2D2E7F8BDC7
:10D81000F0290020EC290020182A0020142A0020DA
:10D82000F8B5134D071C281CFEF7DAFF00281DD1A0
:10D830000124BC400F4A1368161C234214D1381C23
:10D84000FFF738F90C4B1A68002801D0224300E09A
:10D85000A2431A603368281C1C43084B0022196835
:10D860003460FEF779FF01E0A3431360F8BDC046C2
:10D87000F4290020182A0020142A0020E82900207A
:10D8800073B5051C0C1C161C0720042A2FD9FFF7A2
:10D8900059F800280DD0164B164A1D60164B1C7007
:10D8A000164B013C1E6000231360154AE4B213605E
:10D8B00016E0FFF71DF80028EDD018E0032201A9BB
:10D8C0000A700022E300EB188A70CA709A78187800
:10D8D0004A700C4AFFF740F8013CE4B2002806D138
:10D8E000FF2CEBD108480021084AFEF71DFF76BD4A
:10D8F000EC290020142A0020F0290020E82900202B
:10D90000182A002021D8010044FE0100B1D70100EF
:10D9100010B50024074B1B789C4208D2064BE2004E
:10D920001B680121D05CFFF77FF80134F2E700208B
:10D9300010BDC046F0290020EC290020A02210B51F
:10D94000064BD205D15880231B041C1CA1208C43FC
:10D950000B400349C0001450535010BD0405000093
:10D960000C050000F8B5061C0024172800D97FE13B
:10D97000A023A122DB05D200BE4D01F047FE180016
:10D98000230023004D007C009E00C100E100EF0059
:10D99000FC00EF00FC000A0111011101110111014D
:10D9A000110148014F015A01650172017201B2492A
:10D9B00000240868F0214904814399505C51AF4B21
:10D9C0001C7055E1E024AC4964040968A1208C4333
:10D9D0009C5000245C51AA4DA0215B59F0256D0498
:10D9E0006B408025AD03C905C000A24A2B40A3426D
:10D9F00006D00D508C50022E09D0FA20000108E00C
:10DA00008D500B50C820022E03D0001801E0E120F9
:10DA1000C0009A4B1E7021E0E02497496404096815
:10DA2000A1208C439C5000245C51954DA0215B5952
:10DA3000F0256D046B408025AD03C905C0008D4AFB
:10DA40002B40A34204D00D50E9388C50FF3802E03F
:10DA50008D500B50C8200322884B1A70642101F0AE
:10DA6000DFFD884B1B684343191C87480022FEF7E3
:10DA700073FE041CFCE0E0247F4964040968A120D3
:10DA80008C439C5000245C517D4DA0215B59F025B6
:10DA90006D046B408025AD03C905C000754A2B405D
:10DAA000A34204D00D50FA208C50000103E08D50A9
:10DAB0000B50C82040000422CEE7E0246E496404E5
:10DAC0000968A1208C439C5000245C516C4DA0211E
:10DAD0005B59F0256D046B408025AD03C905C0007E
:10DAE000644A2B40A34202D00D508C5001E08D506F
:10DAF0000B500522614B1A70624B19684900B4E75C
:10DB0000E0245D4964040968A1208C439C500024F2
:10DB10005C515B4DA0215B59F0256D046B40802565
:10DB2000AD03C905C000534A2B40A34202D00D509B
:10DB30008C5001E08D500B500622504B1A7016E0AD
:10DB40004D4900240868E02149048143995080210F
:10DB500089035C5159519C5007227FE0484958582D
:10DB60008021C9030C1C014084439C505951454BF2
:10DB7000454819687AE7424958588021C9030C1C66
:10DB8000014084439C50595105213E4B1B68594329
:10DB90006BE7F0210024490459519C500C225DE0B0
:10DBA0003A4F381CFEF71CFE041C1120801B324E1D
:10DBB00020D0002C1ED180231B04336001280DD0FF
:10DBC000C8236421584301F02BFD2E4B221C1B68F7
:10DBD0004343381C191CFEF7BFFD041CF0233268B8
:10DBE0005B041340A022D2055351A1230021DB0086
:10DBF000D1503DE0F02332685B041340A121A02204
:10DC0000C900D205535000235351336030E0F02156
:10DC10000024490499505C5112221FE0E02149047C
:10DC200099508021002489035C5159519C50132242
:10DC300014E0D0214904995080210024C9035C518B
:10DC400059519C50142209E0C02149049950C02127
:10DC50000024C9035C5159519C501522074B1A707E
:10DC600006E0F0210024490459519C50034B1E70DA
:10DC7000201CF8BD0C050000282A0020702A002076
:10DC8000040500002C2A0020302A0020742A0020DD
:10DC9000F7B5061E112E07D0122807D0132807D07B
:10DCA000142844D1032404E0002402E0012400E00D
:10DCB000022401291CD1032363431D4A9D5CD31810
:10DCC0005B780192002B0BD00A211A4B1A4F1B686C
:10DCD0001A4859433A1CFEF73FFD002800D13E7018
:10DCE00003236343019AD3189A78154B1A550DE014
:10DCF000002914D11148FEF773FD032363430C4A36
:10DD0000D3180F4A9B78155D9D4210D1002D0ED07F
:10DD10000C4B1B68002B0AD0281C984707E00229EF
:10DD200005D103235C43024B1C196578EEE7F7BD70
:10DD3000952A00202C2A0020942A0020502A002016
:10DD4000242A0020202A002008B502210078FFF7AD
:10DD50009FFF08BD08B5044B1B68DB0703D5034BC9
:10DD60001878FFF7FFFD08BD1C2A0020702A00204C
:10DD7000002303280CD8A223A022DB00D205D2580E
:10DD8000054B8000C0580123834093435A1E9341A2
:10DD900000200B707047C0464CFE010008B5054AD4
:10DDA000031C12680020D20702D5181CFFF7DAFD09
:10DDB00008BDC0461C2A00200B1C214910B50B6071
:10DDC0002049041C086020490A600021820718D5F8
:10DDD0001E4A0D3111700131D17001319171013143
:10DDE00051721B480C395A08FFF74AFD011E08D131
:10DDF000FFF78EFD011E04D11648174AFEF794FC6A
:10DE0000011CE3070BD5A023F022A1200024DB0591
:10DE10005204C0001A5011481C500C301A500029EE
:10DE20000BD10F480F4AFEF77FFC011E05D10131CF
:10DE30000D480E4AFEF778FC011C081C10BDC046B8
:10DE40002C2A00201C2A0020202A0020952A0020AD
:10DE500060FE010048FE010049DD01000C050000E4
:10DE60005CFE010055DD010080FE01003DD901008E
:10DE70000723032821D8012A06D10022012903D132
:10DE8000021C0D32D2B20BE0012909D000290CD0BE
:10DE9000022911D103235843094B1818427009E095
:10DEA00003235843064BC25404E003235843044B56
:10DEB00018188270002300E00723181C7047C04622
:10DEC000952A0020002170B50D4B8A00D258A0235E
:10DED0009200DB05D2180123E0248B40E4000340CC
:10DEE00015595E1EB341074E5B423540C026B6024F
:10DEF00033402B43013113510429E5D1002070BD7B
:10DF00004CFE0100FFFFFCFF08B5002002210122AA
:10DF1000FFF7AEFF002801D0072814D1012002210D
:10DF20000722FFF7A5FF002801D007280BD100200A
:10DF30000A22011CFFF79CFF031C0020834202D031
:10DF4000072B00D0181C08BD08B50320FFF7BAFF47
:10DF5000031C0020834202D0062B00D0181C08BDF1
:10DF600010B50388102B02D0112B27D035E01B4CA5
:10DF7000216800291ED1081C0122FFF779FF002823
:10DF800001D0072811D1012002210722FFF770FFDD
:10DF9000002801D0072808D1002002210422FFF721
:10DFA00067FF002806D0072804D00D4B1B68002B04
:10DFB00000D098472368013323600EE0074A1368B6
:10DFC000013B1360002B08D1FFF79EFF002804D00F
:10DFD000034B1B68002B00D0984710BDA82A0020D7
:10DFE000A42A0020144B73B50C1E186007D1134BE4
:10DFF00000201B68002B1DD1FFF786FF1AE06B463F
:10E000009D1D0020291CFFF7B3FE002812D16B468E
:10E01000DE1D0130311CFFF7ABFE00280AD133783A
:10E02000002B01D0022303E02B78002B00D00B2320
:10E030002370DCE776BDC046A42A0020A82A002071
:10E0400090DF704792DF704793DF7047F0B50B4B5E
:10E050001D680023AB420ED00949DC000A199778ED
:10E060008678B74205D1645A01888C4201D1506844
:10E0700002E00133EEE70020F0BDC0464C2B00204B
:10E08000382B002038B50025084C4034084B1B685D
:10E090009D4206D2201C23684038984701354434FD
:10E0A000F4E70022034B1A6038BDC046AC2A0020BA
:10E0B0004C2B0020342B0020F8B5031C7833041CB3
:10E0C00018783A23584320180D1CFFF7BFFF00288B
:10E0D00016D00C4E3368012B12D844225A437434A4
:10E0E0002788094CA1184F8001271755074ADB19CB
:10E0F00012684D6008643360934201D1FFF7C2FF9C
:10E10000F8BDC046342B0020AC2A00204C2B002048
:10E11000031CF7B5783300911E783A235E438619C5
:10E12000051C301CFFF792FF071E25D0134B1C68FF
:10E130000193012C20D84423634374352A88104D61
:10E14000E8184280009A002A07D00022311C5A5554
:10E1500004303A3201F0F5FB01E002225A55442323
:10E160006343ED18019B01341C60064B2F641B6850
:10E170009C4201D1FFF786FFF7BDC046342B00203B
:10E18000AC2A00204C2B0020031C37B578331C78B8
:10E19000013B1B7801A9002B0AD00C25013BDBB207
:10E1A0005D433A236343EB18C3185B8A013303E0F2
:10E1B0003A236343C318DB880B803A235C4304197A
:10E1C000238974304B800088FFF73CFF3EBD000080
:10E1D000021C70B57A32137800250133DBB213705C
:10E1E000154A1268934223D2031C3A26041C773343
:10E1F00059781D700131C9B24E4359700F4B8619C1
:10E20000C90059180422301C01F09BFB231C3571F6
:10E21000743301211888321CFFF712FF011EA94236
:10E2200008D0231C79331D70201CFFF745FF01E047
:10E230007930057070BDC0464C2B0020382B002073
:10E24000031CF0B578331B780C229C46031C7733F3
:10E250001C783A25634662435D43521945192E796D
:10E260008218631C85B00A32B34210D113892C89FD
:10E27000A34237D003AA0133138054802AE0071C3D
:10E2800077373A78013401323A701A1CE4B2B4425A
:10E2900028D2771E0023BC420AD00C27631C5F43A0
:10E2A000634601973A275F43019BDB19C3180A3382
:10E2B0001289002B06D12F89BA42E0D003AB01327C
:10E2C0001A8006E0DF880132BA42D8D003AB1A8048
:10E2D000013F5F80002374300B70008803A9FFF7B3
:10E2E000B3FE02E0012300200B7005B0F0BD00007A
:10E2F00000200122034B1860034B1A70034B186077
:10E300007047C0464C2B0020482B0020342B0020A7
:10E31000F8B50E2200281AD0002918D00D4B063A65
:10E320001B78002B13D00C4F023A3C68022C0ED005
:10E33000023A012C0BD8094DE300ED180E1C011C0C
:10E34000281C01F0FEFA002201346E603C60101CB3
:10E35000F8BDC046482B00204C2B0020382B002055
:10E3600070B5041C0E1C0E20002C24D0124B063855
:10E370001B78002B1FD0114B1B68002B1BD0251CBA
:10E3800079352B780930002B15D10D4A201C1360EC
:10E39000221C7432118093710432137009490422D3
:10E3A00001F0CFFA301C0121221CFFF749FE0028A2
:10E3B00001D101232B7070BD482B00204C2B002075
:10E3C000342B0020382B0020F0B585B0002800D178
:10E3D000DDE0002900D1DAE06E4B1B78002B00D184
:10E3E000D5E00B880D1C041C302B16D00CD8102B3C
:10E3F0000FD0112B00D0CAE000217C22FCF708FFCF
:10E40000012374345B4206E0322B26D0332B69D0D3
:10E41000BDE08B8874342380B9E0CF88002F1AD1F7
:10E42000031C78331E783A235E4386190E3104228A
:10E43000301C01F086FA291C04221231B01D01F0B3
:10E4400080FA201CFFF7A0FE011E00D19FE0231CD4
:10E4500079331F707FE0002186E0031C78331B783E
:10E460000193CB88002B2FD1019A3A335343C7181D
:10E470003E790A7BB218042A00DD04220E3500958D
:10E480000C2575430A35ED183A7165193A799642AB
:10E490000CD2281C00990A2201F053FA00236B8148
:10E4A000009B01360A3300930C35EFE70C21013E47
:10E4B00071433A26019B7343CE18A619718A3B8992
:10E4C000994201D2042A55D1231C002677331E70AD
:10E4D00002ABDD1D291C201CFFF7B2FE011EB1425C
:10E4E0003DD035E0031C78331F78EB887730017816
:10E4F000002B18D1AA890092009A934213D20622C7
:10E500005A43AA18168AB446234EB44509D10C239F
:10E510004B431D1C3A237B43D289EB18E3189A82A4
:10E5200001E00133E8E702ABDD1D3A2300265F433B
:10E530002E70E7193B790131994202D101232B70EA
:10E540000DE00170291C201CFFF77AFE011E06D089
:10E55000231C79331E70201CFFF7AEFD17E02B78CB
:10E56000002B14D0201C0121FFF7D2FD201CFFF747
:10E570002FFE0CE0231C77331A70201CFFF704FEDB
:10E58000011E04D0231C002279331A70E3E705B082
:10E59000F0BDC046482B00200229000096DF7047DE
:10E5A00098DF704738B50E4D0E4B2C681B689C42A7
:10E5B00014D0142363430C48C1188A78185A002ACF
:10E5C00003D18988FFF7EAFF02E00831FFF7E8FF8F
:10E5D000002803D1072301341C402C6038BDC046FD
:10E5E000542B0020502B0020582B002073B50278AC
:10E5F000011C002A20D1436810481B021B0A8342D9
:10E600001AD10F4B18684B8803800C7AA2420ED2A5
:10E610000C235343CB18DE890A4DAE4205D11A8B29
:10E6200010334280DB88838001E00132EEE7012372
:10E6300001A90B708368984773BDC0460D1801008F
:10E64000F82B0020372A000007B5031C0E20002BF2
:10E6500012D0002910D0012201A88270074A02803E
:10E66000074A13600A6807499A60012252421A80D9
:10E6700000225A80FFF74CFE0EBDC0460D18000068
:10E68000F82B0020EDE5010007B5002822D0002975
:10E6900020D00A880B1C382A1AD0392A04D0102A14
:10E6A00018D18B88038015E089898288914211D125
:10E6B000022201A90A709A7CD20701D4DB7C03E014
:10E6C0001A7DDB7C120213434B808368984701E07C
:10E6D000FFF768FF07BD000070B50E2400281BD0AF
:10E6E00007230E4944880A680588501C03400B60C4
:10E6F000142302215A430A488318D981191D19612C
:10E7000001215C8100245E189C81197219711552D7
:10E7100034719970FFF746FF201C70BD502B00200C
:10E72000582B002096DF704798DF704738B50E4DA4
:10E730000E4B2C681B689C4214D0142363430C4876
:10E74000C1188A78185A002A03D18988FFF7EAFF8E
:10E7500002E00831FFF7E8FF002803D10723013466
:10E760001C402C6038BDC046002C0020FC2B002033
:10E77000042C0020F7B50178041C002923D143683C
:10E78000114A1B021B0A93421DD1104B1868638863
:10E790000380267ACBB2B34210D20C22151C0B1C7C
:10E7A00001314D4365196F88094DAF42F2D15A438B
:10E7B000A3181A8B10334280DB888380002301A9C1
:10E7C0000B7083689847F7BD0F180100A42C002038
:10E7D000192A000007B5031C0E20002B13D00029B6
:10E7E00011D0012201A88270074A0280074A1360F3
:10E7F000012252421A8000225A809A800A680449F3
:10E800009A60FFF785FD0EBD0F180000A42C0020B4
:10E8100075E7010007B5002828D0002926D00A880E
:10E820000B1C362A15D004D8102A1FD18B880380E0
:10E830001CE0382A18D0392A18D189898288914257
:10E8400014D1012201A90A709B7C4B708368984700
:10E850000CE089898288914206D1022201A90A70BE
:10E860009B7C4B7083689847FFF760FF07BD0000F3
:10E8700070B50E2400281BD007230E4944880A686F
:10E880000588501C03400B60142302215A430A4898
:10E890008318D981191D196101215C8100245E183A
:10E8A0009C8119721971155234719970FFF73EFFEE
:10E8B000201C70BDFC2B0020042C0020072238B542
:10E8C000094B1C68611C0A401A601423634300242E
:10E8D00006498588CA189580008894705852FFF7B9
:10E8E00025FF201C38BDC046FC2B0020042C002036
:10E8F0007EDF70477FDF704781DF7047A9DF704799
:10E90000AADF704700207047002070470020704742
:10E910000020704700207047002070470C2170B520
:10E9200043780F4859430A580E4C002A0BD06518FB
:10E93000AD7A6EB2002E05DA6D0603D441180431AB
:10E9400092B201E00022111C0C204343E318188905
:10E950000323FFF7D3FF002800D0034870BDC04653
:10E96000982D0020C62C0020418000000020704718
:10E9700008B5FFF7D3FF08BDF0B585B0041C0D1C2A
:10E9800002AA81782148FEF7CFFD00283CD10C2354
:10E9900061781F4A4B43D3189B7A1E4E01925B0647
:10E9A00005D4022D03D01C4E012D00D01B4E18277C
:10E9B000A1781B4B794302A859183A1C0023B04791
:10E9C000002813D1022D1FD00C234021627802A809
:10E9D0005343019AD3189A7A8A439A721C22617817
:10E9E000104B514359183B1CB04701E0022D0BD08E
:10E9F0000C23227802A853430B4A211CD3189B7A7C
:10EA00000A4A9B009B58984705B0F0BDB42D0020E2
:10EA1000C62C0020F1D5010075D5010005E90100E3
:10EA2000D22C00207A2D0020A42D002084FE01008D
:10EA3000F0B587B002AB9F1D06230C2401903B80EC
:10EA40004B78214A6343D3180D1C188904A93A1C3A
:10EA50000323FFF755FF002833D168781B4B604331
:10EA6000181804303A8804A900F05CFF6B78174E40
:10EA700000280BD16343144AD218917A0222114024
:10EA80001FD1F018221CFCF7C3FB1AE05C431049AD
:10EA9000A2590091002A01D10E4A00920C2463432E
:10EAA0003A8804A9F250687860433018043000F0C6
:10EAB00048FF6978221C6143019871183423009C37
:10EAC000A047002007B0F0BDC62C0020982D0020E4
:10EAD000F1D5010075D5010008B5FFF7A9FF08BD04
:10EAE00070B50C24031C4878084D60430E1C281890
:10EAF000191C221C3423FEF7B9FD002805D17378B8
:10EB00005C436359013300D1605170BD982D0020E2
:10EB100008B5FFF7E5FF08BDF0B54E4C93B024688B
:10EB2000002C00D194E0189C5C2C00D990E00024CB
:10EB3000171CFF221D1C061C03AB5A709A70DA705A
:10EB40001C7002AB1C74189B01910B950A93A1B227
:10EB5000414804AAFEF7E8FC002809D1301C04A9AA
:10EB6000082200F0DFFE002802D103AB9C7002E017
:10EB70000134072CEBD103AEB378FF2B68D0019A98
:10EB800006AC032A07D1189B5C2B01D13C3B00E06B
:10EB90004023237046E0314AAA1AA72A10D8304AE7
:10EBA000002F04D1012199401068084250D0012162
:10EBB00099400B1C116899432023116023703EE09B
:10EBC000284AAA1A1B2A08D820232370002373700E
:10EBD0000CAB0B9318230A9331E023482A1A0B2A13
:10EBE0000FD8302302AA1374002373700133F3701B
:10EBF0001E4B997A0223194021D10C22FCF708FB05
:10EC00001DE0402222701A4A95420BD0194A990001
:10EC10008A58AA421CD1154AD27A9A420FD10023AF
:10EC200073700CE0032223781343237009AB6360F5
:10EC3000084B301C1B68211C3A1C984708E0019BBC
:10EC4000022B02D123780122EEE723780222EBE7A0
:10EC500013B0F0BDA42D0020B42D0020D22C002034
:10EC6000B02D00207A2D0020982D0020C62C0020E9
:10EC7000B4FE0100A82C002070B5182444430E4EA9
:10EC8000051C30190021341906221130FCF7C0FA96
:10EC9000201C00211022FCF7BBFAFF232374E3752C
:10ECA000FE3BAB40054AAD0011689943116000225C
:10ECB000034BEA5070BDC046D22C0020B02D00207E
:10ECC000A82C0020F8B5061C0C2443783178634347
:10ECD0006143104D104FEB18791818890431FFF774
:10ECE00007FE002814D10122042133786343FF1862
:10ECF0007B7A13437B7273786343EB189A7A0A43E7
:10ED00009A72202273785C432C19A37A9343A372DE
:10ED1000F8BDC046C62C0020A42D0020F0B585B05B
:10ED2000002853D000252B4B041C1D605D729D7282
:10ED300001232948291C8372023B07220381C372E5
:10ED4000FCF766FA2548291C0C22FCF761FA281CFE
:10ED50000135FFF791FF072DF9D16A465C23204F5B
:10ED60009380204B6846391CD5800093FEF778FBD2
:10ED70003E1C00282BD101231B4D24782B70002C26
:10ED80001AD1A1B2301C02AAFEF7CEFB071E0CD18D
:10ED90001822131C6343154802A9C0183B1CFEF738
:10EDA00065FC002804D02F7011E000232B700EE0CA
:10EDB0000134072CE5D10AE06B466A46DB8891886E
:10EDC000381C594389B2FEF79DFC00E0084805B0A5
:10EDD000F0BDC046A42D0020C62C0020982D002098
:10EDE000B42D002019EB0100C42C0020D22C0020EF
:10EDF0000E800000F8B5114B1B78002B17D00028AF
:10EE000017D0002915D00B68002B12D00C4F3C688E
:10EE1000002C10D1061C381C0D1C08C00531052221
:10EE200000F08FFD2B79201CBB72347004E0054884
:10EE300002E0054800E00548F8BDC046C42C0020AB
:10EE4000A42D0020088000000E8000000480000037
:10EE5000F8B5334B1B78002B60D000285AD00378CC
:10EE6000002B5BD12F4B1A681D1C002A56D0477807
:10EE7000002F51D12C4EB37A012B4DD09B074DD58D
:10EE80008378041CFF2B02D1F37AFF2B08D0274A8A
:10EE9000F37A111CA37030891231FFF72DFD3EE08B
:10EEA00018207843224B1818C37DFF2B29D13378C3
:10EEB0001030022B06D0FD23311CC371072200F055
:10EEC00040FD01E0FE23C3710C236278FFB25A4378
:10EED000B218D7722278A7705A43AA18527AD2076A
:10EEE00014D52021627800205A43B618B27A0A431A
:10EEF000B27222781E395343EB185A7A0A435A7277
:10EF00000DE00137072FCBD10A4808E0201CFFF79E
:10EF1000D9FE04E0084802E0084800E00848F8BDCF
:10EF2000C42C0020A42D0020C62C00207A2D002007
:10EF3000D22C0020438000000E80000010800000D2
:10EF400008800000F0B5224B1B78002B26D000284B
:10EF500022D0002920D00B68002B1DD08B68002BFD
:10EF60001AD00378002B19D11A4A1268002A15D03A
:10EF700007201A1C184E10360724184D241AEF7A51
:10EF8000BC420DD1AC7AA4070AD501381836002846
:10EF9000F2D10A710B731AE0114818E0114816E01B
:10EFA0000C7BA34208D2F479E40705D4351C8F68A2
:10EFB0009C00103DE55101330C79A242E5D2F47971
:10EFC000A407E2D40D68940066510132DDE7F0BD7C
:10EFD000C42C0020A42D0020D22C0020C62C002000
:10EFE0000E80000008800000F0B5AD4B8DB01B789E
:10EFF000002B00D152E1AB4C2368002B00D14DE136
:10F00000FF2302AA03AF53709370D370031D7B607C
:10F010002A2300263B8103881670A34D102B0ED0A7
:10F0200082889446AA7A910700D490E09F4EB44516
:10F0300000D182E02E89664500D088E07DE0AB7A81
:10F04000DB0700D42AE10223AB720F333B7002AB23
:10F050005E70838807222B81831D191C281C019355
:10F0600000F06FFC1827381C7043914B10301818B3
:10F070000199072200F056FC00281CD10821AB7A28
:10F08000F2B20B43AB7202ABEA729A70B1B289482A
:10F0900006AAFEF749FA002823D106A93B1C1C2228
:10F0A0008548FEF7E3FAA37A844A9B009B5806A89A
:10F0B00002A9984715E00136072ED3D111E0182B8D
:10F0C00000D0EBE08379112B7ED080235B421A4382
:10F0D0009533AA723B70A37A794A9B009B5802A889
:10F0E00098470022151C03AE236802A8311C9847DC
:10F0F0003378122B0CD16C48837A012B08D0012372
:10F100008372023B0381C37200210722FCF780F85F
:10F11000002D00D1C2E00222637A134200D1BDE08B
:10F120006149887A80060FD5002306A803704370D2
:10F13000CB7A8370FFF7C6FDB0E05B4E02A9F67A8A
:10F140008E7000264E7002E093436372A6E0172B88
:10F1500051D10125637A0426AB436372131C142733
:10F16000514903AAB3438B7217708279002ABAD12E
:10F17000C27932423CD002AA9678FF2E38D00822BB
:10F180001A438A72837A9B0706D518237343484A29
:10F19000D318DA7DAA43DA75CB7AFF2B28D00B7807
:10F1A000022B0CD018257543414B07225D191035F1
:10F1B000281C00F0C6FB0222EB799343EB7102A8F6
:10F1C0000121FFF7D9FB13E0130700D47DE73D4889
:10F1D000002106220430FCF71BF816236021324A76
:10F1E0003B70937A0B4393720222637A13436372E8
:10F1F0000022012577E7172B42D8112B25D10223B6
:10F20000111C294E9943B172120707D54BB2002B3E
:10F210000DDA02A80021FFF7AFFB08E002AB9878F7
:10F22000FF2804D0FFF728FDFF2302AA9370B37ACA
:10F2300000255B0703D5637A0135AB436372102366
:10F24000B37202333B7000224DE7132B26D100220C
:10F25000194B0992069318230A920B92E87A111C13
:10F26000434313480892C3180793604606ABFFF761
:10F2700041FB021E12D1AB7A04321343AB720DE094
:10F280001C2B02D113233B702BE7522B00D016E727
:10F29000A37A0B4A9B009B5802A898470DB0F0BD7B
:10F2A000C42C0020A42D0020C62C0020FFFF00004D
:10F2B000D22C0020B42D00207A2D002094FE0100D5
:10F2C000A4FE0100982D002010B51B4A1378111CD4
:10F2D000012B19D1194B1B681B0715D1184BE024C2
:10F2E0001A68F023101C184022420BD1154A1268EC
:10F2F0001A4209D1144A154B1A608022144B12028B
:10F300001A6001E03028F1D00B68DBB2012B12D17A
:10F310000A4A126812070ED1F021094A12680A40FF
:10F32000402A08D1074A12680A4204D1C12280212A
:10F33000D200C9058B5010BDE00F00F0E40F00F0C3
:10F34000E80F00F0EC0F00F0DFFF07C004050040FD
:10F35000186C00402EDF704752DF704710DF704797
:10F3600060DF704761DF704708B5FCF7C5FE08BD78
:10F37000F0B5254B85B01B78002B43D0234D244E90
:10F380002B6834685A425341DBB2009363425C41BC
:10F39000E4B2009B002B33D103A8FFF7DDFF052863
:10F3A00008D0002802D0FCF7B3FE05E003982B68D4
:10F3B000984701E001230093002C1DD1154B03A9B0
:10F3C0001B8801240B80144B1B68181C0193FFF74A
:10F3D000C9FF071E052F09D0002803D0FCF798FEAF
:10F3E000002403E00198336898473C1C009B002BE5
:10F3F000CFD0002CCDD005E0009B002B02D1C8E778
:10F40000002CDBD005B0F0BDBC2D0020C42D0020A9
:10F41000C82D0020BE2D0020C02D0020F8B5051CF1
:10F420000C1C171C1E1CFCF731FE0720002C13D0EF
:10F43000A30711D1094B281C1C60094B09491F80E7
:10F44000094B1E60FFF78AFF002805D10122074BF8
:10F4500016301A70FFF77EFFF8BDC046C02D0020A1
:10F46000BE2D002069F30100CC2D0020BC2D002012
:10F470000E23002802D0024B18600023181C70478E
:10F48000C82D00200E23002802D0024B1860002354
:10F49000181C7047C42D002008B5064B1B68002BB4
:10F4A00005D09847002804D0FCF732FE01E0FFF7B2
:10F4B0005FFF08BDCC2D002070B5141C051C0E1C70
:10F4C000101C00211422FBF7A3FE0022012322615D
:10F4D000227B23809A43227326726572002D00D00E
:10F4E000A372002070BD000037B50E4B0193019B45
:10F4F000834214D080225205936B546B051C6343E6
:10F500001A1C80239B05D4180020019A06492B1C45
:10F51000FCF7E6FD621B00200449FCF7E1FD00203A
:10F520003EBDC046801D0020B8FE0100E9FE01007E
:10F5300037B5041C164B00200193019A154900921F
:10F54000FCF7CEFD201C6946FFF70AFF009A019BDD
:10F55000051C9A4212D0802149058B6B4C6B002010
:10F560005C430D49FCF7BCFD009B0020E21A8023A0
:10F570009B05D2180949FCF7B3FD07E0002805D028
:10F58000002007492A1CFCF7ABFDFEE7281C3EBD06
:10F59000801D002010FF010033FF01006CFF0100FF
:10F5A00093FF010003210A4802680A4302600948E8
:10F5B00002680A4302600849084A094B9B1A03DDA6
:10F5C000043BC858D050FBDC06488047064800473B
:10F5D0002405004054050040B8FF0100801D0020B4
:10F5E000E81D0020C9F2010021B10100FEE7FEE79D
:10F5F000FEE7FEE7FEE7FEE702B471464908490070
:10F60000095C49008E4402BC7047C04603B4714691
:10F61000490840004900095A49008E4403BC70471C
:10F62000002243088B4274D303098B425FD3030A41
:10F630008B4244D3030B8B4228D3030C8B420DD354
:10F64000FF22090212BA030C8B4202D312120902E2
:10F6500065D0030B8B4219D300E0090AC30B8B4220
:10F6600001D3CB03C01A5241830B8B4201D38B03CE
:10F67000C01A5241430B8B4201D34B03C01A524173
:10F68000030B8B4201D30B03C01A5241C30A8B42B6
:10F6900001D3CB02C01A5241830A8B4201D38B02A1
:10F6A000C01A5241430A8B4201D34B02C01A524145
:10F6B000030A8B4201D30B02C01A5241CDD2C309B7
:10F6C0008B4201D3CB01C01A524183098B4201D333
:10F6D0008B01C01A524143098B4201D34B01C01A1E
:10F6E000524103098B4201D30B01C01A5241C30896
:10F6F0008B4201D3CB00C01A524183088B4201D305
:10F700008B00C01A524143088B4201D34B00C01AF0
:10F710005241411A00D20146524110467047FFE75C
:10F7200001B5002000F0FCF802BDC0460029F7D06A
:10F7300003B5FFF775FF0EBC4243891A1847C04650
:10F7400003460B437FD4002243088B4274D3030942
:10F750008B425FD3030A8B4244D3030B8B4228D3E3
:10F76000030C8B420DD3FF22090212BA030C8B4209
:10F7700002D31212090265D0030B8B4219D300E0A9
:10F78000090AC30B8B4201D3CB03C01A5241830B2E
:10F790008B4201D38B03C01A5241430B8B4201D3DE
:10F7A0004B03C01A5241030B8B4201D30B03C01A07
:10F7B0005241C30A8B4201D3CB02C01A5241830A81
:10F7C0008B4201D38B02C01A5241430A8B4201D3B0
:10F7D0004B02C01A5241030A8B4201D30B02C01ADA
:10F7E0005241CDD2C3098B4201D3CB01C01A524141
:10F7F00083098B4201D38B01C01A524143098B42CA
:10F8000001D34B01C01A524103098B4201D30B01B2
:10F81000C01A5241C3088B4201D3CB00C01A5241D7
:10F8200083088B4201D38B00C01A524143088B429C
:10F8300001D34B00C01A5241411A00D20146524135
:10F84000104670475DE0CA0F00D04942031000D354
:10F850004042534000229C4603098B422DD3030AA9
:10F860008B4212D3FC22890112BA030A8B420CD3B9
:10F87000890192118B4208D3890192118B4204D3E2
:10F8800089013AD0921100E08909C3098B4201D362
:10F89000CB01C01A524183098B4201D38B01C01A9C
:10F8A000524143098B4201D34B01C01A5241030913
:10F8B0008B4201D30B01C01A5241C3088B4201D3C2
:10F8C000CB00C01A524183088B4201D38B00C01A6F
:10F8D0005241D9D243088B4201D34B00C01A524146
:10F8E000411A00D20146634652415B10104601D3D3
:10F8F0004042002B00D54942704763465B1000D35D
:10F90000404201B5002000F00BF802BD0029F8D0FC
:10F9100003B5FFF715FF0EBC4243891A1847C046CE
:10F920007047C04630B50024944208D0035D651C82
:10F930000C5DA34201D0181B02E02C1CF4E7002050
:10F9400030BD002310B5934203D0CC5CC4540133C6
:10F95000F9E710BD031C0A7801311A700133002A3F
:10F96000F9D17047F8B5C046F8BC08BC9E46704750
:10F97000F8B5C046F8BC08BC9E467047430000007E
:10F98000801D00200600180000009001095B415016
:10F99000504C5D3A2025780D0A005B4150504C5D7B
:10F9A0003A205363616E2073746F70206661696CD6
:10F9B00065642C20726561736F6E2025640D0A00EA
:10F9C0005B4150504C5D3A20436F6E6E65637469C5
:10F9D0006F6E2052657175657374204661696C6540
:10F9E000642C20726561736F6E2025640D0A005BC4
:10F9F0004150504C5D3A205363616E2074696D65CF
:10FA000064206F75742E0D0A005B4150504C5D3AB6
:10FA100020436F6E6E656374696F6E2052657175F9
:10FA20006573742074696D6564206F75742E0D0A9A
:10FA3000005B4150504C5D3A203E3E20444D5F45B6
:10FA400056545F434F4E4E454354494F4E0D0A00A6
:10FA50005B4150504C5D3A203C3C20444D5F455644
:10FA6000545F434F4E4E454354494F4E0D0A005B81
:10FA70004150504C5D3A203E3E20444D5F45565427
:10FA80005F444953434F4E4E454354494F4E0D0A30
:10FA9000005B4150504C5D3A203C3C20444D5F455A
:10FAA00056545F444953434F4E4E454354494F4E7D
:10FAB0000D0A005B4150504C5D3A5B307825303286
:10FAC000585D203E3E20444D5F4556545F534543AC
:10FAD00055524954595F53455455500D0A005B41E6
:10FAE00050504C5D3A5B3078253032585D203C3CBC
:10FAF00020444D5F4556545F534543555249545930
:10FB00005F53455455500D0A005B4150504C5D3ACF
:10FB1000203E3E20444D5F4556545F534543555269
:10FB20004954595F53455455505F434F4D504C45D0
:10FB300054450D0A005B4150504C5D3A203C3C203E
:10FB4000444D5F4556545F53454355524954595FA0
:10FB500053455455505F434F4D504C4554450D0A45
:10FB6000005B4150504C5D3A203E3E20444D5F4C7E
:10FB7000494E4B5F534543555245445F494E440DF2
:10FB80000A005B4150504C5D3A203C3C20444D5FA4
:10FB90004C494E4B5F534543555245445F494E4493
:10FBA0000D0A005B4150504C5D3A203E3E20444DD2
:10FBB0005F4556545F4C494E4B5F53454355524544
:10FBC000440D0A005B4150504C5D3A203C3C2044BF
:10FBD0004D5F4556545F4445564943455F434F4E3C
:10FBE000544558545F4C4F414445440D0A005B4115
:10FBF00050504C5D3A203E3E20444D5F4556545F88
:10FC00004445564943455F434F4E544558545F530E
:10FC1000544F5245440D0A005B4150504C5D3A2010
:10FC20003C3C20444D5F4556545F4445564943454E
:10FC30005F434F4E544558545F53544F5245440D03
:10FC40000A005B4150504C5D3A203E3E20444D5FDF
:10FC50004556545F4445564943455F434F4E5445CE
:10FC600058545F44454C455445440D0A005B41508F
:10FC7000504C5D3A203C3C20444D5F4556545F4417
:10FC800045564943455F434F4E544558545F44459C
:10FC90004C455445440D0A004865617274207261F8
:10FCA0007465207365727669636520646973636F38
:10FCB0007665726564200D0A005B4150504C5D3AD8
:10FCC000204852204D6561737572656D656E7420B4
:10FCD0007265636569766564202564200D0A0048B5
:10FCE000656172742052617465203D2025640D0A9F
:10FCF000005B4150504C5D3A2042617474657279EA
:10FD0000205365727669636520646973636F7665F5
:10FD10007265642E200D0A005B4150504C5D3A2004
:10FD200052656164696E67206261747465727920DE
:10FD30006C6576656C2E200D0A005B4150504C5D61
:10FD40003A20456E61626C696E6720426174746529
:10FD50007279204C6576656C204E6F7469666963B4
:10FD60006174696F6E2E200D0A005B4150504C5D2E
:10FD70003A2042617474657279204C6576656C2016
:10FD800072656365697665642025642025250D0A02
:10FD90000042617474657279203D20256420252518
:10FDA0000D0A005B4150504C5D3A2042617474650D
:10FDB0007279204C6576656C2052656164206173B0
:10FDC0002025642025250D0A004865617274207283
:10FDD00061746520636F6C6C6563746F7220657805
:10FDE000616D706C650D0A005465726D696E616CB1
:10FDF0000052545400534547474552003031323386
:10FE00003435363738394142434445464E6F726D7A
:10FE1000616C00496E7075740000000059D30100D8
:10FE200025CE010049D30100DDCD0100A9CD01009F
:10FE3000D9CC0100A9CC010045D2010029D2010092
:10FE400095D10100F4290020502A00201100000063
:10FE5000120000001300000014000000302A0020EF
:10FE60001100030091DC01001200030091DC01008D
:10FE70001300030091DC01001400030091DC010079
:10FE8000742A002009E9010031EA01000DE90100AE
:10FE9000D9EA010011E90100E1EA010015E90100D8
:10FEA00011EB010019E901001DE901006DE90100F4
:10FEB00071E90100FFFFFFFF52414D2053544152B1
:10FEC00054204144445220307825782073686F755F
:10FED0006C642062652061646A7573746564207463
:10FEE0006F20307825780D0A0052414D2053495A31
:10FEF000452073686F756C642062652061646A7563
:10FF00007374656420746F2030782578200D0A00A2
:10FF100073645F626C655F656E61626C653A205206
:10FF2000414D20535441525420617420307825783B
:10FF30000D0A0073645F626C655F656E61626C657B
:10FF40003A206170705F72616D5F626173652073EA
:10FF5000686F756C642062652061646A757374658E
:10FF60006420746F20307825780D0A0072616D204E
:10FF700073697A652073686F756C642062652061AF
:10FF8000646A757374656420746F203078257820F6
:10FF90000D0A0073645F626C655F656E61626C651B
:10FFA0003A206572726F7220307825780D0A000051
:08FFB00070B1FF7F01000000A9
:10FFB8000000000000000000000000000000000039
:10FFC8000000000000000000000000000000000029
:10FFD8007CF90100000000000000000000000000A3
:10FFE8000000000000000000000000000000000009
:08FFF800000000000000000001
:020000022000DC
:1000000000000000000000000000000000000000F0
:100010000000000000000000E9B00100C1B00100D4
:040000031000F5A54F
:00000001FF
